{
  "address": "0xbbfB9a525ACdd2aB3A5Eb5fc9Ab8CF53b881000e",
  "abi": [
    {
      "inputs": [
        {
          "internalType": "address",
          "name": "implementationAddress",
          "type": "address"
        },
        {
          "internalType": "bytes",
          "name": "data",
          "type": "bytes"
        },
        {
          "internalType": "address",
          "name": "ownerAddress",
          "type": "address"
        }
      ],
      "stateMutability": "payable",
      "type": "constructor"
    },
    {
      "anonymous": false,
      "inputs": [
        {
          "indexed": true,
          "internalType": "address",
          "name": "previousOwner",
          "type": "address"
        },
        {
          "indexed": true,
          "internalType": "address",
          "name": "newOwner",
          "type": "address"
        }
      ],
      "name": "OwnershipTransferred",
      "type": "event"
    },
    {
      "anonymous": false,
      "inputs": [
        {
          "indexed": true,
          "internalType": "address",
          "name": "previousImplementation",
          "type": "address"
        },
        {
          "indexed": true,
          "internalType": "address",
          "name": "newImplementation",
          "type": "address"
        }
      ],
      "name": "ProxyImplementationUpdated",
      "type": "event"
    },
    {
      "stateMutability": "payable",
      "type": "fallback"
    },
    {
      "inputs": [
        {
          "internalType": "address",
          "name": "newImplementation",
          "type": "address"
        },
        {
          "internalType": "bytes",
          "name": "data",
          "type": "bytes"
        }
      ],
      "name": "changeImplementation",
      "outputs": [],
      "stateMutability": "payable",
      "type": "function"
    },
    {
      "inputs": [],
      "name": "owner",
      "outputs": [
        {
          "internalType": "address",
          "name": "",
          "type": "address"
        }
      ],
      "stateMutability": "view",
      "type": "function"
    },
    {
      "inputs": [
        {
          "internalType": "bytes4",
          "name": "id",
          "type": "bytes4"
        }
      ],
      "name": "supportsInterface",
      "outputs": [
        {
          "internalType": "bool",
          "name": "",
          "type": "bool"
        }
      ],
      "stateMutability": "view",
      "type": "function"
    },
    {
      "inputs": [
        {
          "internalType": "address",
          "name": "newOwner",
          "type": "address"
        }
      ],
      "name": "transferOwnership",
      "outputs": [],
      "stateMutability": "nonpayable",
      "type": "function"
    }
  ],
  "transactionHash": "0x79a40fcb4164958e396061563fa37c089cb759ea923fd45d002a482c1b251009",
  "args": [
    "0xFeDbc87123caF3925145e1bD1Be844c03b36722f",
    "0x7f7120fe0000000000000000000000006fb5916c0f57f88004d5b5eb25f6f4d77353a1ed",
    "0x6Fb5916c0f57f88004d5b5EB25f6f4D77353a1eD"
  ],
  "solcInputHash": "52b091a21bb25369e5ba7d11a3ac043b",
  "bytecode": "0x60806040526040516109e93803806109e98339818101604052606081101561002657600080fd5b81516020830180516040519294929383019291908464010000000082111561004d57600080fd5b90830190602082018581111561006257600080fd5b825164010000000081118282018810171561007c57600080fd5b82525081516020918201929091019080838360005b838110156100a9578181015183820152602001610091565b50505050905090810190601f1680156100d65780820380516001836020036101000a031916815260200191505b506040526020015191506100ec905083836100fd565b6100f581610220565b505050610294565b7f360894a13ba1a3210667c828492db98dca3e2076cc3735a920a3ca505d382bbc8054908390556040516001600160a01b0380851691908316907f5570d70a002632a7b0b3c9304cc89efb62d8da9eca0dbd7752c83b737906829690600090a381511561021b576000836001600160a01b0316836040518082805190602001908083835b602083106101a05780518252601f199092019160209182019101610181565b6001836020036101000a038019825116818451168082178552505050505050905001915050600060405180830381855af49150503d8060008114610200576040519150601f19603f3d011682016040523d82523d6000602084013e610205565b606091505b5050905080610219573d806000803e806000fd5b505b505050565b600061022a610281565b9050816000805160206109c983398151915255816001600160a01b0316816001600160a01b03167f8be0079c531659141344cd1fd0a4f28419497f9722a3daafe3b4186f6b6457e060405160405180910390a35050565b6000805160206109c98339815191525490565b610726806102a36000396000f3fe6080604052600436106100435760003560e01c806301ffc9a71461009f57806331124171146100ff5780638da5cb5b1461017f578063f2fde38b146101b057610095565b36610095576040805162461bcd60e51b815260206004820152600e60248201527f45544845525f52454a4543544544000000000000000000000000000000000000604482015290519081900360640190fd5b61009d6101e3565b005b3480156100ab57600080fd5b506100eb600480360360208110156100c257600080fd5b50357fffffffff000000000000000000000000000000000000000000000000000000001661022e565b604080519115158252519081900360200190f35b61009d6004803603604081101561011557600080fd5b6001600160a01b03823516919081019060408101602082013564010000000081111561014057600080fd5b82018360208201111561015257600080fd5b8035906020019184600183028401116401000000008311171561017457600080fd5b5090925090506103e4565b34801561018b57600080fd5b50610194610496565b604080516001600160a01b039092168252519081900360200190f35b3480156101bc57600080fd5b5061009d600480360360208110156101d357600080fd5b50356001600160a01b03166104a5565b7f360894a13ba1a3210667c828492db98dca3e2076cc3735a920a3ca505d382bbc5460003681823780813683855af491503d8082833e828015610224578183f35b8183fd5b50505050565b60007f01ffc9a7000000000000000000000000000000000000000000000000000000007fffffffff00000000000000000000000000000000000000000000000000000000831614806102c157507f7f5828d0000000000000000000000000000000000000000000000000000000007fffffffff000000000000000000000000000000000000000000000000000000008316145b156102ce575060016103df565b7fffffffff000000000000000000000000000000000000000000000000000000008083161415610300575060006103df565b7f360894a13ba1a3210667c828492db98dca3e2076cc3735a920a3ca505d382bbc54604080517f01ffc9a70000000000000000000000000000000000000000000000000000000081527fffffffff000000000000000000000000000000000000000000000000000000008516600482015290516001600160a01b038316916301ffc9a7916024808301926020929190829003018186803b1580156103a357600080fd5b505afa9250505080156103c857506040513d60208110156103c357600080fd5b505160015b6103d65760009150506103df565b91506103df9050565b919050565b6103ec61051e565b6001600160a01b0316336001600160a01b031614610451576040805162461bcd60e51b815260206004820152600e60248201527f4e4f545f415554484f52495a4544000000000000000000000000000000000000604482015290519081900360640190fd5b6104918383838080601f01602080910402602001604051908101604052809392919081815260200183838082843760009201919091525061054392505050565b505050565b60006104a061051e565b905090565b6104ad61051e565b6001600160a01b0316336001600160a01b031614610512576040805162461bcd60e51b815260206004820152600e60248201527f4e4f545f415554484f52495a4544000000000000000000000000000000000000604482015290519081900360640190fd5b61051b8161067d565b50565b7fb53127684a568b3173ae13b9f8a6016e243e63b6e8ee1178d6a717850b5d61035490565b7f360894a13ba1a3210667c828492db98dca3e2076cc3735a920a3ca505d382bbc8054908390556040516001600160a01b0380851691908316907f5570d70a002632a7b0b3c9304cc89efb62d8da9eca0dbd7752c83b737906829690600090a3815115610491576000836001600160a01b0316836040518082805190602001908083835b6020831061060457805182527fffffffffffffffffffffffffffffffffffffffffffffffffffffffffffffffe090920191602091820191016105c7565b6001836020036101000a038019825116818451168082178552505050505050905001915050600060405180830381855af49150503d8060008114610664576040519150601f19603f3d011682016040523d82523d6000602084013e610669565b606091505b5050905080610228573d806000803e806000fd5b600061068761051e565b9050817fb53127684a568b3173ae13b9f8a6016e243e63b6e8ee1178d6a717850b5d610355816001600160a01b0316816001600160a01b03167f8be0079c531659141344cd1fd0a4f28419497f9722a3daafe3b4186f6b6457e060405160405180910390a3505056fea264697066735822122084a578f6647522cbab7c8629655a75f509deb6e68a8d1c467aac605fe219ff8d64736f6c63430007010033b53127684a568b3173ae13b9f8a6016e243e63b6e8ee1178d6a717850b5d6103",
  "devdoc": {
    "kind": "dev",
    "methods": {},
    "version": 1
  },
  "userdoc": {
    "kind": "user",
    "methods": {},
    "notice": "Proxy implementing EIP173 for ownership management",
    "version": 1
  },
  "storageLayout": {
    "storage": [],
    "types": null
  }
}