{
  "_format": "hh-sol-artifact-1",
  "contractName": "Authorizer",
  "sourceName": "contracts/authorizer/Authorizer.sol",
  "abi": [
    {
      "inputs": [
        {
          "internalType": "address",
          "name": "admin",
          "type": "address"
        }
      ],
      "stateMutability": "nonpayable",
      "type": "constructor"
    },
    {
      "anonymous": false,
      "inputs": [
        {
          "indexed": true,
          "internalType": "bytes32",
          "name": "role",
          "type": "bytes32"
        },
        {
          "indexed": true,
          "internalType": "bytes32",
          "name": "previousAdminRole",
          "type": "bytes32"
        },
        {
          "indexed": true,
          "internalType": "bytes32",
          "name": "newAdminRole",
          "type": "bytes32"
        }
      ],
      "name": "RoleAdminChanged",
      "type": "event"
    },
    {
      "anonymous": false,
      "inputs": [
        {
          "indexed": true,
          "internalType": "bytes32",
          "name": "role",
          "type": "bytes32"
        },
        {
          "indexed": true,
          "internalType": "address",
          "name": "account",
          "type": "address"
        },
        {
          "indexed": true,
          "internalType": "address",
          "name": "sender",
          "type": "address"
        }
      ],
      "name": "RoleGranted",
      "type": "event"
    },
    {
      "anonymous": false,
      "inputs": [
        {
          "indexed": true,
          "internalType": "bytes32",
          "name": "role",
          "type": "bytes32"
        },
        {
          "indexed": true,
          "internalType": "address",
          "name": "account",
          "type": "address"
        },
        {
          "indexed": true,
          "internalType": "address",
          "name": "sender",
          "type": "address"
        }
      ],
      "name": "RoleRevoked",
      "type": "event"
    },
    {
      "inputs": [],
      "name": "DEFAULT_ADMIN_ROLE",
      "outputs": [
        {
          "internalType": "bytes32",
          "name": "",
          "type": "bytes32"
        }
      ],
      "stateMutability": "view",
      "type": "function"
    },
    {
      "inputs": [
        {
          "internalType": "bytes32",
          "name": "role",
          "type": "bytes32"
        }
      ],
      "name": "getRoleAdmin",
      "outputs": [
        {
          "internalType": "bytes32",
          "name": "",
          "type": "bytes32"
        }
      ],
      "stateMutability": "view",
      "type": "function"
    },
    {
      "inputs": [
        {
          "internalType": "bytes32",
          "name": "role",
          "type": "bytes32"
        },
        {
          "internalType": "uint256",
          "name": "index",
          "type": "uint256"
        }
      ],
      "name": "getRoleMember",
      "outputs": [
        {
          "internalType": "address",
          "name": "",
          "type": "address"
        }
      ],
      "stateMutability": "view",
      "type": "function"
    },
    {
      "inputs": [
        {
          "internalType": "bytes32",
          "name": "role",
          "type": "bytes32"
        }
      ],
      "name": "getRoleMemberCount",
      "outputs": [
        {
          "internalType": "uint256",
          "name": "",
          "type": "uint256"
        }
      ],
      "stateMutability": "view",
      "type": "function"
    },
    {
      "inputs": [
        {
          "internalType": "bytes32",
          "name": "role",
          "type": "bytes32"
        },
        {
          "internalType": "address",
          "name": "account",
          "type": "address"
        }
      ],
      "name": "grantRole",
      "outputs": [],
      "stateMutability": "nonpayable",
      "type": "function"
    },
    {
      "inputs": [
        {
          "internalType": "bytes32",
          "name": "role",
          "type": "bytes32"
        },
        {
          "internalType": "address",
          "name": "account",
          "type": "address"
        }
      ],
      "name": "hasRole",
      "outputs": [
        {
          "internalType": "bool",
          "name": "",
          "type": "bool"
        }
      ],
      "stateMutability": "view",
      "type": "function"
    },
    {
      "inputs": [
        {
          "internalType": "bytes32",
          "name": "role",
          "type": "bytes32"
        },
        {
          "internalType": "address",
          "name": "account",
          "type": "address"
        }
      ],
      "name": "renounceRole",
      "outputs": [],
      "stateMutability": "nonpayable",
      "type": "function"
    },
    {
      "inputs": [
        {
          "internalType": "bytes32",
          "name": "role",
          "type": "bytes32"
        },
        {
          "internalType": "address",
          "name": "account",
          "type": "address"
        }
      ],
      "name": "revokeRole",
      "outputs": [],
      "stateMutability": "nonpayable",
      "type": "function"
    }
  ],
  "bytecode": "0x608060405234801561001057600080fd5b506040516109ae3803806109ae8339818101604052602081101561003357600080fd5b5051610040600082610046565b5061014b565b6100508282610054565b5050565b60008281526020818152604090912061007691839061041f6100c7821b17901c565b15610050576100836100e5565b6001600160a01b0316816001600160a01b0316837f2f8788117e7eff1d82e926ec794901d17c78024a50270940304540a733656f0d60405160405180910390a45050565b60006100dc836001600160a01b0384166100e9565b90505b92915050565b3390565b60006100f58383610133565b61012b575081546001818101845560008481526020808220909301849055845484825282860190935260409020919091556100df565b5060006100df565b60009081526001919091016020526040902054151590565b6108548061015a6000396000f3fe608060405234801561001057600080fd5b50600436106100885760003560e01c806391d148541161005b57806391d148541461017c578063a217fddf146101c9578063ca15c873146101d1578063d547741f146101ee57610088565b8063248a9ca31461008d5780632f2ff15d146100bc57806336568abe146100f75780639010d07c14610130575b600080fd5b6100aa600480360360208110156100a357600080fd5b5035610227565b60408051918252519081900360200190f35b6100f5600480360360408110156100d257600080fd5b508035906020013573ffffffffffffffffffffffffffffffffffffffff1661023c565b005b6100f56004803603604081101561010d57600080fd5b508035906020013573ffffffffffffffffffffffffffffffffffffffff166102c2565b6101536004803603604081101561014657600080fd5b5080359060200135610357565b6040805173ffffffffffffffffffffffffffffffffffffffff9092168252519081900360200190f35b6101b56004803603604081101561019257600080fd5b508035906020013573ffffffffffffffffffffffffffffffffffffffff16610378565b604080519115158252519081900360200190f35b6100aa610390565b6100aa600480360360208110156101e757600080fd5b5035610395565b6100f56004803603604081101561020457600080fd5b508035906020013573ffffffffffffffffffffffffffffffffffffffff166103ac565b60009081526020819052604090206002015490565b60008281526020819052604090206002015461025f9061025a610441565b610378565b6102b4576040517f08c379a000000000000000000000000000000000000000000000000000000000815260040180806020018281038252602f815260200180610791602f913960400191505060405180910390fd5b6102be8282610445565b5050565b6102ca610441565b73ffffffffffffffffffffffffffffffffffffffff168173ffffffffffffffffffffffffffffffffffffffff161461034d576040517f08c379a000000000000000000000000000000000000000000000000000000000815260040180806020018281038252602f8152602001806107f0602f913960400191505060405180910390fd5b6102be82826104c8565b600082815260208190526040812061036f908361054b565b90505b92915050565b600082815260208190526040812061036f9083610557565b600081565b600081815260208190526040812061037290610579565b6000828152602081905260409020600201546103ca9061025a610441565b61034d576040517f08c379a00000000000000000000000000000000000000000000000000000000081526004018080602001828103825260308152602001806107c06030913960400191505060405180910390fd5b600061036f8373ffffffffffffffffffffffffffffffffffffffff8416610584565b3390565b600082815260208190526040902061045d908261041f565b156102be5761046a610441565b73ffffffffffffffffffffffffffffffffffffffff168173ffffffffffffffffffffffffffffffffffffffff16837f2f8788117e7eff1d82e926ec794901d17c78024a50270940304540a733656f0d60405160405180910390a45050565b60008281526020819052604090206104e090826105ce565b156102be576104ed610441565b73ffffffffffffffffffffffffffffffffffffffff168173ffffffffffffffffffffffffffffffffffffffff16837ff6391f5c32d9c69d2a47ea670b442974b53935d1edc7fd64eb21e047a839171b60405160405180910390a45050565b600061036f83836105f0565b600061036f8373ffffffffffffffffffffffffffffffffffffffff841661066e565b600061037282610686565b6000610590838361066e565b6105c657508154600181810184556000848152602080822090930184905584548482528286019093526040902091909155610372565b506000610372565b600061036f8373ffffffffffffffffffffffffffffffffffffffff841661068a565b8154600090821061064c576040517f08c379a000000000000000000000000000000000000000000000000000000000815260040180806020018281038252602281526020018061076f6022913960400191505060405180910390fd5b82600001828154811061065b57fe5b9060005260206000200154905092915050565b60009081526001919091016020526040902054151590565b5490565b600081815260018301602052604081205480156107645783547fffffffffffffffffffffffffffffffffffffffffffffffffffffffffffffffff80830191908101906000908790839081106106db57fe5b90600052602060002001549050808760000184815481106106f857fe5b60009182526020808320909101929092558281526001898101909252604090209084019055865487908061072857fe5b60019003818190600052602060002001600090559055866001016000878152602001908152602001600020600090556001945050505050610372565b600091505061037256fe456e756d657261626c655365743a20696e646578206f7574206f6620626f756e6473416363657373436f6e74726f6c3a2073656e646572206d75737420626520616e2061646d696e20746f206772616e74416363657373436f6e74726f6c3a2073656e646572206d75737420626520616e2061646d696e20746f207265766f6b65416363657373436f6e74726f6c3a2063616e206f6e6c792072656e6f756e636520726f6c657320666f722073656c66a2646970667358221220d34daac1eb31bd0831f666a2b8bfdf61716d789f8ce6e33351fbc8699ede76c064736f6c63430007010033",
  "linkReferences": {},
  "deployedLinkReferences": {}
}