{
  "_format": "hh-sol-artifact-1",
  "contractName": "Vault",
  "sourceName": "contracts/vault/Vault.sol",
  "abi": [
    {
      "inputs": [
        {
          "internalType": "contract IAuthorizer",
          "name": "authorizer",
          "type": "address"
        }
      ],
      "stateMutability": "nonpayable",
      "type": "constructor"
    },
    {
      "anonymous": false,
      "inputs": [
        {
          "indexed": true,
          "internalType": "address",
          "name": "user",
          "type": "address"
        },
        {
          "indexed": true,
          "internalType": "contract IERC20",
          "name": "token",
          "type": "address"
        },
        {
          "indexed": false,
          "internalType": "uint256",
          "name": "balance",
          "type": "uint256"
        }
      ],
      "name": "InternalBalanceChanged",
      "type": "event"
    },
    {
      "anonymous": false,
      "inputs": [
        {
          "indexed": true,
          "internalType": "bytes32",
          "name": "poolId",
          "type": "bytes32"
        },
        {
          "indexed": true,
          "internalType": "address",
          "name": "assetManager",
          "type": "address"
        },
        {
          "indexed": true,
          "internalType": "contract IERC20",
          "name": "token",
          "type": "address"
        },
        {
          "indexed": false,
          "internalType": "int256",
          "name": "amount",
          "type": "int256"
        }
      ],
      "name": "PoolBalanceChanged",
      "type": "event"
    },
    {
      "anonymous": false,
      "inputs": [
        {
          "indexed": true,
          "internalType": "bytes32",
          "name": "poolId",
          "type": "bytes32"
        },
        {
          "indexed": true,
          "internalType": "address",
          "name": "liquidityProvider",
          "type": "address"
        },
        {
          "indexed": false,
          "internalType": "uint256[]",
          "name": "amountsOut",
          "type": "uint256[]"
        },
        {
          "indexed": false,
          "internalType": "uint256[]",
          "name": "protocolFees",
          "type": "uint256[]"
        }
      ],
      "name": "PoolExited",
      "type": "event"
    },
    {
      "anonymous": false,
      "inputs": [
        {
          "indexed": true,
          "internalType": "bytes32",
          "name": "poolId",
          "type": "bytes32"
        },
        {
          "indexed": true,
          "internalType": "address",
          "name": "liquidityProvider",
          "type": "address"
        },
        {
          "indexed": false,
          "internalType": "uint256[]",
          "name": "amountsIn",
          "type": "uint256[]"
        },
        {
          "indexed": false,
          "internalType": "uint256[]",
          "name": "protocolFees",
          "type": "uint256[]"
        }
      ],
      "name": "PoolJoined",
      "type": "event"
    },
    {
      "anonymous": false,
      "inputs": [
        {
          "indexed": false,
          "internalType": "bytes32",
          "name": "poolId",
          "type": "bytes32"
        }
      ],
      "name": "PoolRegistered",
      "type": "event"
    },
    {
      "anonymous": false,
      "inputs": [
        {
          "indexed": true,
          "internalType": "bytes32",
          "name": "poolId",
          "type": "bytes32"
        },
        {
          "indexed": true,
          "internalType": "contract IERC20",
          "name": "tokenIn",
          "type": "address"
        },
        {
          "indexed": true,
          "internalType": "contract IERC20",
          "name": "tokenOut",
          "type": "address"
        },
        {
          "indexed": false,
          "internalType": "uint256",
          "name": "tokensIn",
          "type": "uint256"
        },
        {
          "indexed": false,
          "internalType": "uint256",
          "name": "tokensOut",
          "type": "uint256"
        }
      ],
      "name": "Swap",
      "type": "event"
    },
    {
      "anonymous": false,
      "inputs": [
        {
          "indexed": false,
          "internalType": "bytes32",
          "name": "poolId",
          "type": "bytes32"
        },
        {
          "indexed": false,
          "internalType": "contract IERC20[]",
          "name": "tokens",
          "type": "address[]"
        }
      ],
      "name": "TokensDeregistered",
      "type": "event"
    },
    {
      "anonymous": false,
      "inputs": [
        {
          "indexed": false,
          "internalType": "bytes32",
          "name": "poolId",
          "type": "bytes32"
        },
        {
          "indexed": false,
          "internalType": "contract IERC20[]",
          "name": "tokens",
          "type": "address[]"
        },
        {
          "indexed": false,
          "internalType": "address[]",
          "name": "assetManagers",
          "type": "address[]"
        }
      ],
      "name": "TokensRegistered",
      "type": "event"
    },
    {
      "inputs": [
        {
          "components": [
            {
              "internalType": "bytes32",
              "name": "poolId",
              "type": "bytes32"
            },
            {
              "internalType": "uint256",
              "name": "tokenInIndex",
              "type": "uint256"
            },
            {
              "internalType": "uint256",
              "name": "tokenOutIndex",
              "type": "uint256"
            },
            {
              "internalType": "uint256",
              "name": "amountIn",
              "type": "uint256"
            },
            {
              "internalType": "bytes",
              "name": "userData",
              "type": "bytes"
            }
          ],
          "internalType": "struct IVault.SwapIn[]",
          "name": "swaps",
          "type": "tuple[]"
        },
        {
          "internalType": "contract IERC20[]",
          "name": "tokens",
          "type": "address[]"
        },
        {
          "components": [
            {
              "internalType": "address",
              "name": "sender",
              "type": "address"
            },
            {
              "internalType": "bool",
              "name": "fromInternalBalance",
              "type": "bool"
            },
            {
              "internalType": "address",
              "name": "recipient",
              "type": "address"
            },
            {
              "internalType": "bool",
              "name": "toInternalBalance",
              "type": "bool"
            }
          ],
          "internalType": "struct IVault.FundManagement",
          "name": "funds",
          "type": "tuple"
        },
        {
          "internalType": "int256[]",
          "name": "limits",
          "type": "int256[]"
        },
        {
          "internalType": "uint256",
          "name": "deadline",
          "type": "uint256"
        }
      ],
      "name": "batchSwapGivenIn",
      "outputs": [
        {
          "internalType": "int256[]",
          "name": "",
          "type": "int256[]"
        }
      ],
      "stateMutability": "nonpayable",
      "type": "function"
    },
    {
      "inputs": [
        {
          "components": [
            {
              "internalType": "bytes32",
              "name": "poolId",
              "type": "bytes32"
            },
            {
              "internalType": "uint256",
              "name": "tokenInIndex",
              "type": "uint256"
            },
            {
              "internalType": "uint256",
              "name": "tokenOutIndex",
              "type": "uint256"
            },
            {
              "internalType": "uint256",
              "name": "amountOut",
              "type": "uint256"
            },
            {
              "internalType": "bytes",
              "name": "userData",
              "type": "bytes"
            }
          ],
          "internalType": "struct IVault.SwapOut[]",
          "name": "swaps",
          "type": "tuple[]"
        },
        {
          "internalType": "contract IERC20[]",
          "name": "tokens",
          "type": "address[]"
        },
        {
          "components": [
            {
              "internalType": "address",
              "name": "sender",
              "type": "address"
            },
            {
              "internalType": "bool",
              "name": "fromInternalBalance",
              "type": "bool"
            },
            {
              "internalType": "address",
              "name": "recipient",
              "type": "address"
            },
            {
              "internalType": "bool",
              "name": "toInternalBalance",
              "type": "bool"
            }
          ],
          "internalType": "struct IVault.FundManagement",
          "name": "funds",
          "type": "tuple"
        },
        {
          "internalType": "int256[]",
          "name": "limits",
          "type": "int256[]"
        },
        {
          "internalType": "uint256",
          "name": "deadline",
          "type": "uint256"
        }
      ],
      "name": "batchSwapGivenOut",
      "outputs": [
        {
          "internalType": "int256[]",
          "name": "",
          "type": "int256[]"
        }
      ],
      "stateMutability": "nonpayable",
      "type": "function"
    },
    {
      "inputs": [
        {
          "internalType": "contract IAuthorizer",
          "name": "newAuthorizer",
          "type": "address"
        }
      ],
      "name": "changeAuthorizer",
      "outputs": [],
      "stateMutability": "nonpayable",
      "type": "function"
    },
    {
      "inputs": [
        {
          "internalType": "address",
          "name": "relayer",
          "type": "address"
        },
        {
          "internalType": "bool",
          "name": "allowed",
          "type": "bool"
        }
      ],
      "name": "changeRelayerAllowance",
      "outputs": [],
      "stateMutability": "nonpayable",
      "type": "function"
    },
    {
      "inputs": [
        {
          "components": [
            {
              "internalType": "contract IERC20",
              "name": "token",
              "type": "address"
            },
            {
              "internalType": "uint256",
              "name": "amount",
              "type": "uint256"
            },
            {
              "internalType": "address",
              "name": "sender",
              "type": "address"
            },
            {
              "internalType": "address",
              "name": "recipient",
              "type": "address"
            }
          ],
          "internalType": "struct IVault.BalanceTransfer[]",
          "name": "transfers",
          "type": "tuple[]"
        }
      ],
      "name": "depositToInternalBalance",
      "outputs": [],
      "stateMutability": "nonpayable",
      "type": "function"
    },
    {
      "inputs": [
        {
          "internalType": "bytes32",
          "name": "poolId",
          "type": "bytes32"
        },
        {
          "components": [
            {
              "internalType": "contract IERC20",
              "name": "token",
              "type": "address"
            },
            {
              "internalType": "uint256",
              "name": "amount",
              "type": "uint256"
            }
          ],
          "internalType": "struct IVault.AssetManagerTransfer[]",
          "name": "transfers",
          "type": "tuple[]"
        }
      ],
      "name": "depositToPoolBalance",
      "outputs": [],
      "stateMutability": "nonpayable",
      "type": "function"
    },
    {
      "inputs": [
        {
          "internalType": "bytes32",
          "name": "poolId",
          "type": "bytes32"
        },
        {
          "internalType": "contract IERC20[]",
          "name": "tokens",
          "type": "address[]"
        }
      ],
      "name": "deregisterTokens",
      "outputs": [],
      "stateMutability": "nonpayable",
      "type": "function"
    },
    {
      "inputs": [
        {
          "internalType": "bytes32",
          "name": "poolId",
          "type": "bytes32"
        },
        {
          "internalType": "address",
          "name": "sender",
          "type": "address"
        },
        {
          "internalType": "address",
          "name": "recipient",
          "type": "address"
        },
        {
          "internalType": "contract IERC20[]",
          "name": "tokens",
          "type": "address[]"
        },
        {
          "internalType": "uint256[]",
          "name": "minAmountsOut",
          "type": "uint256[]"
        },
        {
          "internalType": "bool",
          "name": "toInternalBalance",
          "type": "bool"
        },
        {
          "internalType": "bytes",
          "name": "userData",
          "type": "bytes"
        }
      ],
      "name": "exitPool",
      "outputs": [],
      "stateMutability": "nonpayable",
      "type": "function"
    },
    {
      "inputs": [
        {
          "internalType": "contract IFlashLoanReceiver",
          "name": "receiver",
          "type": "address"
        },
        {
          "internalType": "contract IERC20[]",
          "name": "tokens",
          "type": "address[]"
        },
        {
          "internalType": "uint256[]",
          "name": "amounts",
          "type": "uint256[]"
        },
        {
          "internalType": "bytes",
          "name": "receiverData",
          "type": "bytes"
        }
      ],
      "name": "flashLoan",
      "outputs": [],
      "stateMutability": "nonpayable",
      "type": "function"
    },
    {
      "inputs": [],
      "name": "getAuthorizer",
      "outputs": [
        {
          "internalType": "contract IAuthorizer",
          "name": "",
          "type": "address"
        }
      ],
      "stateMutability": "view",
      "type": "function"
    },
    {
      "inputs": [
        {
          "internalType": "contract IERC20[]",
          "name": "tokens",
          "type": "address[]"
        }
      ],
      "name": "getCollectedFees",
      "outputs": [
        {
          "internalType": "uint256[]",
          "name": "",
          "type": "uint256[]"
        }
      ],
      "stateMutability": "view",
      "type": "function"
    },
    {
      "inputs": [
        {
          "internalType": "address",
          "name": "user",
          "type": "address"
        },
        {
          "internalType": "contract IERC20[]",
          "name": "tokens",
          "type": "address[]"
        }
      ],
      "name": "getInternalBalance",
      "outputs": [
        {
          "internalType": "uint256[]",
          "name": "balances",
          "type": "uint256[]"
        }
      ],
      "stateMutability": "view",
      "type": "function"
    },
    {
      "inputs": [
        {
          "internalType": "bytes32",
          "name": "poolId",
          "type": "bytes32"
        }
      ],
      "name": "getPool",
      "outputs": [
        {
          "internalType": "address",
          "name": "",
          "type": "address"
        },
        {
          "internalType": "enum IVault.PoolSpecialization",
          "name": "",
          "type": "uint8"
        }
      ],
      "stateMutability": "view",
      "type": "function"
    },
    {
      "inputs": [
        {
          "internalType": "bytes32",
          "name": "poolId",
          "type": "bytes32"
        },
        {
          "internalType": "contract IERC20[]",
          "name": "tokens",
          "type": "address[]"
        }
      ],
      "name": "getPoolAssetManagers",
      "outputs": [
        {
          "internalType": "address[]",
          "name": "assetManagers",
          "type": "address[]"
        }
      ],
      "stateMutability": "view",
      "type": "function"
    },
    {
      "inputs": [
        {
          "internalType": "bytes32",
          "name": "poolId",
          "type": "bytes32"
        },
        {
          "internalType": "contract IERC20",
          "name": "token",
          "type": "address"
        }
      ],
      "name": "getPoolTokenInfo",
      "outputs": [
        {
          "internalType": "uint256",
          "name": "cash",
          "type": "uint256"
        },
        {
          "internalType": "uint256",
          "name": "managed",
          "type": "uint256"
        },
        {
          "internalType": "uint256",
          "name": "blockNumber",
          "type": "uint256"
        },
        {
          "internalType": "address",
          "name": "assetManager",
          "type": "address"
        }
      ],
      "stateMutability": "view",
      "type": "function"
    },
    {
      "inputs": [
        {
          "internalType": "bytes32",
          "name": "poolId",
          "type": "bytes32"
        }
      ],
      "name": "getPoolTokens",
      "outputs": [
        {
          "internalType": "contract IERC20[]",
          "name": "tokens",
          "type": "address[]"
        },
        {
          "internalType": "uint256[]",
          "name": "balances",
          "type": "uint256[]"
        }
      ],
      "stateMutability": "view",
      "type": "function"
    },
    {
      "inputs": [],
      "name": "getProtocolFees",
      "outputs": [
        {
          "internalType": "uint256",
          "name": "swapFee",
          "type": "uint256"
        },
        {
          "internalType": "uint256",
          "name": "withdrawFee",
          "type": "uint256"
        },
        {
          "internalType": "uint256",
          "name": "flashLoanFee",
          "type": "uint256"
        }
      ],
      "stateMutability": "view",
      "type": "function"
    },
    {
      "inputs": [
        {
          "internalType": "address",
          "name": "user",
          "type": "address"
        },
        {
          "internalType": "address",
          "name": "relayer",
          "type": "address"
        }
      ],
      "name": "hasAllowedRelayer",
      "outputs": [
        {
          "internalType": "bool",
          "name": "",
          "type": "bool"
        }
      ],
      "stateMutability": "view",
      "type": "function"
    },
    {
      "inputs": [
        {
          "internalType": "bytes32",
          "name": "poolId",
          "type": "bytes32"
        },
        {
          "internalType": "address",
          "name": "sender",
          "type": "address"
        },
        {
          "internalType": "address",
          "name": "recipient",
          "type": "address"
        },
        {
          "internalType": "contract IERC20[]",
          "name": "tokens",
          "type": "address[]"
        },
        {
          "internalType": "uint256[]",
          "name": "maxAmountsIn",
          "type": "uint256[]"
        },
        {
          "internalType": "bool",
          "name": "fromInternalBalance",
          "type": "bool"
        },
        {
          "internalType": "bytes",
          "name": "userData",
          "type": "bytes"
        }
      ],
      "name": "joinPool",
      "outputs": [],
      "stateMutability": "nonpayable",
      "type": "function"
    },
    {
      "inputs": [
        {
          "internalType": "enum IVault.SwapKind",
          "name": "kind",
          "type": "uint8"
        },
        {
          "components": [
            {
              "internalType": "bytes32",
              "name": "poolId",
              "type": "bytes32"
            },
            {
              "internalType": "uint256",
              "name": "tokenInIndex",
              "type": "uint256"
            },
            {
              "internalType": "uint256",
              "name": "tokenOutIndex",
              "type": "uint256"
            },
            {
              "internalType": "uint256",
              "name": "amount",
              "type": "uint256"
            },
            {
              "internalType": "bytes",
              "name": "userData",
              "type": "bytes"
            }
          ],
          "internalType": "struct IVault.SwapRequest[]",
          "name": "swaps",
          "type": "tuple[]"
        },
        {
          "internalType": "contract IERC20[]",
          "name": "tokens",
          "type": "address[]"
        },
        {
          "components": [
            {
              "internalType": "address",
              "name": "sender",
              "type": "address"
            },
            {
              "internalType": "bool",
              "name": "fromInternalBalance",
              "type": "bool"
            },
            {
              "internalType": "address",
              "name": "recipient",
              "type": "address"
            },
            {
              "internalType": "bool",
              "name": "toInternalBalance",
              "type": "bool"
            }
          ],
          "internalType": "struct IVault.FundManagement",
          "name": "funds",
          "type": "tuple"
        }
      ],
      "name": "queryBatchSwap",
      "outputs": [
        {
          "internalType": "int256[]",
          "name": "",
          "type": "int256[]"
        }
      ],
      "stateMutability": "nonpayable",
      "type": "function"
    },
    {
      "inputs": [
        {
          "internalType": "enum IVault.PoolSpecialization",
          "name": "specialization",
          "type": "uint8"
        }
      ],
      "name": "registerPool",
      "outputs": [
        {
          "internalType": "bytes32",
          "name": "",
          "type": "bytes32"
        }
      ],
      "stateMutability": "nonpayable",
      "type": "function"
    },
    {
      "inputs": [
        {
          "internalType": "bytes32",
          "name": "poolId",
          "type": "bytes32"
        },
        {
          "internalType": "contract IERC20[]",
          "name": "tokens",
          "type": "address[]"
        },
        {
          "internalType": "address[]",
          "name": "assetManagers",
          "type": "address[]"
        }
      ],
      "name": "registerTokens",
      "outputs": [],
      "stateMutability": "nonpayable",
      "type": "function"
    },
    {
      "inputs": [
        {
          "internalType": "uint256",
          "name": "newSwapFee",
          "type": "uint256"
        },
        {
          "internalType": "uint256",
          "name": "newWithdrawFee",
          "type": "uint256"
        },
        {
          "internalType": "uint256",
          "name": "newFlashLoanFee",
          "type": "uint256"
        }
      ],
      "name": "setProtocolFees",
      "outputs": [],
      "stateMutability": "nonpayable",
      "type": "function"
    },
    {
      "inputs": [
        {
          "components": [
            {
              "internalType": "contract IERC20",
              "name": "token",
              "type": "address"
            },
            {
              "internalType": "uint256",
              "name": "amount",
              "type": "uint256"
            },
            {
              "internalType": "address",
              "name": "sender",
              "type": "address"
            },
            {
              "internalType": "address",
              "name": "recipient",
              "type": "address"
            }
          ],
          "internalType": "struct IVault.BalanceTransfer[]",
          "name": "transfers",
          "type": "tuple[]"
        }
      ],
      "name": "transferInternalBalance",
      "outputs": [],
      "stateMutability": "nonpayable",
      "type": "function"
    },
    {
      "inputs": [
        {
          "internalType": "bytes32",
          "name": "poolId",
          "type": "bytes32"
        },
        {
          "components": [
            {
              "internalType": "contract IERC20",
              "name": "token",
              "type": "address"
            },
            {
              "internalType": "uint256",
              "name": "amount",
              "type": "uint256"
            }
          ],
          "internalType": "struct IVault.AssetManagerTransfer[]",
          "name": "transfers",
          "type": "tuple[]"
        }
      ],
      "name": "updateManagedBalance",
      "outputs": [],
      "stateMutability": "nonpayable",
      "type": "function"
    },
    {
      "inputs": [
        {
          "internalType": "contract IERC20[]",
          "name": "tokens",
          "type": "address[]"
        },
        {
          "internalType": "uint256[]",
          "name": "amounts",
          "type": "uint256[]"
        },
        {
          "internalType": "address",
          "name": "recipient",
          "type": "address"
        }
      ],
      "name": "withdrawCollectedFees",
      "outputs": [],
      "stateMutability": "nonpayable",
      "type": "function"
    },
    {
      "inputs": [
        {
          "components": [
            {
              "internalType": "contract IERC20",
              "name": "token",
              "type": "address"
            },
            {
              "internalType": "uint256",
              "name": "amount",
              "type": "uint256"
            },
            {
              "internalType": "address",
              "name": "sender",
              "type": "address"
            },
            {
              "internalType": "address",
              "name": "recipient",
              "type": "address"
            }
          ],
          "internalType": "struct IVault.BalanceTransfer[]",
          "name": "transfers",
          "type": "tuple[]"
        }
      ],
      "name": "withdrawFromInternalBalance",
      "outputs": [],
      "stateMutability": "nonpayable",
      "type": "function"
    },
    {
      "inputs": [
        {
          "internalType": "bytes32",
          "name": "poolId",
          "type": "bytes32"
        },
        {
          "components": [
            {
              "internalType": "contract IERC20",
              "name": "token",
              "type": "address"
            },
            {
              "internalType": "uint256",
              "name": "amount",
              "type": "uint256"
            }
          ],
          "internalType": "struct IVault.AssetManagerTransfer[]",
          "name": "transfers",
          "type": "tuple[]"
        }
      ],
      "name": "withdrawFromPoolBalance",
      "outputs": [],
      "stateMutability": "nonpayable",
      "type": "function"
    }
  ],
  "bytecode": "0x60806040523480156200001157600080fd5b5060405162005f0b38038062005f0b83398101604081905262000034916200005f565b6001600081905580546001600160a01b0319166001600160a01b03929092169190911790556200008f565b60006020828403121562000071578081fd5b81516001600160a01b038116811462000088578182fd5b9392505050565b615e6c806200009f6000396000f3fe608060405234801561001057600080fd5b50600436106101c45760003560e01c80637d3aeb96116100f9578063dfa2cc0a11610097578063f29a728a11610071578063f29a728a146103f3578063f6c0092714610406578063f84d066e14610427578063f94d46681461043a576101c4565b8063dfa2cc0a146103ba578063e8aea900146103cd578063f03592cf146103e0576101c4565b8063b05f8e48116100d3578063b05f8e481461035a578063c55f5e5d1461037d578063d8dfcea014610390578063da3e0fef146103a7576101c4565b80637d3aeb9614610312578063aaabadc514610325578063af6b62f21461033a576101c4565b806330fd0eed116101665780635c38449e116101405780635c38449e146102c657806366a9c7d2146102d95780636daefab6146102ec57806377c6b2c9146102ff576101c4565b806330fd0eed1461028057806338b72e351461029357806345eb8830146102a6576101c4565b80630e9e98cf116101a25780630e9e98cf1461021a5780630f5a6efa1461022d57806312b8c9901461024d57806325eb513714610260576101c4565b806309b2760f146101c95780630c81b269146101f25780630dd072a514610207575b600080fd5b6101dc6101d7366004615059565b61045b565b6040516101e99190615453565b60405180910390f35b610205610200366004614af0565b610520565b005b610205610215366004614af0565b6105e9565b610205610228366004614970565b6106c8565b61024061023b3660046149c4565b6106fb565b6040516101e99190615410565b61020561025b366004614af0565b610790565b61027361026e36600461498c565b610843565b6040516101e99190615448565b61020561028e366004614eab565b610858565b6102056102a1366004614cfa565b610998565b6102b96102b4366004614bd2565b610c15565b6040516101e991906153d8565b6102056102d4366004614f95565b610c55565b6102056102e7366004614e07565b610c7c565b6102056102fa366004614a3e565b610e96565b6102b961030d366004614bd2565b610f28565b610205610320366004614dbe565b610f54565b61032d61113c565b6040516101e99190615553565b61034d610348366004614e7d565b61114b565b6040516101e99190615335565b61036d610368366004614f71565b61121e565b6040516101e99493929190615d7e565b61020561038b366004615117565b6112e1565b61039861137e565b6040516101e993929190615d68565b6102056103b5366004614eab565b61138c565b6102056103c8366004614eab565b6114ba565b6102056103db366004614cfa565b611589565b6102406103ee366004614abe565b611793565b610205610401366004614a11565b61179e565b610419610414366004614ce2565b6117dd565b6040516101e99291906152f5565b6102b9610435366004615078565b611807565b61044d610448366004614ce2565b6118b5565b6040516101e9929190615382565b60006104656118e4565b600061047b3384610476600c61190e565b611912565b6000818152600d602052604090205490915060ff16156104b65760405162461bcd60e51b81526004016104ad9061593f565b60405180910390fd5b6104c0600c611951565b6000818152600d602052604090819020805460ff19166001179055517f43641244aeefd8de6827c26f36450aa6165c9fef65ddfa7262da93ba648464d290610509908390615453565b60405180910390a1905061051b61195a565b919050565b6105286118e4565b60005b81518110156105dd57600082828151811061054257fe5b602002602001015160400151905061055981611961565b600083838151811061056757fe5b6020026020010151600001519050600084848151811061058357fe5b6020026020010151602001519050600085858151811061059f57fe5b60200260200101516060015190506105b881848461199f565b6105cd6001600160a01b0384168530856119c6565b50506001909201915061052b9050565b506105e661195a565b50565b6105f16118e4565b60005b81518110156105dd57600082828151811061060b57fe5b602002602001015160400151905061062281611961565b600083838151811061063057fe5b6020026020010151600001519050600084848151811061064c57fe5b6020026020010151602001519050600085858151811061066857fe5b6020026020010151606001519050600061068183611a24565b905061068d8482611a32565b610698858585611a62565b6106b7826106a68584611a9e565b6001600160a01b0387169190611ac6565b5050600190930192506105f4915050565b6106d06118e4565b6106d8611ae5565b600180546001600160a01b0319166001600160a01b0383161790556105e661195a565b606081516001600160401b038111801561071457600080fd5b5060405190808252806020026020018201604052801561073e578160200160208202803683370190505b50905060005b82518110156107895761076a8484838151811061075d57fe5b6020026020010151611bbb565b82828151811061077657fe5b6020908102919091010152600101610744565b5092915050565b6107986118e4565b60005b81518110156105dd5760008282815181106107b257fe5b60200260200101516040015190506107c981611961565b60008383815181106107d757fe5b602002602001015160000151905060008484815181106107f357fe5b6020026020010151602001519050600085858151811061080f57fe5b6020026020010151606001519050610828848484611a62565b61083381848461199f565b50506001909201915061079b9050565b600061084f8383611be6565b90505b92915050565b6108606118e4565b61086982611c14565b600061087483611c42565b905060005b825181101561098a57600083828151811061089057fe5b60200260200101516000015190506108a88582611c58565b60008483815181106108b657fe5b6020026020010151602001519050600160028111156108d157fe5b8460028111156108dd57fe5b14156108f3576108ee868383611ca5565b61091d565b600284600281111561090157fe5b1415610912576108ee868383611cb3565b61091d868383611cc1565b6109326001600160a01b0383163330846119c6565b6001600160a01b03821633877fea86d22f498d42c4c5ed8d09366d0af8bb816a7d2265eef1080d0cb6acb517bb61096885611ccf565b6000036040516109789190615453565b60405180910390a45050600101610879565b505061099461195a565b5050565b6109a06118e4565b866109aa81611c14565b866109b481611961565b6109c086518651611cf8565b60606109cc8a88611d17565b90506060806109df8c8a858e8e8b611da9565b9150915060005b8951811015610b0d5760008382815181106109fd57fe5b60200260200101519050898281518110610a1357fe5b6020026020010151811115610a3a5760405162461bcd60e51b81526004016104ad90615b64565b610a598b8381518110610a4957fe5b6020026020010151828f8c611e83565b6000838381518110610a6757fe5b6020026020010151905080821015610aa657610aa1828203878581518110610a8b57fe5b6020026020010151611ede90919063ffffffff16565b610ace565b610ace818303878581518110610ab857fe5b6020026020010151611f1990919063ffffffff16565b868481518110610ada57fe5b602002602001018181525050610b038c8481518110610af557fe5b602002602001015182611a32565b50506001016109e6565b506000610b198d611c42565b90506002816002811115610b2957fe5b1415610b9157610b8c8d8b600081518110610b4057fe5b602002602001015186600081518110610b5557fe5b60200260200101518d600181518110610b6a57fe5b602002602001015188600181518110610b7f57fe5b6020026020010151611f2f565b610bba565b6001816002811115610b9f57fe5b1415610bb057610b8c8d8b86611f6e565b610bba8d85611fdb565b8b6001600160a01b03168d7ff7f95732a0f83c5093bfd147b3c8e57ac41ee39cd0f23cb6e74325e9f8fe1a648585604051610bf6929190615423565b60405180910390a3505050505050610c0c61195a565b50505050505050565b6060610c1f6118e4565b8351610c2a81611961565b610c41610c3688612024565b878787876001612027565b915050610c4c61195a565b95945050505050565b610c5d6118e4565b60405162461bcd60e51b81526004016104ad906157c6565b5050505050565b610c846118e4565b84610c8e81612152565b610c988483611cf8565b6000610ca387611c42565b90506002816002811115610cb357fe5b1415610d2b5760028514610cd95760405162461bcd60e51b81526004016104ad906156f8565b610d268787876000818110610cea57fe5b9050602002016020810190610cff9190614970565b88886001818110610d0c57fe5b9050602002016020810190610d219190614970565b612190565b610db9565b6001816002811115610d3957fe5b1415610d7c57610d26878787808060200260200160405190810160405280939291908181526020018383602002808284376000920191909152506122ab92505050565b610db98787878080602002602001604051908101604052809392919081815260200183836020028082843760009201919091525061234492505050565b60005b85811015610e4c576000878783818110610dd257fe5b9050602002016020810190610de79190614970565b90506000868684818110610df757fe5b9050602002016020810190610e0c9190614970565b60008b8152600e602090815260408083206001600160a01b039687168452909152902080546001600160a01b031916919093161790915550600101610dbc565b507ff5847d3f2197b16cdcd2098ec95d0905cd1abdaf415f07bb7cef2bba8ac5dec48787878787604051610e849594939291906154eb565b60405180910390a15050610c7561195a565b610e9e6118e4565b610ea6611ae5565b610eb08483611cf8565b60005b84811015610f1f576000868683818110610ec957fe5b9050602002016020810190610ede9190614970565b90506000858584818110610eee57fe5b905060200201359050610f0182826123de565b610f156001600160a01b0383168583611ac6565b5050600101610eb3565b50610c7561195a565b6060610f326118e4565b8351610f3d81611961565b610c41610f4988612024565b878787876000612027565b610f5c6118e4565b82610f6681612152565b6000610f7185611c42565b90506002816002811115610f8157fe5b1415610ff95760028314610fa75760405162461bcd60e51b81526004016104ad906156f8565b610ff48585856000818110610fb857fe5b9050602002016020810190610fcd9190614970565b86866001818110610fda57fe5b9050602002016020810190610fef9190614970565b612424565b611087565b600181600281111561100757fe5b141561104a57610ff48585858080602002602001604051908101604052809392919081815260200183836020028082843760009201919091525061249c92505050565b6110878585858080602002602001604051908101604052809392919081815260200183836020028082843760009201919091525061254e92505050565b60005b838110156110f1576000868152600e60205260408120908686848181106110ad57fe5b90506020020160208101906110c29190614970565b6001600160a01b03168152602081019190915260400160002080546001600160a01b031916905560010161108a565b507f7dcdc6d02ef40c7c1a7046a011b058bd7f988fa14e20a66344f9d4e60657d610858585604051611125939291906154d1565b60405180910390a1505061113761195a565b505050565b6001546001600160a01b031690565b606061115683611c14565b81516001600160401b038111801561116d57600080fd5b50604051908082528060200260200182016040528015611197578160200160208202803683370190505b50905060005b82518110156107895760008382815181106111b457fe5b602002602001015190506111c885826125ca565b6000858152600e602090815260408083206001600160a01b03808616855292529091205484519116908490849081106111fd57fe5b6001600160a01b03909216602092830291909101909101525060010161119d565b6000806000808561122e81611c14565b60008061123a89611c42565b9050600281600281111561124a57fe5b14156112615761125a89896125f0565b915061128c565b600181600281111561126f57fe5b141561127f5761125a898961266d565b61128989896126df565b91505b611295826126f7565b96506112a08261270a565b95506112ab82612720565b6000998a52600e60209081526040808c206001600160a01b039b8c168d5290915290992054969995989796909616955050505050565b6112e96118e4565b6112f1611ae5565b6706f05b59d3b200008311156113195760405162461bcd60e51b81526004016104ad9061572f565b6611c37937e080008211156113405760405162461bcd60e51b81526004016104ad906159b7565b662386f26fc100008111156113675760405162461bcd60e51b81526004016104ad90615c31565b60058390556004829055600681905561113761195a565b600554600454600654909192565b6113946118e4565b61139d82611c14565b60006113a883611c42565b905060005b825181101561098a5760008382815181106113c457fe5b60200260200101516000015190506113dc8582611c58565b60008483815181106113ea57fe5b60200260200101516020015190506001600281111561140557fe5b84600281111561141157fe5b141561142757611422868383612726565b611451565b600284600281111561143557fe5b141561144657611422868383612734565b611451868383612742565b6114656001600160a01b0383163383611ac6565b6001600160a01b03821633877fea86d22f498d42c4c5ed8d09366d0af8bb816a7d2265eef1080d0cb6acb517bb61149b85611ccf565b6040516114a89190615453565b60405180910390a450506001016113ad565b6114c26118e4565b6114cb82611c14565b60006114d683611c42565b905060005b825181101561098a5760008382815181106114f257fe5b602002602001015160000151905061150a8582611c58565b600084838151811061151857fe5b60200260200101516020015190506001600281111561153357fe5b84600281111561153f57fe5b141561155557611550868383612750565b61157f565b600284600281111561156357fe5b14156115745761155086838361275e565b61157f86838361276c565b50506001016114db565b6115916118e4565b8661159b81611c14565b866115a581611961565b6115b186518651611cf8565b60606115bd8a88611d17565b90506060806115d08c8a858e8e8b61277a565b9150915060005b89518110156116f6578881815181106115ec57fe5b602002602001015183828151811061160057fe5b602002602001015110156116265760405162461bcd60e51b81526004016104ad906156ac565b600083828151811061163457fe5b60200260200101519050600061165f8c848151811061164f57fe5b6020026020010151838f8d6127b7565b9050600084848151811061166f57fe5b60200260200101519050600061168e828561281290919063ffffffff16565b90506116a081898781518110610a8b57fe5b8886815181106116ac57fe5b6020026020010181815250506116e78e86815181106116c757fe5b60200260200101516116e2858561281290919063ffffffff16565b611a32565b505050508060010190506115d7565b5060006117028d611c42565b9050600281600281111561171257fe5b141561172e576117298d8b600081518110610b4057fe5b611757565b600181600281111561173c57fe5b141561174d576117298d8b86611f6e565b6117578d85611fdb565b8b6001600160a01b03168d7fe1f0410ab343b6bd5ac108e2e4c8085cef471896ef5214b73d944091850293218585604051610bf6929190615423565b606061085282612837565b6117a66118e4565b3360009081526002602090815260408083206001600160a01b03861684529091529020805460ff191682151517905561099461195a565b600080826117ea81611c14565b6117f3846128e7565b6117fc85611c42565b925092505b50915091565b6060333014611891576000306001600160a01b031660003660405161182d92919061527e565b6000604051808303816000865af19150503d806000811461186a576040519150601f19603f3d011682016040523d82523d6000602084013e61186f565b606091505b50509050806000811461187e57fe5b60206000523d600060203e60203d016000f35b606061189f858585896128ed565b905060208151026020810182fd5b949350505050565b606080826118c281611c14565b60606118cd85612bb5565b90945090506118db81612c17565b92505050915091565b600260005414156119075760405162461bcd60e51b81526004016104ad9061561a565b6002600055565b5490565b600069ffffffffffffffffffff8216605084600281111561192f57fe5b901b17606085901b6bffffffffffffffffffffffff19161790505b9392505050565b80546001019055565b6001600055565b336001600160a01b038216146105e657611979611ae5565b6119838133611be6565b6105e65760405162461bcd60e51b81526004016104ad90615675565b60006119ab8484611bbb565b905060006119b98284612812565b9050610c75858583612ca4565b611a1e846323b872dd60e01b8585856040516024016119e7939291906152d1565b60408051601f198184030181529190526020810180516001600160e01b03166001600160e01b031990931692909217909152612d0c565b50505050565b600061085282600454612d9b565b6001600160a01b03821660009081526003602052604081205490611a568284612812565b9050611a1e8482612dfa565b6000611a6e8484611bbb565b905081811015611a905760405162461bcd60e51b81526004016104ad90615bc3565b818103610c75858583612ca4565b600082821115611ac05760405162461bcd60e51b81526004016104ad90615968565b50900390565b6111378363a9059cbb60e01b84846040516024016119e792919061531c565b6000306000356001600160e01b031916604051602001611b06929190615252565b60408051601f19818403018152908290528051602090910120600154632474521560e21b83529092506001600160a01b0316906391d1485490611b4f908490339060040161545c565b60206040518083038186803b158015611b6757600080fd5b505afa158015611b7b573d6000803e3d6000fd5b505050506040513d601f19601f82011682018060405250810190611b9f9190614cc6565b6105e65760405162461bcd60e51b81526004016104ad906155e3565b6001600160a01b03918216600090815260076020908152604080832093909416825291909152205490565b6001600160a01b03918216600090815260026020908152604080832093909416825291909152205460ff1690565b6000818152600d602052604090205460ff166105e65760405162461bcd60e51b81526004016104ad9061593f565b600061ffff605083901c16600281111561085257fe5b611c6282826125ca565b6000828152600e602090815260408083206001600160a01b0385811685529252909120541633146109945760405162461bcd60e51b81526004016104ad90615c68565b6111378383612e1684612e51565b6111378383612e1684612e9b565b6111378383612e1684612f39565b6000600160ff1b8210611cf45760405162461bcd60e51b81526004016104ad90615aa9565b5090565b8082146109945760405162461bcd60e51b81526004016104ad9061578f565b6060806060611d2585612bb5565b91509150611d3582518551611cf8565b60005b8251811015611da057848181518110611d4d57fe5b60200260200101516001600160a01b0316838281518110611d6a57fe5b60200260200101516001600160a01b031614611d985760405162461bcd60e51b81526004016104ad90615766565b600101611d38565b50949350505050565b60608060606000611db988612f6e565b915091506000611dc88b6128e7565b9050806001600160a01b031663d5c096c48c8a8a8787611de6613018565b8d6040518863ffffffff1660e01b8152600401611e099796959493929190615473565b600060405180830381600087803b158015611e2357600080fd5b505af1158015611e37573d6000803e3d6000fd5b505050506040513d6000823e601f3d908101601f19168201604052611e5f9190810190614c70565b8095508196505050611e758a518651865161301e565b505050965096945050505050565b82611e8d57611a1e565b828115611ec3576000611ea08487611bbb565b90506000611eae8287613048565b9050611ebd8588838503612ca4565b90910390505b8015610c7557610c756001600160a01b0386168430846119c6565b600080611ef483611eee866126f7565b90611a9e565b90506000611f018561270a565b905043611f0f83838361305e565b9695505050505050565b600080611ef483611f29866126f7565b90612812565b6000611f3b85846130a8565b6000878152600b602090815260408083208484526002019091529020909150611f6485846130db565b9055505050505050565b60005b8251811015611a1e57818181518110611f8657fe5b6020026020010151600a60008681526020019081526020016000206000858481518110611faf57fe5b6020908102919091018101516001600160a01b0316825281019190915260400160002055600101611f71565b6000828152600860205260408120905b8251811015611a1e5761201c8184838151811061200457fe5b6020026020010151846131009092919063ffffffff16565b600101611feb565b90565b6060824211156120495760405162461bcd60e51b81526004016104ad906159ee565b61205586518551611cf8565b612061878787856128ed565b905060005b865181101561214757600087828151811061207d57fe5b60200260200101519050600083838151811061209557fe5b602002602001015190508683815181106120ab57fe5b60200260200101518113156120d25760405162461bcd60e51b81526004016104ad906156d4565b60008113156120f4576120ef82828a600001518b60200151611e83565b61213d565b600081121561213d576060880151600082900390156121215761211c8960400151848361199f565b61213b565b604089015161213b906001600160a01b0385169083611ac6565b505b5050600101612066565b509695505050505050565b61215b81611c14565b6000612166826128e7565b90506001600160a01b03811633146109945760405162461bcd60e51b81526004016104ad90615af1565b6001600160a01b038216158015906121b057506001600160a01b03811615155b6121cc5760405162461bcd60e51b81526004016104ad90615826565b806001600160a01b0316826001600160a01b031614156121fe5760405162461bcd60e51b81526004016104ad90615b8c565b806001600160a01b0316826001600160a01b03161061222f5760405162461bcd60e51b81526004016104ad9061598e565b6000838152600b6020526040902080546001600160a01b0316158015612260575060018101546001600160a01b0316155b61227c5760405162461bcd60e51b81526004016104ad90615cc5565b80546001600160a01b039384166001600160a01b03199182161782556001909101805492909316911617905550565b6000828152600960205260408120905b8251811015611a1e5760008382815181106122d257fe5b6020026020010151905060006001600160a01b0316816001600160a01b0316141561230f5760405162461bcd60e51b81526004016104ad90615826565b600061231b848361310b565b90508061233a5760405162461bcd60e51b81526004016104ad90615b8c565b50506001016122bb565b6000828152600860205260408120905b8251811015611a1e57600083828151811061236b57fe5b6020026020010151905060006001600160a01b0316816001600160a01b031614156123a85760405162461bcd60e51b81526004016104ad90615826565b60006123b5848383613120565b9050806123d45760405162461bcd60e51b81526004016104ad90615b8c565b5050600101612354565b6001600160a01b038216600090815260036020526040902054818110156124175760405162461bcd60e51b81526004016104ad9061563e565b818103611a1e8482612dfa565b600080612432858585613136565b5091509150612440826131f1565b80156124505750612450816131f1565b61246c5760405162461bcd60e51b81526004016104ad906158d1565b505050600091825250600b6020526040902080546001600160a01b03199081168255600190910180549091169055565b6000828152600960205260408120905b8251811015611a1e5760008382815181106124c357fe5b6020908102919091018101516000878152600a835260408082206001600160a01b038416835290935291909120549091506124fd906131f1565b6125195760405162461bcd60e51b81526004016104ad906158d1565b600061252584836131fe565b9050806125445760405162461bcd60e51b81526004016104ad9061585d565b50506001016124ac565b6000828152600860205260408120905b8251811015611a1e57600083828151811061257557fe5b60200260200101519050600061258b8483613213565b9050612596816131f1565b6125b25760405162461bcd60e51b81526004016104ad906158d1565b6125bc8483613256565b50505080600101905061255e565b6125d4828261326b565b6109945760405162461bcd60e51b81526004016104ad9061585d565b6000806000806000612601876132c7565b945094509450945050836001600160a01b0316866001600160a01b031614156126305782945050505050610852565b816001600160a01b0316866001600160a01b0316141561265557935061085292505050565b60405162461bcd60e51b81526004016104ad9061585d565b6000828152600a602090815260408083206001600160a01b03851684529091528120548161269a8261333d565b806126b8575060008581526009602052604090206126b8908561334f565b9050806126d75760405162461bcd60e51b81526004016104ad9061585d565b509392505050565b60008281526008602052604081206118ad8184613213565b6dffffffffffffffffffffffffffff1690565b60701c6dffffffffffffffffffffffffffff1690565b60e01c90565b611137838361336484612e51565b611137838361336484612e9b565b611137838361336484612f39565b611137838361338584612e51565b611137838361338584612e9b565b611137838361338584612f39565b6060806060600061278a88612f6e565b9150915060006127998b6128e7565b9050806001600160a01b03166374f3b0098c8a8a8787611de6613018565b6000836127c6575060006118ad565b81156127df576127d783868661199f565b5060006118ad565b60006127ea85611a24565b905061280b846127fa8784611a9e565b6001600160a01b0389169190611ac6565b90506118ad565b60008282018381101561084f5760405162461bcd60e51b81526004016104ad90615a15565b606081516001600160401b038111801561285057600080fd5b5060405190808252806020026020018201604052801561287a578160200160208202803683370190505b50905060005b82518110156128e1576003600084838151811061289957fe5b60200260200101516001600160a01b03166001600160a01b03168152602001908152602001600020548282815181106128ce57fe5b6020908102919091010152600101612880565b50919050565b60601c90565b606083516001600160401b038111801561290657600080fd5b50604051908082528060200260200182016040528015612930578160200160208202803683370190505b50905061293b6145c6565b6129436145dd565b60005b8751811015612baa5787818151811061295b57fe5b602002602001015191506129728260000151611c14565b8651826020015110801561298a575086518260400151105b6129a65760405162461bcd60e51b81526004016104ad9061557a565b6000878360200151815181106129b857fe5b602002602001015190506000888460400151815181106129d457fe5b60200260200101519050806001600160a01b0316826001600160a01b03161415612a105760405162461bcd60e51b81526004016104ad90615bfa565b6060840151612a8f5760018a511115612a77576000612a3088848461339f565b6001600160a01b031686600001516001600160a01b031614905080612a675760405162461bcd60e51b81526004016104ad90615908565b5060208501516060850152612a8f565b60405162461bcd60e51b81526004016104ad906157ef565b600080612aa98484888d600001518e604001518c8f6133c1565b91509150612adf612ab983611ccf565b89886020015181518110612ac957fe5b602002602001015161348790919063ffffffff16565b88876020015181518110612aef57fe5b602002602001018181525050612b2d612b0782611ccf565b89886040015181518110612b1757fe5b60200260200101516134cd90919063ffffffff16565b88876040015181518110612b3d57fe5b602002602001018181525050826001600160a01b0316846001600160a01b031687600001517f2170c741c41531aec20e7c107c24eecfdd15e69c9bb0a8dd37b1840b9e0b207b8585604051612b93929190615d5a565b60405180910390a450505050806001019050612946565b505050949350505050565b6060806000612bc384611c42565b90506002816002811115612bd357fe5b1415612bec57612be284613513565b9250925050612c12565b6001816002811115612bfa57fe5b1415612c0957612be284613648565b612be28461376d565b915091565b606081516001600160401b0381118015612c3057600080fd5b50604051908082528060200260200182016040528015612c5a578160200160208202803683370190505b50905060005b81518110156128e157612c85838281518110612c7857fe5b602002602001015161387b565b828281518110612c9157fe5b6020908102919091010152600101612c60565b6001600160a01b0380841660008181526007602090815260408083209487168084529490915290819020849055517f50cf099fb31ce57dd84f33ea9868ff2439a5a7cca9fb6f6182fb6ccbf31945d090612cff908590615453565b60405180910390a3505050565b6060612d61826040518060400160405280602081526020017f5361666545524332303a206c6f772d6c6576656c2063616c6c206661696c6564815250856001600160a01b03166138929092919063ffffffff16565b8051909150156111375780806020019051810190612d7f9190614cc6565b6111375760405162461bcd60e51b81526004016104ad90615b1a565b6000828202831580612db5575082848281612db257fe5b04145b612dd15760405162461bcd60e51b81526004016104ad90615c9f565b80612de0576000915050610852565b670de0b6b3a7640000600019820104600101915050610852565b6001600160a01b03909116600090815260036020526040902055565b600080612e2683611f29866126f7565b90506000612e3784611eee8761270a565b90506000612e4486612720565b9050611f0f83838361305e565b6000612e5d858561266d565b9050612e6d81838563ffffffff16565b6000958652600a602090815260408088206001600160a01b0390971688529590529390942092909255505050565b6000806000806000612eac896132c7565b94509450945094509450836001600160a01b0316886001600160a01b03161415612ee557612ede83878963ffffffff16565b9250612f10565b816001600160a01b0316886001600160a01b0316141561265557612f0d81878963ffffffff16565b90505b612f1a83826130db565b8555612f2683826138a1565b8560010181905550505050505050505050565b600084815260086020526040812090612f528286613213565b9050610c0c85612f6683868863ffffffff16565b849190613120565b6060600082516001600160401b0381118015612f8957600080fd5b50604051908082528060200260200182016040528015612fb3578160200160208202803683370190505b50915060005b8251811015611801576000848281518110612fd057fe5b60200260200101519050612fe38161387b565b848381518110612fef57fe5b60200260200101818152505061300d8361300883612720565b6138bf565b925050600101612fb9565b60055490565b818314801561302c57508082145b6111375760405162461bcd60e51b81526004016104ad9061578f565b6000818310613057578161084f565b5090919050565b600083830184811080159061308157506e01000000000000000000000000000081105b61309d5760405162461bcd60e51b81526004016104ad90615a3b565b610c4c8585856138cf565b600082826040516020016130bd9291906152aa565b60405160208183030381529060405280519060200120905092915050565b600061084f6130e9846126f7565b6130f2846126f7565b6130fb86612720565b6138cf565b6111378383836138dd565b600061084f836001600160a01b0384166138f5565b60006118ad846001600160a01b0385168461393f565b600080600080600061314887876139c2565b91509150600061315883836130a8565b60008a8152600b602090815260408083208484526002019091528120805460018201549197509293509061318b8361333d565b8061319a575061319a8261333d565b806131ab57506131ab8c87876139f4565b9050806131ca5760405162461bcd60e51b81526004016104ad9061585d565b6131d48383613a35565b98506131e08383613a5a565b975050505050505093509350939050565b6001600160e01b03161590565b600061084f836001600160a01b038416613a71565b600061084f82604051806040016040528060148152602001731513d2d15397d393d517d49151d254d51154915160621b81525085613b379092919063ffffffff16565b600061084f836001600160a01b038416613b4d565b60008061327784611c42565b9050600281600281111561328757fe5b141561329f576132978484613bc6565b915050610852565b60018160028111156132ad57fe5b14156132bd576132978484613c17565b6132978484613c2f565b6000818152600b60205260408120805460018201546001600160a01b03918216928492909116908290816132fb86856130a8565b60008181526002840160205260409020805460018201549199509192506133228282613a35565b965061332e8282613a5a565b94505050505091939590929450565b6000613348826131f1565b1592915050565b600061084f836001600160a01b038416613c47565b60008061337483611eee866126f7565b90506000612e3784611f298761270a565b600080613391846126f7565b905043610c4c82858361305e565b6000808460018111156133ae57fe5b146133b957816118ad565b509092915050565b6000806133cc61460f565b6040518061010001604052808b6001600160a01b031681526020018a6001600160a01b03168152602001896060015181526020018960000151815260200160008152602001886001600160a01b03168152602001876001600160a01b031681526020018960800151815250905060006134458286613c5f565b9050613452858c8c613cd4565b6001600160a01b0316865260208601819052606089015161347590869083613cee565b909c909b509950505050505050505050565b600082820181831280159061349c5750838112155b806134b157506000831280156134b157508381125b61084f5760405162461bcd60e51b81526004016104ad90615a15565b60008183038183128015906134e25750838113155b806134f757506000831280156134f757508381135b61084f5760405162461bcd60e51b81526004016104ad90615968565b606080600080600080613525876132c7565b92975090955093509150506001600160a01b038416158061354d57506001600160a01b038216155b156135765750506040805160008082526020820190815281830190925294509250612c12915050565b604080516002808252606082018352909160208301908036833701905050955083866000815181106135a457fe5b60200260200101906001600160a01b031690816001600160a01b03168152505081866001815181106135d257fe5b6001600160a01b0392909216602092830291909101820152604080516002808252606082018352909290919083019080368337019050509450828560008151811061361957fe5b602002602001018181525050808560018151811061363357fe5b60200260200101818152505050505050915091565b6000818152600960205260409020606090819061366481613d1c565b6001600160401b038111801561367957600080fd5b506040519080825280602002602001820160405280156136a3578160200160208202803683370190505b50925082516001600160401b03811180156136bd57600080fd5b506040519080825280602002602001820160405280156136e7578160200160208202803683370190505b50915060005b83518110156137665760006137028383613d27565b90508085838151811061371157fe5b6001600160a01b039283166020918202929092018101919091526000888152600a825260408082209385168252929091522054845185908490811061375257fe5b6020908102919091010152506001016136ed565b5050915091565b6000818152600860205260409020606090819061378981613d1c565b6001600160401b038111801561379e57600080fd5b506040519080825280602002602001820160405280156137c8578160200160208202803683370190505b50925082516001600160401b03811180156137e257600080fd5b5060405190808252806020026020018201604052801561380c578160200160208202803683370190505b50915060005b8351811015613766576000806138288484613d33565b915091508186848151811061383957fe5b60200260200101906001600160a01b031690816001600160a01b0316815250508085848151811061386657fe5b60209081029190910101525050600101613812565b60006108526138898361270a565b611f29846126f7565b60606118ad8484600085613d4f565b600061084f6138af8461270a565b6138b88461270a565b60006138cf565b600081831015613057578161084f565b60e01b60709190911b010190565b60009182526001928301602052604090912090910155565b60006139018383613c47565b61393757508154600181810184556000848152602080822090930184905584548482528286019093526040902091909155610852565b506000610852565b6000828152600284016020526040812054806139a25750508254604080518082018252848152602080820185815260008581526001808a01845285822094518555915193820193909355938401808855868352600288019091529190205561194a565b60001901600090815260018086016020526040822001839055905061194a565b600080826001600160a01b0316846001600160a01b0316106139e55782846139e8565b83835b915091505b9250929050565b6000838152600b6020526040812080546001600160a01b038581169116148015610c4c5750600101546001600160a01b039081169216919091149392505050565b600061084f613a43846126f7565b613a4c846126f7565b613a5586612720565b61305e565b600061084f613a688461270a565b613a4c8461270a565b60008181526001830160205260408120548015613b2d5783546000198083019190810190600090879083908110613aa457fe5b9060005260206000200154905080876000018481548110613ac157fe5b600091825260208083209091019290925582815260018981019092526040902090840190558654879080613af157fe5b60019003818190600052602060002001600090559055866001016000878152602001908152602001600020600090556001945050505050610852565b6000915050610852565b60006118ad846001600160a01b03851684613e10565b60008181526002830160205260408120548015613b2d57835460001990810160008181526001808801602090815260408084209587018452808420865481558684018054918501919091558654855260028b01909252808420969096559382905592819055908655848152918220919091559050610852565b6000828152600b6020526040812080546001600160a01b0384811691161480613bfe575060018101546001600160a01b038481169116145b80156118ad575050506001600160a01b03161515919050565b60008281526009602052604081206118ad818461334f565b60008281526008602052604081206118ad8184613e2a565b60009081526001919091016020526040902054151590565b600080613c6f84606001516128e7565b90506000613c808560600151611c42565b90506001816002811115613c9057fe5b1415613caa57613ca1858386613e3f565b92505050610852565b6002816002811115613cb857fe5b1415613cc957613ca1858386613ed2565b613ca1858386613f81565b600080846001811115613ce357fe5b1461078957826118ad565b60008080856001811115613cfe57fe5b1415613d0e575082905081613d14565b50819050825b935093915050565b60006108528261190e565b600061084f83836142b1565b6000808080613d4286866142f6565b9097909650945050505050565b606082471015613d715760405162461bcd60e51b81526004016104ad9061588b565b613d7a85614310565b613d965760405162461bcd60e51b81526004016104ad90615a72565b60006060866001600160a01b03168587604051613db3919061528e565b60006040518083038185875af1925050503d8060008114613df0576040519150601f19603f3d011682016040523d82523d6000602084013e613df5565b606091505b5091509150613e05828286614316565b979650505050505050565b600080613e1e85858561434f565b9050610c4c858261438c565b600061084f836001600160a01b0384166143a2565b600080613e548560600151866000015161266d565b90506000613e6a8660600151876020015161266d565b9050613e7986868685856143ba565b6060890180516000908152600a602081815260408084208e516001600160a01b03908116865290835281852098909855935183529081528282209b81015190951681529990935291909720969096555093949350505050565b600080600080613eef876060015188600001518960200151613136565b92509250925060008088602001516001600160a01b031689600001516001600160a01b03161015613f24575083905082613f2a565b50829050835b613f3789898985856143ba565b60208c01518c519199509294509092506001600160a01b03918216911610613f6857613f6381836130db565b613f72565b613f7282826130db565b90925550929695505050505050565b606083015160009081526008602090815260408083208651825180840190935260148352731513d2d15397d393d517d49151d254d51154915160621b93830193909352839283928391613fd69184919061459c565b9050600061401f8960200151604051806040016040528060148152602001731513d2d15397d393d517d49151d254d51154915160621b8152508561459c9092919063ffffffff16565b9050600061402c84613d1c565b90506060816001600160401b038111801561404657600080fd5b50604051908082528060200260200182016040528015614070578160200160208202803683370190505b50905060005b828110156140e857600061408a87836145b2565b90506140958161387b565b8383815181106140a157fe5b6020026020010181815250506140be8d6080015161300883612720565b60808e0152818614156140d3578098506140df565b848214156140df578097505b50600101614076565b5060008960018111156140f757fe5b14156141c75761410561460f565b61410e8c6145be565b905060008b6001600160a01b031663b58c9534838589896040518563ffffffff1660e01b81526004016141449493929190615cfc565b602060405180830381600087803b15801561415e57600080fd5b505af1158015614172573d6000803e3d6000fd5b505050506040513d601f19601f8201168201806040525081019061419691906150ff565b90508099506141b28d604001518a611f1990919063ffffffff16565b98506141be8882611ede565b9750505061428d565b6141cf61460f565b6141d88c6145be565b905060008b6001600160a01b031663618e086e838589896040518563ffffffff1660e01b815260040161420e9493929190615cfc565b602060405180830381600087803b15801561422857600080fd5b505af115801561423c573d6000803e3d6000fd5b505050506040513d601f19601f8201168201806040525081019061426091906150ff565b995089905061426f8982611f19565b98506142888d6040015189611ede90919063ffffffff16565b975050505b614298858589613100565b6142a3858488613100565b505050505050509392505050565b815460009082106142d45760405162461bcd60e51b81526004016104ad906155a1565b8260000182815481106142e357fe5b9060005260206000200154905092915050565b600090815260019182016020526040902080549101549091565b3b151590565b6060831561432557508161194a565b8251156143355782518084602001fd5b8160405162461bcd60e51b81526004016104ad9190615567565b6000828152600284016020526040812054828161437f5760405162461bcd60e51b81526004016104ad9190615567565b5060001901949350505050565b6000908152600191820160205260409020015490565b60009081526002919091016020526040902054151590565b6000806000806143c98661387b565b905060006143d68661387b565b90506143ed6143e488612720565b61300888612720565b60808b0152600088600181111561440057fe5b14156144cd5761440e61460f565b6144178b6145be565b905060008a6001600160a01b0316639588c1938386866040518463ffffffff1660e01b815260040161444b93929190615d35565b602060405180830381600087803b15801561446557600080fd5b505af1158015614479573d6000803e3d6000fd5b505050506040513d601f19601f8201168201806040525081019061449d91906150ff565b90506144b68c604001518a611f1990919063ffffffff16565b96506144c28882611ede565b9550935061458f9050565b6144d561460f565b6144de8b6145be565b905060008a6001600160a01b031663223b57e58386866040518463ffffffff1660e01b815260040161451293929190615d35565b602060405180830381600087803b15801561452c57600080fd5b505af1158015614540573d6000803e3d6000fd5b505050506040513d601f19601f8201168201806040525081019061456491906150ff565b90506145708982611f19565b96506145898c6040015189611ede90919063ffffffff16565b95509350505b5050955095509592505050565b60006118ad846001600160a01b0385168461434f565b600061084f838361438c565b611cf461460f565b604080518082019091526000808252602082015290565b6040518060a0016040528060008019168152602001600081526020016000815260200160008152602001606081525090565b604080516101008101825260008082526020820181905291810182905260608082018390526080820183905260a0820183905260c082019290925260e081019190915290565b803561085281615e13565b60008083601f840112614671578182fd5b5081356001600160401b03811115614687578182fd5b60208301915083602080830285010111156139ed57600080fd5b600082601f8301126146b1578081fd5b81356146c46146bf82615dc8565b615da2565b8181529150602080830190848101818402860182018710156146e557600080fd5b60005b8481101561470d5781356146fb81615e13565b845292820192908201906001016146e8565b505050505092915050565b600082601f830112614728578081fd5b81356147366146bf82615dc8565b81815291506020808301908481018184028601820187101561475757600080fd5b60005b8481101561470d5781358452928201929082019060010161475a565b600082601f830112614786578081fd5b81356147946146bf82615dc8565b818152915060208083019084810160005b8481101561470d578135870160a080601f19838c030112156147c657600080fd5b6147cf81615da2565b8583013581526040808401358783015260608085013582840152608091508185013581840152508284013592506001600160401b0383111561481057600080fd5b61481e8c888587010161489f565b908201528652505092820192908201906001016147a5565b600082601f830112614846578081fd5b81516148546146bf82615dc8565b81815291506020808301908481018184028601820187101561487557600080fd5b60005b8481101561470d57815184529282019290820190600101614878565b803561085281615e28565b600082601f8301126148af578081fd5b81356001600160401b038111156148c4578182fd5b6148d7601f8201601f1916602001615da2565b91508082528360208285010111156148ee57600080fd5b8060208401602084013760009082016020015292915050565b600060808284031215614918578081fd5b6149226080615da2565b9050813561492f81615e13565b8152602082013561493f81615e28565b6020820152604082013561495281615e13565b6040820152606082013561496581615e28565b606082015292915050565b600060208284031215614981578081fd5b813561084f81615e13565b6000806040838503121561499e578081fd5b82356149a981615e13565b915060208301356149b981615e13565b809150509250929050565b600080604083850312156149d6578182fd5b82356149e181615e13565b915060208301356001600160401b038111156149fb578182fd5b614a07858286016146a1565b9150509250929050565b60008060408385031215614a23578182fd5b8235614a2e81615e13565b915060208301356149b981615e28565b600080600080600060608688031215614a55578081fd5b85356001600160401b0380821115614a6b578283fd5b614a7789838a01614660565b90975095506020880135915080821115614a8f578283fd5b50614a9c88828901614660565b9094509250506040860135614ab081615e13565b809150509295509295909350565b600060208284031215614acf578081fd5b81356001600160401b03811115614ae4578182fd5b6118ad848285016146a1565b60006020808385031215614b02578182fd5b82356001600160401b03811115614b17578283fd5b8301601f81018513614b27578283fd5b8035614b356146bf82615dc8565b818152838101908385016080808502860187018a1015614b53578788fd5b8795505b84861015614bc45780828b031215614b6d578788fd5b614b7681615da2565b614b808b84614655565b815287830135888201526040614b988c828601614655565b908201526060614baa8c858301614655565b908201528452600195909501949286019290810190614b57565b509098975050505050505050565b60008060008060006101008688031215614bea578283fd5b85356001600160401b0380821115614c00578485fd5b614c0c89838a01614776565b96506020880135915080821115614c21578485fd5b614c2d89838a016146a1565b9550614c3c8960408a01614907565b945060c0880135915080821115614c51578283fd5b50614c5e88828901614718565b9598949750929560e001359392505050565b60008060408385031215614c82578182fd5b82516001600160401b0380821115614c98578384fd5b614ca486838701614836565b93506020850151915080821115614cb9578283fd5b50614a0785828601614836565b600060208284031215614cd7578081fd5b815161084f81615e28565b600060208284031215614cf3578081fd5b5035919050565b600080600080600080600060e0888a031215614d14578485fd5b873596506020880135614d2681615e13565b95506040880135614d3681615e13565b945060608801356001600160401b0380821115614d51578384fd5b614d5d8b838c016146a1565b955060808a0135915080821115614d72578384fd5b614d7e8b838c01614718565b9450614d8d8b60a08c01614894565b935060c08a0135915080821115614da2578283fd5b50614daf8a828b0161489f565b91505092959891949750929550565b600080600060408486031215614dd2578081fd5b8335925060208401356001600160401b03811115614dee578182fd5b614dfa86828701614660565b9497909650939450505050565b600080600080600060608688031215614e1e578283fd5b8535945060208601356001600160401b0380821115614e3b578485fd5b614e4789838a01614660565b90965094506040880135915080821115614e5f578283fd5b50614e6c88828901614660565b969995985093965092949392505050565b60008060408385031215614e8f578182fd5b8235915060208301356001600160401b038111156149fb578182fd5b6000806040808486031215614ebe578283fd5b833592506020808501356001600160401b03811115614edb578384fd5b8501601f81018713614eeb578384fd5b8035614ef96146bf82615dc8565b81815283810190838501868402850186018b1015614f15578788fd5b8794505b83851015614f605786818c031215614f2f578788fd5b614f3887615da2565b614f428c83614655565b81528187013587820152835260019490940193918501918601614f19565b508096505050505050509250929050565b60008060408385031215614f83578182fd5b8235915060208301356149b981615e13565b600080600080600060808688031215614fac578283fd5b8535614fb781615e13565b945060208601356001600160401b0380821115614fd2578485fd5b614fde89838a016146a1565b95506040880135915080821115614ff3578485fd5b614fff89838a01614718565b94506060880135915080821115615014578283fd5b818801915088601f830112615027578283fd5b813581811115615035578384fd5b896020828501011115615046578384fd5b9699959850939650602001949392505050565b60006020828403121561506a578081fd5b81356003811061084f578182fd5b60008060008060e0858703121561508d578182fd5b84356002811061509b578283fd5b935060208501356001600160401b03808211156150b6578384fd5b6150c288838901614776565b945060408701359150808211156150d7578384fd5b506150e4878288016146a1565b9250506150f48660608701614907565b905092959194509250565b600060208284031215615110578081fd5b5051919050565b60008060006060848603121561512b578081fd5b505081359360208301359350604090920135919050565b60008284526020808501945082825b8581101561517f57813561516481615e13565b6001600160a01b031687529582019590820190600101615151565b509495945050505050565b6000815180845260208085019450808401835b8381101561517f5781518752958201959082019060010161519d565b600081518084526151d1816020860160208601615de7565b601f01601f19169290920160200192915050565b60006101006001600160a01b038084511685528060208501511660208601526040840151604086015260608401516060860152608084015160808601528060a08501511660a08601528060c08501511660c08601525060e08301518160e0860152610c4c828601826151b9565b60609290921b6bffffffffffffffffffffffff191682526001600160e01b031916601482015260180190565b6000828483379101908152919050565b600082516152a0818460208701615de7565b9190910192915050565b6bffffffffffffffffffffffff19606093841b811682529190921b16601482015260280190565b6001600160a01b039384168152919092166020820152604081019190915260600190565b6001600160a01b0383168152604081016003831061530f57fe5b8260208301529392505050565b6001600160a01b03929092168252602082015260400190565b6020808252825182820181905260009190848201906040850190845b818110156153765783516001600160a01b031683529284019291840191600101615351565b50909695505050505050565b604080825283519082018190526000906020906060840190828701845b828110156153c45781516001600160a01b03168452928401929084019060010161539f565b50505083810382850152611f0f818661518a565b6020808252825182820181905260009190848201906040850190845b81811015615376578351835292840192918401916001016153f4565b60006020825261084f602083018461518a565b600060408252615436604083018561518a565b8281036020840152610c4c818561518a565b901515815260200190565b90815260200190565b9182526001600160a01b0316602082015260400190565b60008882526001600160a01b03808916602084015280881660408401525060e060608301526154a560e083018761518a565b8560808401528460a084015282810360c08401526154c381856151b9565b9a9950505050505050505050565b600084825260406020830152610c4c604083018486615142565b60008682526020606081840152615506606084018789615142565b838103604085015284815285908201835b8681101561554557823561552a81615e13565b6001600160a01b031682529183019190830190600101615517565b509998505050505050505050565b6001600160a01b0391909116815260200190565b60006020825261084f60208301846151b9565b6020808252600d908201526c4f55545f4f465f424f554e445360981b604082015260600190565b60208082526022908201527f456e756d657261626c655365743a20696e646578206f7574206f6620626f756e604082015261647360f01b606082015260800190565b60208082526012908201527f53454e4445525f4e4f545f414c4c4f5745440000000000000000000000000000604082015260600190565b6020808252600a90820152695245454e5452414e435960b01b604082015260600190565b6020808252601b908201527f494e53554646494349454e545f434f4c4c45435445445f464545530000000000604082015260600190565b60208082526019908201527f555345525f444f45534e545f414c4c4f575f52454c4159455200000000000000604082015260600190565b6020808252600e908201526d22ac24aa2fa122a627abafa6a4a760911b604082015260600190565b6020808252600a908201526914d5d05417d31253525560b21b604082015260600190565b60208082526017908201527f544f4b454e535f4c454e4754485f4d5553545f42455f32000000000000000000604082015260600190565b60208082526011908201527f535741505f4645455f544f4f5f48494748000000000000000000000000000000604082015260600190565b6020808252600f908201526e0a89e968a9ca6be9a92a69a82a8869608b1b604082015260600190565b60208082526015908201527f494e5055545f4c454e4754485f4d49534d415443480000000000000000000000604082015260600190565b6020808252600f908201526e1b9bdd081a5b5c1b195b595b9d1959608a1b604082015260600190565b6020808252601c908201527f554e4b4e4f574e5f414d4f554e545f494e5f46495253545f5357415000000000604082015260600190565b60208082526012908201527f5a45524f5f414444524553535f544f4b454e0000000000000000000000000000604082015260600190565b6020808252601490820152731513d2d15397d393d517d49151d254d51154915160621b604082015260600190565b60208082526026908201527f416464726573733a20696e73756666696369656e742062616c616e636520666f6040820152651c8818d85b1b60d21b606082015260800190565b60208082526015908201527f4e4f4e5a45524f5f544f4b454e5f42414c414e43450000000000000000000000604082015260600190565b6020808252601c908201527f4d414c434f4e53545255435445445f4d554c5449484f505f5357415000000000604082015260600190565b6020808252600f908201526e1253959053125117d413d3d317d251608a1b604082015260600190565b6020808252600c908201526b5355425f4f564552464c4f5760a01b604082015260600190565b6020808252600f908201526e554e534f525445445f544f4b454e5360881b604082015260600190565b60208082526015908201527f57495448445241575f4645455f544f4f5f484947480000000000000000000000604082015260600190565b6020808252600d908201526c535741505f444541444c494e4560981b604082015260600190565b6020808252600c908201526b4144445f4f564552464c4f5760a01b604082015260600190565b60208082526016908201527f42414c414e43455f544f54414c5f4f564552464c4f5700000000000000000000604082015260600190565b6020808252601d908201527f416464726573733a2063616c6c20746f206e6f6e2d636f6e7472616374000000604082015260600190565b60208082526028908201527f53616665436173743a2076616c756520646f65736e27742066697420696e2061604082015267371034b73a191a9b60c11b606082015260800190565b6020808252600f908201526e10d05313115497d393d517d413d3d3608a1b604082015260600190565b6020808252602a908201527f5361666545524332303a204552433230206f7065726174696f6e20646964206e6040820152691bdd081cdd58d8d9595960b21b606082015260800190565b6020808252600e908201526d0949e929cbe82849eac8abe9a82b60931b604082015260600190565b60208082526018908201527f544f4b454e5f414c52454144595f524547495354455245440000000000000000604082015260600190565b6020808252601d908201527f494e53554646494349454e545f494e5445524e414c5f42414c414e4345000000604082015260600190565b60208082526016908201527f43414e4e4f545f535741505f53414d455f544f4b454e00000000000000000000604082015260600190565b60208082526017908201527f464c4153485f4c4f414e5f4645455f544f4f5f48494748000000000000000000604082015260600190565b60208082526018908201527f53454e4445525f4e4f545f41535345545f4d414e414745520000000000000000604082015260600190565b6020808252600c908201526b4d554c5f4f564552464c4f5760a01b604082015260600190565b60208082526012908201527f544f4b454e535f414c52454144595f5345540000000000000000000000000000604082015260600190565b600060808252615d0f60808301876151e5565b8281036020840152615d21818761518a565b604084019590955250506060015292915050565b600060608252615d4860608301866151e5565b60208301949094525060400152919050565b918252602082015260400190565b9283526020830191909152604082015260600190565b938452602084019290925260408301526001600160a01b0316606082015260800190565b6040518181016001600160401b0381118282101715615dc057600080fd5b604052919050565b60006001600160401b03821115615ddd578081fd5b5060209081020190565b60005b83811015615e02578181015183820152602001615dea565b83811115611a1e5750506000910152565b6001600160a01b03811681146105e657600080fd5b80151581146105e657600080fdfea26469706673582212201749cfa034c55eaa9297467e23890af842828554dff6aba412f866ec87367cf864736f6c63430007000033",
  "linkReferences": {},
  "deployedLinkReferences": {}
}