{
  "_format": "hh-sol-artifact-1",
  "contractName": "Vault",
  "sourceName": "contracts/vault/Vault.sol",
  "abi": [
    {
      "inputs": [
        {
          "internalType": "contract IAuthorizer",
          "name": "authorizer",
          "type": "address"
        }
      ],
      "stateMutability": "nonpayable",
      "type": "constructor"
    },
    {
      "anonymous": false,
      "inputs": [
        {
          "indexed": true,
          "internalType": "address",
          "name": "user",
          "type": "address"
        },
        {
          "indexed": true,
          "internalType": "contract IERC20",
          "name": "token",
          "type": "address"
        },
        {
          "indexed": false,
          "internalType": "uint256",
          "name": "balance",
          "type": "uint256"
        }
      ],
      "name": "InternalBalanceChanged",
      "type": "event"
    },
    {
      "anonymous": false,
      "inputs": [
        {
          "indexed": true,
          "internalType": "bytes32",
          "name": "poolId",
          "type": "bytes32"
        },
        {
          "indexed": true,
          "internalType": "address",
          "name": "assetManager",
          "type": "address"
        },
        {
          "indexed": true,
          "internalType": "contract IERC20",
          "name": "token",
          "type": "address"
        },
        {
          "indexed": false,
          "internalType": "int256",
          "name": "amount",
          "type": "int256"
        }
      ],
      "name": "PoolBalanceChanged",
      "type": "event"
    },
    {
      "anonymous": false,
      "inputs": [
        {
          "indexed": true,
          "internalType": "bytes32",
          "name": "poolId",
          "type": "bytes32"
        },
        {
          "indexed": true,
          "internalType": "address",
          "name": "liquidityProvider",
          "type": "address"
        },
        {
          "indexed": false,
          "internalType": "uint256[]",
          "name": "amountsOut",
          "type": "uint256[]"
        },
        {
          "indexed": false,
          "internalType": "uint256[]",
          "name": "protocolFees",
          "type": "uint256[]"
        }
      ],
      "name": "PoolExited",
      "type": "event"
    },
    {
      "anonymous": false,
      "inputs": [
        {
          "indexed": true,
          "internalType": "bytes32",
          "name": "poolId",
          "type": "bytes32"
        },
        {
          "indexed": true,
          "internalType": "address",
          "name": "liquidityProvider",
          "type": "address"
        },
        {
          "indexed": false,
          "internalType": "uint256[]",
          "name": "amountsIn",
          "type": "uint256[]"
        },
        {
          "indexed": false,
          "internalType": "uint256[]",
          "name": "protocolFees",
          "type": "uint256[]"
        }
      ],
      "name": "PoolJoined",
      "type": "event"
    },
    {
      "anonymous": false,
      "inputs": [
        {
          "indexed": false,
          "internalType": "bytes32",
          "name": "poolId",
          "type": "bytes32"
        }
      ],
      "name": "PoolRegistered",
      "type": "event"
    },
    {
      "anonymous": false,
      "inputs": [
        {
          "indexed": true,
          "internalType": "bytes32",
          "name": "poolId",
          "type": "bytes32"
        },
        {
          "indexed": true,
          "internalType": "contract IERC20",
          "name": "tokenIn",
          "type": "address"
        },
        {
          "indexed": true,
          "internalType": "contract IERC20",
          "name": "tokenOut",
          "type": "address"
        },
        {
          "indexed": false,
          "internalType": "uint256",
          "name": "tokensIn",
          "type": "uint256"
        },
        {
          "indexed": false,
          "internalType": "uint256",
          "name": "tokensOut",
          "type": "uint256"
        }
      ],
      "name": "Swap",
      "type": "event"
    },
    {
      "anonymous": false,
      "inputs": [
        {
          "indexed": false,
          "internalType": "bytes32",
          "name": "poolId",
          "type": "bytes32"
        },
        {
          "indexed": false,
          "internalType": "contract IERC20[]",
          "name": "tokens",
          "type": "address[]"
        }
      ],
      "name": "TokensDeregistered",
      "type": "event"
    },
    {
      "anonymous": false,
      "inputs": [
        {
          "indexed": false,
          "internalType": "bytes32",
          "name": "poolId",
          "type": "bytes32"
        },
        {
          "indexed": false,
          "internalType": "contract IERC20[]",
          "name": "tokens",
          "type": "address[]"
        },
        {
          "indexed": false,
          "internalType": "address[]",
          "name": "assetManagers",
          "type": "address[]"
        }
      ],
      "name": "TokensRegistered",
      "type": "event"
    },
    {
      "inputs": [
        {
          "components": [
            {
              "internalType": "bytes32",
              "name": "poolId",
              "type": "bytes32"
            },
            {
              "internalType": "uint256",
              "name": "tokenInIndex",
              "type": "uint256"
            },
            {
              "internalType": "uint256",
              "name": "tokenOutIndex",
              "type": "uint256"
            },
            {
              "internalType": "uint256",
              "name": "amountIn",
              "type": "uint256"
            },
            {
              "internalType": "bytes",
              "name": "userData",
              "type": "bytes"
            }
          ],
          "internalType": "struct IVault.SwapIn[]",
          "name": "swaps",
          "type": "tuple[]"
        },
        {
          "internalType": "contract IERC20[]",
          "name": "tokens",
          "type": "address[]"
        },
        {
          "components": [
            {
              "internalType": "address",
              "name": "sender",
              "type": "address"
            },
            {
              "internalType": "bool",
              "name": "fromInternalBalance",
              "type": "bool"
            },
            {
              "internalType": "address",
              "name": "recipient",
              "type": "address"
            },
            {
              "internalType": "bool",
              "name": "toInternalBalance",
              "type": "bool"
            }
          ],
          "internalType": "struct IVault.FundManagement",
          "name": "funds",
          "type": "tuple"
        },
        {
          "internalType": "int256[]",
          "name": "limits",
          "type": "int256[]"
        },
        {
          "internalType": "uint256",
          "name": "deadline",
          "type": "uint256"
        }
      ],
      "name": "batchSwapGivenIn",
      "outputs": [
        {
          "internalType": "int256[]",
          "name": "",
          "type": "int256[]"
        }
      ],
      "stateMutability": "nonpayable",
      "type": "function"
    },
    {
      "inputs": [
        {
          "components": [
            {
              "internalType": "bytes32",
              "name": "poolId",
              "type": "bytes32"
            },
            {
              "internalType": "uint256",
              "name": "tokenInIndex",
              "type": "uint256"
            },
            {
              "internalType": "uint256",
              "name": "tokenOutIndex",
              "type": "uint256"
            },
            {
              "internalType": "uint256",
              "name": "amountOut",
              "type": "uint256"
            },
            {
              "internalType": "bytes",
              "name": "userData",
              "type": "bytes"
            }
          ],
          "internalType": "struct IVault.SwapOut[]",
          "name": "swaps",
          "type": "tuple[]"
        },
        {
          "internalType": "contract IERC20[]",
          "name": "tokens",
          "type": "address[]"
        },
        {
          "components": [
            {
              "internalType": "address",
              "name": "sender",
              "type": "address"
            },
            {
              "internalType": "bool",
              "name": "fromInternalBalance",
              "type": "bool"
            },
            {
              "internalType": "address",
              "name": "recipient",
              "type": "address"
            },
            {
              "internalType": "bool",
              "name": "toInternalBalance",
              "type": "bool"
            }
          ],
          "internalType": "struct IVault.FundManagement",
          "name": "funds",
          "type": "tuple"
        },
        {
          "internalType": "int256[]",
          "name": "limits",
          "type": "int256[]"
        },
        {
          "internalType": "uint256",
          "name": "deadline",
          "type": "uint256"
        }
      ],
      "name": "batchSwapGivenOut",
      "outputs": [
        {
          "internalType": "int256[]",
          "name": "",
          "type": "int256[]"
        }
      ],
      "stateMutability": "nonpayable",
      "type": "function"
    },
    {
      "inputs": [
        {
          "internalType": "contract IAuthorizer",
          "name": "newAuthorizer",
          "type": "address"
        }
      ],
      "name": "changeAuthorizer",
      "outputs": [],
      "stateMutability": "nonpayable",
      "type": "function"
    },
    {
      "inputs": [
        {
          "internalType": "address",
          "name": "relayer",
          "type": "address"
        },
        {
          "internalType": "bool",
          "name": "allowed",
          "type": "bool"
        }
      ],
      "name": "changeRelayerAllowance",
      "outputs": [],
      "stateMutability": "nonpayable",
      "type": "function"
    },
    {
      "inputs": [
        {
          "components": [
            {
              "internalType": "contract IERC20",
              "name": "token",
              "type": "address"
            },
            {
              "internalType": "uint256",
              "name": "amount",
              "type": "uint256"
            },
            {
              "internalType": "address",
              "name": "sender",
              "type": "address"
            },
            {
              "internalType": "address",
              "name": "recipient",
              "type": "address"
            }
          ],
          "internalType": "struct IVault.BalanceTransfer[]",
          "name": "transfers",
          "type": "tuple[]"
        }
      ],
      "name": "depositToInternalBalance",
      "outputs": [],
      "stateMutability": "nonpayable",
      "type": "function"
    },
    {
      "inputs": [
        {
          "internalType": "bytes32",
          "name": "poolId",
          "type": "bytes32"
        },
        {
          "components": [
            {
              "internalType": "contract IERC20",
              "name": "token",
              "type": "address"
            },
            {
              "internalType": "uint256",
              "name": "amount",
              "type": "uint256"
            }
          ],
          "internalType": "struct IVault.AssetManagerTransfer[]",
          "name": "transfers",
          "type": "tuple[]"
        }
      ],
      "name": "depositToPoolBalance",
      "outputs": [],
      "stateMutability": "nonpayable",
      "type": "function"
    },
    {
      "inputs": [
        {
          "internalType": "bytes32",
          "name": "poolId",
          "type": "bytes32"
        },
        {
          "internalType": "contract IERC20[]",
          "name": "tokens",
          "type": "address[]"
        }
      ],
      "name": "deregisterTokens",
      "outputs": [],
      "stateMutability": "nonpayable",
      "type": "function"
    },
    {
      "inputs": [
        {
          "internalType": "bytes32",
          "name": "poolId",
          "type": "bytes32"
        },
        {
          "internalType": "address",
          "name": "sender",
          "type": "address"
        },
        {
          "internalType": "address",
          "name": "recipient",
          "type": "address"
        },
        {
          "internalType": "contract IERC20[]",
          "name": "tokens",
          "type": "address[]"
        },
        {
          "internalType": "uint256[]",
          "name": "minAmountsOut",
          "type": "uint256[]"
        },
        {
          "internalType": "bool",
          "name": "toInternalBalance",
          "type": "bool"
        },
        {
          "internalType": "bytes",
          "name": "userData",
          "type": "bytes"
        }
      ],
      "name": "exitPool",
      "outputs": [],
      "stateMutability": "nonpayable",
      "type": "function"
    },
    {
      "inputs": [
        {
          "internalType": "contract IFlashLoanReceiver",
          "name": "receiver",
          "type": "address"
        },
        {
          "internalType": "contract IERC20[]",
          "name": "tokens",
          "type": "address[]"
        },
        {
          "internalType": "uint256[]",
          "name": "amounts",
          "type": "uint256[]"
        },
        {
          "internalType": "bytes",
          "name": "receiverData",
          "type": "bytes"
        }
      ],
      "name": "flashLoan",
      "outputs": [],
      "stateMutability": "nonpayable",
      "type": "function"
    },
    {
      "inputs": [],
      "name": "getAuthorizer",
      "outputs": [
        {
          "internalType": "contract IAuthorizer",
          "name": "",
          "type": "address"
        }
      ],
      "stateMutability": "view",
      "type": "function"
    },
    {
      "inputs": [
        {
          "internalType": "contract IERC20[]",
          "name": "tokens",
          "type": "address[]"
        }
      ],
      "name": "getCollectedFees",
      "outputs": [
        {
          "internalType": "uint256[]",
          "name": "",
          "type": "uint256[]"
        }
      ],
      "stateMutability": "view",
      "type": "function"
    },
    {
      "inputs": [
        {
          "internalType": "address",
          "name": "user",
          "type": "address"
        },
        {
          "internalType": "contract IERC20[]",
          "name": "tokens",
          "type": "address[]"
        }
      ],
      "name": "getInternalBalance",
      "outputs": [
        {
          "internalType": "uint256[]",
          "name": "balances",
          "type": "uint256[]"
        }
      ],
      "stateMutability": "view",
      "type": "function"
    },
    {
      "inputs": [
        {
          "internalType": "bytes32",
          "name": "poolId",
          "type": "bytes32"
        }
      ],
      "name": "getPool",
      "outputs": [
        {
          "internalType": "address",
          "name": "",
          "type": "address"
        },
        {
          "internalType": "enum IVault.PoolSpecialization",
          "name": "",
          "type": "uint8"
        }
      ],
      "stateMutability": "view",
      "type": "function"
    },
    {
      "inputs": [
        {
          "internalType": "bytes32",
          "name": "poolId",
          "type": "bytes32"
        },
        {
          "internalType": "contract IERC20[]",
          "name": "tokens",
          "type": "address[]"
        }
      ],
      "name": "getPoolAssetManagers",
      "outputs": [
        {
          "internalType": "address[]",
          "name": "assetManagers",
          "type": "address[]"
        }
      ],
      "stateMutability": "view",
      "type": "function"
    },
    {
      "inputs": [
        {
          "internalType": "bytes32",
          "name": "poolId",
          "type": "bytes32"
        },
        {
          "internalType": "contract IERC20",
          "name": "token",
          "type": "address"
        }
      ],
      "name": "getPoolTokenInfo",
      "outputs": [
        {
          "internalType": "uint256",
          "name": "cash",
          "type": "uint256"
        },
        {
          "internalType": "uint256",
          "name": "managed",
          "type": "uint256"
        },
        {
          "internalType": "uint256",
          "name": "blockNumber",
          "type": "uint256"
        },
        {
          "internalType": "address",
          "name": "assetManager",
          "type": "address"
        }
      ],
      "stateMutability": "view",
      "type": "function"
    },
    {
      "inputs": [
        {
          "internalType": "bytes32",
          "name": "poolId",
          "type": "bytes32"
        }
      ],
      "name": "getPoolTokens",
      "outputs": [
        {
          "internalType": "contract IERC20[]",
          "name": "tokens",
          "type": "address[]"
        },
        {
          "internalType": "uint256[]",
          "name": "balances",
          "type": "uint256[]"
        }
      ],
      "stateMutability": "view",
      "type": "function"
    },
    {
      "inputs": [],
      "name": "getProtocolFees",
      "outputs": [
        {
          "internalType": "uint256",
          "name": "swapFee",
          "type": "uint256"
        },
        {
          "internalType": "uint256",
          "name": "withdrawFee",
          "type": "uint256"
        },
        {
          "internalType": "uint256",
          "name": "flashLoanFee",
          "type": "uint256"
        }
      ],
      "stateMutability": "view",
      "type": "function"
    },
    {
      "inputs": [
        {
          "internalType": "address",
          "name": "user",
          "type": "address"
        },
        {
          "internalType": "address",
          "name": "relayer",
          "type": "address"
        }
      ],
      "name": "hasAllowedRelayer",
      "outputs": [
        {
          "internalType": "bool",
          "name": "",
          "type": "bool"
        }
      ],
      "stateMutability": "view",
      "type": "function"
    },
    {
      "inputs": [
        {
          "internalType": "bytes32",
          "name": "poolId",
          "type": "bytes32"
        },
        {
          "internalType": "address",
          "name": "sender",
          "type": "address"
        },
        {
          "internalType": "address",
          "name": "recipient",
          "type": "address"
        },
        {
          "internalType": "contract IERC20[]",
          "name": "tokens",
          "type": "address[]"
        },
        {
          "internalType": "uint256[]",
          "name": "maxAmountsIn",
          "type": "uint256[]"
        },
        {
          "internalType": "bool",
          "name": "fromInternalBalance",
          "type": "bool"
        },
        {
          "internalType": "bytes",
          "name": "userData",
          "type": "bytes"
        }
      ],
      "name": "joinPool",
      "outputs": [],
      "stateMutability": "nonpayable",
      "type": "function"
    },
    {
      "inputs": [
        {
          "internalType": "enum IVault.SwapKind",
          "name": "kind",
          "type": "uint8"
        },
        {
          "components": [
            {
              "internalType": "bytes32",
              "name": "poolId",
              "type": "bytes32"
            },
            {
              "internalType": "uint256",
              "name": "tokenInIndex",
              "type": "uint256"
            },
            {
              "internalType": "uint256",
              "name": "tokenOutIndex",
              "type": "uint256"
            },
            {
              "internalType": "uint256",
              "name": "amount",
              "type": "uint256"
            },
            {
              "internalType": "bytes",
              "name": "userData",
              "type": "bytes"
            }
          ],
          "internalType": "struct IVault.SwapRequest[]",
          "name": "swaps",
          "type": "tuple[]"
        },
        {
          "internalType": "contract IERC20[]",
          "name": "tokens",
          "type": "address[]"
        },
        {
          "components": [
            {
              "internalType": "address",
              "name": "sender",
              "type": "address"
            },
            {
              "internalType": "bool",
              "name": "fromInternalBalance",
              "type": "bool"
            },
            {
              "internalType": "address",
              "name": "recipient",
              "type": "address"
            },
            {
              "internalType": "bool",
              "name": "toInternalBalance",
              "type": "bool"
            }
          ],
          "internalType": "struct IVault.FundManagement",
          "name": "funds",
          "type": "tuple"
        }
      ],
      "name": "queryBatchSwap",
      "outputs": [
        {
          "internalType": "int256[]",
          "name": "",
          "type": "int256[]"
        }
      ],
      "stateMutability": "nonpayable",
      "type": "function"
    },
    {
      "inputs": [
        {
          "internalType": "enum IVault.PoolSpecialization",
          "name": "specialization",
          "type": "uint8"
        }
      ],
      "name": "registerPool",
      "outputs": [
        {
          "internalType": "bytes32",
          "name": "",
          "type": "bytes32"
        }
      ],
      "stateMutability": "nonpayable",
      "type": "function"
    },
    {
      "inputs": [
        {
          "internalType": "bytes32",
          "name": "poolId",
          "type": "bytes32"
        },
        {
          "internalType": "contract IERC20[]",
          "name": "tokens",
          "type": "address[]"
        },
        {
          "internalType": "address[]",
          "name": "assetManagers",
          "type": "address[]"
        }
      ],
      "name": "registerTokens",
      "outputs": [],
      "stateMutability": "nonpayable",
      "type": "function"
    },
    {
      "inputs": [
        {
          "internalType": "uint256",
          "name": "newSwapFee",
          "type": "uint256"
        },
        {
          "internalType": "uint256",
          "name": "newWithdrawFee",
          "type": "uint256"
        },
        {
          "internalType": "uint256",
          "name": "newFlashLoanFee",
          "type": "uint256"
        }
      ],
      "name": "setProtocolFees",
      "outputs": [],
      "stateMutability": "nonpayable",
      "type": "function"
    },
    {
      "inputs": [
        {
          "components": [
            {
              "internalType": "contract IERC20",
              "name": "token",
              "type": "address"
            },
            {
              "internalType": "uint256",
              "name": "amount",
              "type": "uint256"
            },
            {
              "internalType": "address",
              "name": "sender",
              "type": "address"
            },
            {
              "internalType": "address",
              "name": "recipient",
              "type": "address"
            }
          ],
          "internalType": "struct IVault.BalanceTransfer[]",
          "name": "transfers",
          "type": "tuple[]"
        }
      ],
      "name": "transferInternalBalance",
      "outputs": [],
      "stateMutability": "nonpayable",
      "type": "function"
    },
    {
      "inputs": [
        {
          "components": [
            {
              "internalType": "contract IERC20",
              "name": "token",
              "type": "address"
            },
            {
              "internalType": "uint256",
              "name": "amount",
              "type": "uint256"
            },
            {
              "internalType": "address",
              "name": "sender",
              "type": "address"
            },
            {
              "internalType": "address",
              "name": "recipient",
              "type": "address"
            }
          ],
          "internalType": "struct IVault.BalanceTransfer[]",
          "name": "transfers",
          "type": "tuple[]"
        }
      ],
      "name": "transferToExternalBalance",
      "outputs": [],
      "stateMutability": "nonpayable",
      "type": "function"
    },
    {
      "inputs": [
        {
          "internalType": "bytes32",
          "name": "poolId",
          "type": "bytes32"
        },
        {
          "components": [
            {
              "internalType": "contract IERC20",
              "name": "token",
              "type": "address"
            },
            {
              "internalType": "uint256",
              "name": "amount",
              "type": "uint256"
            }
          ],
          "internalType": "struct IVault.AssetManagerTransfer[]",
          "name": "transfers",
          "type": "tuple[]"
        }
      ],
      "name": "updateManagedBalance",
      "outputs": [],
      "stateMutability": "nonpayable",
      "type": "function"
    },
    {
      "inputs": [
        {
          "internalType": "contract IERC20[]",
          "name": "tokens",
          "type": "address[]"
        },
        {
          "internalType": "uint256[]",
          "name": "amounts",
          "type": "uint256[]"
        },
        {
          "internalType": "address",
          "name": "recipient",
          "type": "address"
        }
      ],
      "name": "withdrawCollectedFees",
      "outputs": [],
      "stateMutability": "nonpayable",
      "type": "function"
    },
    {
      "inputs": [
        {
          "components": [
            {
              "internalType": "contract IERC20",
              "name": "token",
              "type": "address"
            },
            {
              "internalType": "uint256",
              "name": "amount",
              "type": "uint256"
            },
            {
              "internalType": "address",
              "name": "sender",
              "type": "address"
            },
            {
              "internalType": "address",
              "name": "recipient",
              "type": "address"
            }
          ],
          "internalType": "struct IVault.BalanceTransfer[]",
          "name": "transfers",
          "type": "tuple[]"
        }
      ],
      "name": "withdrawFromInternalBalance",
      "outputs": [],
      "stateMutability": "nonpayable",
      "type": "function"
    },
    {
      "inputs": [
        {
          "internalType": "bytes32",
          "name": "poolId",
          "type": "bytes32"
        },
        {
          "components": [
            {
              "internalType": "contract IERC20",
              "name": "token",
              "type": "address"
            },
            {
              "internalType": "uint256",
              "name": "amount",
              "type": "uint256"
            }
          ],
          "internalType": "struct IVault.AssetManagerTransfer[]",
          "name": "transfers",
          "type": "tuple[]"
        }
      ],
      "name": "withdrawFromPoolBalance",
      "outputs": [],
      "stateMutability": "nonpayable",
      "type": "function"
    }
  ],
  "bytecode": "0x60806040523480156200001157600080fd5b506040516200601c3803806200601c83398101604081905262000034916200005f565b6001600081905580546001600160a01b0319166001600160a01b03929092169190911790556200008f565b60006020828403121562000071578081fd5b81516001600160a01b038116811462000088578182fd5b9392505050565b615f7d806200009f6000396000f3fe608060405234801561001057600080fd5b50600436106101cf5760003560e01c806377c6b2c911610104578063da3e0fef116100a2578063f29a728a11610071578063f29a728a14610411578063f6c0092714610424578063f84d066e14610445578063f94d466814610458576101cf565b8063da3e0fef146103c5578063dfa2cc0a146103d8578063e8aea900146103eb578063f03592cf146103fe576101cf565b8063af6b62f2116100de578063af6b62f214610358578063b05f8e4814610378578063c55f5e5d1461039b578063d8dfcea0146103ae576101cf565b806377c6b2c91461031d5780637d3aeb9614610330578063aaabadc514610343576101cf565b806330fd0eed1161017157806345eb88301161014b57806345eb8830146102c45780635c38449e146102e457806366a9c7d2146102f75780636daefab61461030a576101cf565b806330fd0eed1461028b57806337a04b9a1461029e57806338b72e35146102b1576101cf565b80630e9e98cf116101ad5780630e9e98cf146102255780630f5a6efa1461023857806312b8c9901461025857806325eb51371461026b576101cf565b806309b2760f146101d45780630c81b269146101fd5780630dd072a514610212575b600080fd5b6101e76101e236600461516a565b610479565b6040516101f49190615564565b60405180910390f35b61021061020b366004614c22565b61053e565b005b610210610220366004614c22565b610607565b610210610233366004614aa2565b6106e6565b61024b610246366004614af6565b610719565b6040516101f49190615521565b610210610266366004614c22565b6107ae565b61027e610279366004614abe565b610861565b6040516101f49190615559565b610210610299366004614fdd565b610876565b6102106102ac366004614c22565b6109b6565b6102106102bf366004614e2c565b610a6b565b6102d76102d2366004614d04565b610ce8565b6040516101f491906154e9565b6102106102f23660046150a6565b610d28565b610210610305366004614f39565b610d6b565b610210610318366004614b70565b610f8c565b6102d761032b366004614d04565b61101e565b61021061033e366004614ef0565b61104a565b61034b611232565b6040516101f49190615664565b61036b610366366004614faf565b611241565b6040516101f49190615446565b61038b610386366004615082565b611314565b6040516101f49493929190615e8f565b6102106103a9366004615228565b6113d7565b6103b6611474565b6040516101f493929190615e79565b6102106103d3366004614fdd565b611482565b6102106103e6366004614fdd565b6115b0565b6102106103f9366004614e2c565b61167f565b61024b61040c366004614bf0565b611889565b61021061041f366004614b43565b611894565b610437610432366004614e14565b6118d3565b6040516101f4929190615406565b6102d7610453366004615189565b6118fd565b61046b610466366004614e14565b6119ab565b6040516101f4929190615493565b60006104836119da565b60006104993384610494600c611a04565b611a08565b6000818152600d602052604090205490915060ff16156104d45760405162461bcd60e51b81526004016104cb90615a50565b60405180910390fd5b6104de600c611a47565b6000818152600d602052604090819020805460ff19166001179055517f43641244aeefd8de6827c26f36450aa6165c9fef65ddfa7262da93ba648464d290610527908390615564565b60405180910390a19050610539611a50565b919050565b6105466119da565b60005b81518110156105fb57600082828151811061056057fe5b602002602001015160400151905061057781611a57565b600083838151811061058557fe5b602002602001015160000151905060008484815181106105a157fe5b602002602001015160200151905060008585815181106105bd57fe5b60200260200101516060015190506105d6818484611a95565b6105eb6001600160a01b038416853085611abc565b5050600190920191506105499050565b50610604611a50565b50565b61060f6119da565b60005b81518110156105fb57600082828151811061062957fe5b602002602001015160400151905061064081611a57565b600083838151811061064e57fe5b6020026020010151600001519050600084848151811061066a57fe5b6020026020010151602001519050600085858151811061068657fe5b6020026020010151606001519050600061069f83611b1a565b90506106ab8482611b28565b6106b6858585611b58565b6106d5826106c48584611b94565b6001600160a01b0387169190611bbc565b505060019093019250610612915050565b6106ee6119da565b6106f6611bdb565b600180546001600160a01b0319166001600160a01b038316179055610604611a50565b606081516001600160401b038111801561073257600080fd5b5060405190808252806020026020018201604052801561075c578160200160208202803683370190505b50905060005b82518110156107a7576107888484838151811061077b57fe5b6020026020010151611cb1565b82828151811061079457fe5b6020908102919091010152600101610762565b5092915050565b6107b66119da565b60005b81518110156105fb5760008282815181106107d057fe5b60200260200101516040015190506107e781611a57565b60008383815181106107f557fe5b6020026020010151600001519050600084848151811061081157fe5b6020026020010151602001519050600085858151811061082d57fe5b6020026020010151606001519050610846848484611b58565b610851818484611a95565b5050600190920191506107b99050565b600061086d8383611cdc565b90505b92915050565b61087e6119da565b61088782611d0a565b600061089283611d38565b905060005b82518110156109a85760008382815181106108ae57fe5b60200260200101516000015190506108c68582611d4e565b60008483815181106108d457fe5b6020026020010151602001519050600160028111156108ef57fe5b8460028111156108fb57fe5b14156109115761090c868383611d9b565b61093b565b600284600281111561091f57fe5b14156109305761090c868383611da9565b61093b868383611db7565b6109506001600160a01b038316333084611abc565b6001600160a01b03821633877fea86d22f498d42c4c5ed8d09366d0af8bb816a7d2265eef1080d0cb6acb517bb61098685611dc5565b6000036040516109969190615564565b60405180910390a45050600101610897565b50506109b2611a50565b5050565b6109be6119da565b60005b81518110156105fb5760008282815181106109d857fe5b60200260200101516040015190506109ef81611a57565b60008383815181106109fd57fe5b60200260200101516000015190506000848481518110610a1957fe5b60200260200101516020015190506000858581518110610a3557fe5b6020908102919091010151606001519050610a5b6001600160a01b038416858385611abc565b5050600190920191506109c19050565b610a736119da565b86610a7d81611d0a565b86610a8781611a57565b610a9386518651611dee565b6060610a9f8a88611e0d565b9050606080610ab28c8a858e8e8b611e9f565b9150915060005b8951811015610be0576000838281518110610ad057fe5b60200260200101519050898281518110610ae657fe5b6020026020010151811115610b0d5760405162461bcd60e51b81526004016104cb90615c75565b610b2c8b8381518110610b1c57fe5b6020026020010151828f8c611f79565b6000838381518110610b3a57fe5b6020026020010151905080821015610b7957610b74828203878581518110610b5e57fe5b6020026020010151611fd490919063ffffffff16565b610ba1565b610ba1818303878581518110610b8b57fe5b602002602001015161200f90919063ffffffff16565b868481518110610bad57fe5b602002602001018181525050610bd68c8481518110610bc857fe5b602002602001015182611b28565b5050600101610ab9565b506000610bec8d611d38565b90506002816002811115610bfc57fe5b1415610c6457610c5f8d8b600081518110610c1357fe5b602002602001015186600081518110610c2857fe5b60200260200101518d600181518110610c3d57fe5b602002602001015188600181518110610c5257fe5b6020026020010151612025565b610c8d565b6001816002811115610c7257fe5b1415610c8357610c5f8d8b86612064565b610c8d8d856120d1565b8b6001600160a01b03168d7ff7f95732a0f83c5093bfd147b3c8e57ac41ee39cd0f23cb6e74325e9f8fe1a648585604051610cc9929190615534565b60405180910390a3505050505050610cdf611a50565b50505050505050565b6060610cf26119da565b8351610cfd81611a57565b610d14610d098861211a565b87878787600161211d565b915050610d1f611a50565b95945050505050565b6040516000906108fc90829081818181818088f19350505050158015610d52573d6000803e3d6000fd5b5060405162461bcd60e51b81526004016104cb906158d7565b610d736119da565b84610d7d81612248565b610d878483611dee565b6000610d9287611d38565b90506002816002811115610da257fe5b1415610e1a5760028514610dc85760405162461bcd60e51b81526004016104cb90615809565b610e158787876000818110610dd957fe5b9050602002016020810190610dee9190614aa2565b88886001818110610dfb57fe5b9050602002016020810190610e109190614aa2565b612286565b610ea8565b6001816002811115610e2857fe5b1415610e6b57610e15878787808060200260200160405190810160405280939291908181526020018383602002808284376000920191909152506123a192505050565b610ea88787878080602002602001604051908101604052809392919081815260200183836020028082843760009201919091525061243a92505050565b60005b85811015610f3b576000878783818110610ec157fe5b9050602002016020810190610ed69190614aa2565b90506000868684818110610ee657fe5b9050602002016020810190610efb9190614aa2565b60008b8152600e602090815260408083206001600160a01b039687168452909152902080546001600160a01b031916919093161790915550600101610eab565b507ff5847d3f2197b16cdcd2098ec95d0905cd1abdaf415f07bb7cef2bba8ac5dec48787878787604051610f739594939291906155fc565b60405180910390a15050610f85611a50565b5050505050565b610f946119da565b610f9c611bdb565b610fa68483611dee565b60005b84811015611015576000868683818110610fbf57fe5b9050602002016020810190610fd49190614aa2565b90506000858584818110610fe457fe5b905060200201359050610ff782826124d4565b61100b6001600160a01b0383168583611bbc565b5050600101610fa9565b50610f85611a50565b60606110286119da565b835161103381611a57565b610d1461103f8861211a565b87878787600061211d565b6110526119da565b8261105c81612248565b600061106785611d38565b9050600281600281111561107757fe5b14156110ef576002831461109d5760405162461bcd60e51b81526004016104cb90615809565b6110ea85858560008181106110ae57fe5b90506020020160208101906110c39190614aa2565b868660018181106110d057fe5b90506020020160208101906110e59190614aa2565b61251a565b61117d565b60018160028111156110fd57fe5b1415611140576110ea8585858080602002602001604051908101604052809392919081815260200183836020028082843760009201919091525061259292505050565b61117d8585858080602002602001604051908101604052809392919081815260200183836020028082843760009201919091525061264492505050565b60005b838110156111e7576000868152600e60205260408120908686848181106111a357fe5b90506020020160208101906111b89190614aa2565b6001600160a01b03168152602081019190915260400160002080546001600160a01b0319169055600101611180565b507f7dcdc6d02ef40c7c1a7046a011b058bd7f988fa14e20a66344f9d4e60657d61085858560405161121b939291906155e2565b60405180910390a1505061122d611a50565b505050565b6001546001600160a01b031690565b606061124c83611d0a565b81516001600160401b038111801561126357600080fd5b5060405190808252806020026020018201604052801561128d578160200160208202803683370190505b50905060005b82518110156107a75760008382815181106112aa57fe5b602002602001015190506112be85826126c0565b6000858152600e602090815260408083206001600160a01b03808616855292529091205484519116908490849081106112f357fe5b6001600160a01b039092166020928302919091019091015250600101611293565b6000806000808561132481611d0a565b60008061133089611d38565b9050600281600281111561134057fe5b14156113575761135089896126e6565b9150611382565b600181600281111561136557fe5b1415611375576113508989612763565b61137f89896127d5565b91505b61138b826127ed565b965061139682612800565b95506113a182612816565b6000998a52600e60209081526040808c206001600160a01b039b8c168d5290915290992054969995989796909616955050505050565b6113df6119da565b6113e7611bdb565b6706f05b59d3b2000083111561140f5760405162461bcd60e51b81526004016104cb90615840565b6611c37937e080008211156114365760405162461bcd60e51b81526004016104cb90615ac8565b662386f26fc1000081111561145d5760405162461bcd60e51b81526004016104cb90615d42565b60058390556004829055600681905561122d611a50565b600554600454600654909192565b61148a6119da565b61149382611d0a565b600061149e83611d38565b905060005b82518110156109a85760008382815181106114ba57fe5b60200260200101516000015190506114d28582611d4e565b60008483815181106114e057fe5b6020026020010151602001519050600160028111156114fb57fe5b84600281111561150757fe5b141561151d5761151886838361281c565b611547565b600284600281111561152b57fe5b141561153c5761151886838361282a565b611547868383612838565b61155b6001600160a01b0383163383611bbc565b6001600160a01b03821633877fea86d22f498d42c4c5ed8d09366d0af8bb816a7d2265eef1080d0cb6acb517bb61159185611dc5565b60405161159e9190615564565b60405180910390a450506001016114a3565b6115b86119da565b6115c182611d0a565b60006115cc83611d38565b905060005b82518110156109a85760008382815181106115e857fe5b60200260200101516000015190506116008582611d4e565b600084838151811061160e57fe5b60200260200101516020015190506001600281111561162957fe5b84600281111561163557fe5b141561164b57611646868383612846565b611675565b600284600281111561165957fe5b141561166a57611646868383612854565b611675868383612862565b50506001016115d1565b6116876119da565b8661169181611d0a565b8661169b81611a57565b6116a786518651611dee565b60606116b38a88611e0d565b90506060806116c68c8a858e8e8b612870565b9150915060005b89518110156117ec578881815181106116e257fe5b60200260200101518382815181106116f657fe5b6020026020010151101561171c5760405162461bcd60e51b81526004016104cb906157bd565b600083828151811061172a57fe5b6020026020010151905060006117558c848151811061174557fe5b6020026020010151838f8d6128ad565b9050600084848151811061176557fe5b602002602001015190506000611784828561290890919063ffffffff16565b905061179681898781518110610b5e57fe5b8886815181106117a257fe5b6020026020010181815250506117dd8e86815181106117bd57fe5b60200260200101516117d8858561290890919063ffffffff16565b611b28565b505050508060010190506116cd565b5060006117f88d611d38565b9050600281600281111561180857fe5b14156118245761181f8d8b600081518110610c1357fe5b61184d565b600181600281111561183257fe5b14156118435761181f8d8b86612064565b61184d8d856120d1565b8b6001600160a01b03168d7fe1f0410ab343b6bd5ac108e2e4c8085cef471896ef5214b73d944091850293218585604051610cc9929190615534565b60606108708261292d565b61189c6119da565b3360009081526002602090815260408083206001600160a01b03861684529091529020805460ff19168215151790556109b2611a50565b600080826118e081611d0a565b6118e9846129dd565b6118f285611d38565b925092505b50915091565b6060333014611987576000306001600160a01b031660003660405161192392919061538f565b6000604051808303816000865af19150503d8060008114611960576040519150601f19603f3d011682016040523d82523d6000602084013e611965565b606091505b50509050806000811461197457fe5b60206000523d600060203e60203d016000f35b6060611995858585896129e3565b905060208151026020810182fd5b949350505050565b606080826119b881611d0a565b60606119c385612cab565b90945090506119d181612d0d565b92505050915091565b600260005414156119fd5760405162461bcd60e51b81526004016104cb9061572b565b6002600055565b5490565b600069ffffffffffffffffffff82166050846002811115611a2557fe5b901b17606085901b6bffffffffffffffffffffffff19161790505b9392505050565b80546001019055565b6001600055565b336001600160a01b0382161461060457611a6f611bdb565b611a798133611cdc565b6106045760405162461bcd60e51b81526004016104cb90615786565b6000611aa18484611cb1565b90506000611aaf8284612908565b9050610f85858583612d9a565b611b14846323b872dd60e01b858585604051602401611add939291906153e2565b60408051601f198184030181529190526020810180516001600160e01b03166001600160e01b031990931692909217909152612e02565b50505050565b600061087082600454612e91565b6001600160a01b03821660009081526003602052604081205490611b4c8284612908565b9050611b148482612ef0565b6000611b648484611cb1565b905081811015611b865760405162461bcd60e51b81526004016104cb90615cd4565b818103610f85858583612d9a565b600082821115611bb65760405162461bcd60e51b81526004016104cb90615a79565b50900390565b61122d8363a9059cbb60e01b8484604051602401611add92919061542d565b6000306000356001600160e01b031916604051602001611bfc929190615363565b60408051601f19818403018152908290528051602090910120600154632474521560e21b83529092506001600160a01b0316906391d1485490611c45908490339060040161556d565b60206040518083038186803b158015611c5d57600080fd5b505afa158015611c71573d6000803e3d6000fd5b505050506040513d601f19601f82011682018060405250810190611c959190614df8565b6106045760405162461bcd60e51b81526004016104cb906156f4565b6001600160a01b03918216600090815260076020908152604080832093909416825291909152205490565b6001600160a01b03918216600090815260026020908152604080832093909416825291909152205460ff1690565b6000818152600d602052604090205460ff166106045760405162461bcd60e51b81526004016104cb90615a50565b600061ffff605083901c16600281111561087057fe5b611d5882826126c0565b6000828152600e602090815260408083206001600160a01b0385811685529252909120541633146109b25760405162461bcd60e51b81526004016104cb90615d79565b61122d8383612f0c84612f47565b61122d8383612f0c84612f91565b61122d8383612f0c8461302f565b6000600160ff1b8210611dea5760405162461bcd60e51b81526004016104cb90615bba565b5090565b8082146109b25760405162461bcd60e51b81526004016104cb906158a0565b6060806060611e1b85612cab565b91509150611e2b82518551611dee565b60005b8251811015611e9657848181518110611e4357fe5b60200260200101516001600160a01b0316838281518110611e6057fe5b60200260200101516001600160a01b031614611e8e5760405162461bcd60e51b81526004016104cb90615877565b600101611e2e565b50949350505050565b60608060606000611eaf88613064565b915091506000611ebe8b6129dd565b9050806001600160a01b031663d5c096c48c8a8a8787611edc61310e565b8d6040518863ffffffff1660e01b8152600401611eff9796959493929190615584565b600060405180830381600087803b158015611f1957600080fd5b505af1158015611f2d573d6000803e3d6000fd5b505050506040513d6000823e601f3d908101601f19168201604052611f559190810190614da2565b8095508196505050611f6b8a5186518651613114565b505050965096945050505050565b82611f8357611b14565b828115611fb9576000611f968487611cb1565b90506000611fa4828761313e565b9050611fb38588838503612d9a565b90910390505b8015610f8557610f856001600160a01b038616843084611abc565b600080611fea83611fe4866127ed565b90611b94565b90506000611ff785612800565b905043612005838383613154565b9695505050505050565b600080611fea8361201f866127ed565b90612908565b6000612031858461319e565b6000878152600b60209081526040808320848452600201909152902090915061205a85846131d1565b9055505050505050565b60005b8251811015611b145781818151811061207c57fe5b6020026020010151600a600086815260200190815260200160002060008584815181106120a557fe5b6020908102919091018101516001600160a01b0316825281019190915260400160002055600101612067565b6000828152600860205260408120905b8251811015611b1457612112818483815181106120fa57fe5b6020026020010151846131f69092919063ffffffff16565b6001016120e1565b90565b60608242111561213f5760405162461bcd60e51b81526004016104cb90615aff565b61214b86518551611dee565b612157878787856129e3565b905060005b865181101561223d57600087828151811061217357fe5b60200260200101519050600083838151811061218b57fe5b602002602001015190508683815181106121a157fe5b60200260200101518113156121c85760405162461bcd60e51b81526004016104cb906157e5565b60008113156121ea576121e582828a600001518b60200151611f79565b612233565b6000811215612233576060880151600082900390156122175761221289604001518483611a95565b612231565b6040890151612231906001600160a01b0385169083611bbc565b505b505060010161215c565b509695505050505050565b61225181611d0a565b600061225c826129dd565b90506001600160a01b03811633146109b25760405162461bcd60e51b81526004016104cb90615c02565b6001600160a01b038216158015906122a657506001600160a01b03811615155b6122c25760405162461bcd60e51b81526004016104cb90615937565b806001600160a01b0316826001600160a01b031614156122f45760405162461bcd60e51b81526004016104cb90615c9d565b806001600160a01b0316826001600160a01b0316106123255760405162461bcd60e51b81526004016104cb90615a9f565b6000838152600b6020526040902080546001600160a01b0316158015612356575060018101546001600160a01b0316155b6123725760405162461bcd60e51b81526004016104cb90615dd6565b80546001600160a01b039384166001600160a01b03199182161782556001909101805492909316911617905550565b6000828152600960205260408120905b8251811015611b145760008382815181106123c857fe5b6020026020010151905060006001600160a01b0316816001600160a01b031614156124055760405162461bcd60e51b81526004016104cb90615937565b60006124118483613201565b9050806124305760405162461bcd60e51b81526004016104cb90615c9d565b50506001016123b1565b6000828152600860205260408120905b8251811015611b1457600083828151811061246157fe5b6020026020010151905060006001600160a01b0316816001600160a01b0316141561249e5760405162461bcd60e51b81526004016104cb90615937565b60006124ab848383613216565b9050806124ca5760405162461bcd60e51b81526004016104cb90615c9d565b505060010161244a565b6001600160a01b0382166000908152600360205260409020548181101561250d5760405162461bcd60e51b81526004016104cb9061574f565b818103611b148482612ef0565b60008061252885858561322c565b5091509150612536826132e7565b80156125465750612546816132e7565b6125625760405162461bcd60e51b81526004016104cb906159e2565b505050600091825250600b6020526040902080546001600160a01b03199081168255600190910180549091169055565b6000828152600960205260408120905b8251811015611b145760008382815181106125b957fe5b6020908102919091018101516000878152600a835260408082206001600160a01b038416835290935291909120549091506125f3906132e7565b61260f5760405162461bcd60e51b81526004016104cb906159e2565b600061261b84836132f4565b90508061263a5760405162461bcd60e51b81526004016104cb9061596e565b50506001016125a2565b6000828152600860205260408120905b8251811015611b1457600083828151811061266b57fe5b6020026020010151905060006126818483613309565b905061268c816132e7565b6126a85760405162461bcd60e51b81526004016104cb906159e2565b6126b2848361334c565b505050806001019050612654565b6126ca8282613361565b6109b25760405162461bcd60e51b81526004016104cb9061596e565b60008060008060006126f7876133bd565b945094509450945050836001600160a01b0316866001600160a01b031614156127265782945050505050610870565b816001600160a01b0316866001600160a01b0316141561274b57935061087092505050565b60405162461bcd60e51b81526004016104cb9061596e565b6000828152600a602090815260408083206001600160a01b03851684529091528120548161279082613433565b806127ae575060008581526009602052604090206127ae9085613445565b9050806127cd5760405162461bcd60e51b81526004016104cb9061596e565b509392505050565b60008281526008602052604081206119a38184613309565b6dffffffffffffffffffffffffffff1690565b60701c6dffffffffffffffffffffffffffff1690565b60e01c90565b61122d838361345a84612f47565b61122d838361345a84612f91565b61122d838361345a8461302f565b61122d838361347b84612f47565b61122d838361347b84612f91565b61122d838361347b8461302f565b6060806060600061288088613064565b91509150600061288f8b6129dd565b9050806001600160a01b03166374f3b0098c8a8a8787611edc61310e565b6000836128bc575060006119a3565b81156128d5576128cd838686611a95565b5060006119a3565b60006128e085611b1a565b9050612901846128f08784611b94565b6001600160a01b0389169190611bbc565b90506119a3565b60008282018381101561086d5760405162461bcd60e51b81526004016104cb90615b26565b606081516001600160401b038111801561294657600080fd5b50604051908082528060200260200182016040528015612970578160200160208202803683370190505b50905060005b82518110156129d7576003600084838151811061298f57fe5b60200260200101516001600160a01b03166001600160a01b03168152602001908152602001600020548282815181106129c457fe5b6020908102919091010152600101612976565b50919050565b60601c90565b606083516001600160401b03811180156129fc57600080fd5b50604051908082528060200260200182016040528015612a26578160200160208202803683370190505b509050612a316146bc565b612a396146d3565b60005b8751811015612ca057878181518110612a5157fe5b60200260200101519150612a688260000151611d0a565b86518260200151108015612a80575086518260400151105b612a9c5760405162461bcd60e51b81526004016104cb9061568b565b600087836020015181518110612aae57fe5b60200260200101519050600088846040015181518110612aca57fe5b60200260200101519050806001600160a01b0316826001600160a01b03161415612b065760405162461bcd60e51b81526004016104cb90615d0b565b6060840151612b855760018a511115612b6d576000612b26888484613495565b6001600160a01b031686600001516001600160a01b031614905080612b5d5760405162461bcd60e51b81526004016104cb90615a19565b5060208501516060850152612b85565b60405162461bcd60e51b81526004016104cb90615900565b600080612b9f8484888d600001518e604001518c8f6134b7565b91509150612bd5612baf83611dc5565b89886020015181518110612bbf57fe5b602002602001015161357d90919063ffffffff16565b88876020015181518110612be557fe5b602002602001018181525050612c23612bfd82611dc5565b89886040015181518110612c0d57fe5b60200260200101516135c390919063ffffffff16565b88876040015181518110612c3357fe5b602002602001018181525050826001600160a01b0316846001600160a01b031687600001517f2170c741c41531aec20e7c107c24eecfdd15e69c9bb0a8dd37b1840b9e0b207b8585604051612c89929190615e6b565b60405180910390a450505050806001019050612a3c565b505050949350505050565b6060806000612cb984611d38565b90506002816002811115612cc957fe5b1415612ce257612cd884613609565b9250925050612d08565b6001816002811115612cf057fe5b1415612cff57612cd88461373e565b612cd884613863565b915091565b606081516001600160401b0381118015612d2657600080fd5b50604051908082528060200260200182016040528015612d50578160200160208202803683370190505b50905060005b81518110156129d757612d7b838281518110612d6e57fe5b6020026020010151613971565b828281518110612d8757fe5b6020908102919091010152600101612d56565b6001600160a01b0380841660008181526007602090815260408083209487168084529490915290819020849055517f50cf099fb31ce57dd84f33ea9868ff2439a5a7cca9fb6f6182fb6ccbf31945d090612df5908590615564565b60405180910390a3505050565b6060612e57826040518060400160405280602081526020017f5361666545524332303a206c6f772d6c6576656c2063616c6c206661696c6564815250856001600160a01b03166139889092919063ffffffff16565b80519091501561122d5780806020019051810190612e759190614df8565b61122d5760405162461bcd60e51b81526004016104cb90615c2b565b6000828202831580612eab575082848281612ea857fe5b04145b612ec75760405162461bcd60e51b81526004016104cb90615db0565b80612ed6576000915050610870565b670de0b6b3a7640000600019820104600101915050610870565b6001600160a01b03909116600090815260036020526040902055565b600080612f1c8361201f866127ed565b90506000612f2d84611fe487612800565b90506000612f3a86612816565b9050612005838383613154565b6000612f538585612763565b9050612f6381838563ffffffff16565b6000958652600a602090815260408088206001600160a01b0390971688529590529390942092909255505050565b6000806000806000612fa2896133bd565b94509450945094509450836001600160a01b0316886001600160a01b03161415612fdb57612fd483878963ffffffff16565b9250613006565b816001600160a01b0316886001600160a01b0316141561274b5761300381878963ffffffff16565b90505b61301083826131d1565b855561301c8382613997565b8560010181905550505050505050505050565b6000848152600860205260408120906130488286613309565b9050610cdf8561305c83868863ffffffff16565b849190613216565b6060600082516001600160401b038111801561307f57600080fd5b506040519080825280602002602001820160405280156130a9578160200160208202803683370190505b50915060005b82518110156118f75760008482815181106130c657fe5b602002602001015190506130d981613971565b8483815181106130e557fe5b602002602001018181525050613103836130fe83612816565b6139b5565b9250506001016130af565b60055490565b818314801561312257508082145b61122d5760405162461bcd60e51b81526004016104cb906158a0565b600081831061314d578161086d565b5090919050565b600083830184811080159061317757506e01000000000000000000000000000081105b6131935760405162461bcd60e51b81526004016104cb90615b4c565b610d1f8585856139c5565b600082826040516020016131b39291906153bb565b60405160208183030381529060405280519060200120905092915050565b600061086d6131df846127ed565b6131e8846127ed565b6131f186612816565b6139c5565b61122d8383836139d3565b600061086d836001600160a01b0384166139eb565b60006119a3846001600160a01b03851684613a35565b600080600080600061323e8787613ab8565b91509150600061324e838361319e565b60008a8152600b602090815260408083208484526002019091528120805460018201549197509293509061328183613433565b80613290575061329082613433565b806132a157506132a18c8787613aea565b9050806132c05760405162461bcd60e51b81526004016104cb9061596e565b6132ca8383613b2b565b98506132d68383613b50565b975050505050505093509350939050565b6001600160e01b03161590565b600061086d836001600160a01b038416613b67565b600061086d82604051806040016040528060148152602001731513d2d15397d393d517d49151d254d51154915160621b81525085613c2d9092919063ffffffff16565b600061086d836001600160a01b038416613c43565b60008061336d84611d38565b9050600281600281111561337d57fe5b14156133955761338d8484613cbc565b915050610870565b60018160028111156133a357fe5b14156133b35761338d8484613d0d565b61338d8484613d25565b6000818152600b60205260408120805460018201546001600160a01b03918216928492909116908290816133f1868561319e565b60008181526002840160205260409020805460018201549199509192506134188282613b2b565b96506134248282613b50565b94505050505091939590929450565b600061343e826132e7565b1592915050565b600061086d836001600160a01b038416613d3d565b60008061346a83611fe4866127ed565b90506000612f2d8461201f87612800565b600080613487846127ed565b905043610d1f828583613154565b6000808460018111156134a457fe5b146134af57816119a3565b509092915050565b6000806134c2614705565b6040518061010001604052808b6001600160a01b031681526020018a6001600160a01b03168152602001896060015181526020018960000151815260200160008152602001886001600160a01b03168152602001876001600160a01b0316815260200189608001518152509050600061353b8286613d55565b9050613548858c8c613dca565b6001600160a01b0316865260208601819052606089015161356b90869083613de4565b909c909b509950505050505050505050565b60008282018183128015906135925750838112155b806135a757506000831280156135a757508381125b61086d5760405162461bcd60e51b81526004016104cb90615b26565b60008183038183128015906135d85750838113155b806135ed57506000831280156135ed57508381135b61086d5760405162461bcd60e51b81526004016104cb90615a79565b60608060008060008061361b876133bd565b92975090955093509150506001600160a01b038416158061364357506001600160a01b038216155b1561366c5750506040805160008082526020820190815281830190925294509250612d08915050565b6040805160028082526060820183529091602083019080368337019050509550838660008151811061369a57fe5b60200260200101906001600160a01b031690816001600160a01b03168152505081866001815181106136c857fe5b6001600160a01b0392909216602092830291909101820152604080516002808252606082018352909290919083019080368337019050509450828560008151811061370f57fe5b602002602001018181525050808560018151811061372957fe5b60200260200101818152505050505050915091565b6000818152600960205260409020606090819061375a81613e12565b6001600160401b038111801561376f57600080fd5b50604051908082528060200260200182016040528015613799578160200160208202803683370190505b50925082516001600160401b03811180156137b357600080fd5b506040519080825280602002602001820160405280156137dd578160200160208202803683370190505b50915060005b835181101561385c5760006137f88383613e1d565b90508085838151811061380757fe5b6001600160a01b039283166020918202929092018101919091526000888152600a825260408082209385168252929091522054845185908490811061384857fe5b6020908102919091010152506001016137e3565b5050915091565b6000818152600860205260409020606090819061387f81613e12565b6001600160401b038111801561389457600080fd5b506040519080825280602002602001820160405280156138be578160200160208202803683370190505b50925082516001600160401b03811180156138d857600080fd5b50604051908082528060200260200182016040528015613902578160200160208202803683370190505b50915060005b835181101561385c5760008061391e8484613e29565b915091508186848151811061392f57fe5b60200260200101906001600160a01b031690816001600160a01b0316815250508085848151811061395c57fe5b60209081029190910101525050600101613908565b600061087061397f83612800565b61201f846127ed565b60606119a38484600085613e45565b600061086d6139a584612800565b6139ae84612800565b60006139c5565b60008183101561314d578161086d565b60e01b60709190911b010190565b60009182526001928301602052604090912090910155565b60006139f78383613d3d565b613a2d57508154600181810184556000848152602080822090930184905584548482528286019093526040902091909155610870565b506000610870565b600082815260028401602052604081205480613a985750508254604080518082018252848152602080820185815260008581526001808a018452858220945185559151938201939093559384018088558683526002880190915291902055611a40565b600019016000908152600180860160205260408220018390559050611a40565b600080826001600160a01b0316846001600160a01b031610613adb578284613ade565b83835b915091505b9250929050565b6000838152600b6020526040812080546001600160a01b038581169116148015610d1f5750600101546001600160a01b039081169216919091149392505050565b600061086d613b39846127ed565b613b42846127ed565b613b4b86612816565b613154565b600061086d613b5e84612800565b613b4284612800565b60008181526001830160205260408120548015613c235783546000198083019190810190600090879083908110613b9a57fe5b9060005260206000200154905080876000018481548110613bb757fe5b600091825260208083209091019290925582815260018981019092526040902090840190558654879080613be757fe5b60019003818190600052602060002001600090559055866001016000878152602001908152602001600020600090556001945050505050610870565b6000915050610870565b60006119a3846001600160a01b03851684613f06565b60008181526002830160205260408120548015613c2357835460001990810160008181526001808801602090815260408084209587018452808420865481558684018054918501919091558654855260028b01909252808420969096559382905592819055908655848152918220919091559050610870565b6000828152600b6020526040812080546001600160a01b0384811691161480613cf4575060018101546001600160a01b038481169116145b80156119a3575050506001600160a01b03161515919050565b60008281526009602052604081206119a38184613445565b60008281526008602052604081206119a38184613f20565b60009081526001919091016020526040902054151590565b600080613d6584606001516129dd565b90506000613d768560600151611d38565b90506001816002811115613d8657fe5b1415613da057613d97858386613f35565b92505050610870565b6002816002811115613dae57fe5b1415613dbf57613d97858386613fc8565b613d97858386614077565b600080846001811115613dd957fe5b146107a757826119a3565b60008080856001811115613df457fe5b1415613e04575082905081613e0a565b50819050825b935093915050565b600061087082611a04565b600061086d83836143a7565b6000808080613e3886866143ec565b9097909650945050505050565b606082471015613e675760405162461bcd60e51b81526004016104cb9061599c565b613e7085614406565b613e8c5760405162461bcd60e51b81526004016104cb90615b83565b60006060866001600160a01b03168587604051613ea9919061539f565b60006040518083038185875af1925050503d8060008114613ee6576040519150601f19603f3d011682016040523d82523d6000602084013e613eeb565b606091505b5091509150613efb82828661440c565b979650505050505050565b600080613f14858585614445565b9050610d1f8582614482565b600061086d836001600160a01b038416614498565b600080613f4a85606001518660000151612763565b90506000613f6086606001518760200151612763565b9050613f6f86868685856144b0565b6060890180516000908152600a602081815260408084208e516001600160a01b03908116865290835281852098909855935183529081528282209b81015190951681529990935291909720969096555093949350505050565b600080600080613fe587606001518860000151896020015161322c565b92509250925060008088602001516001600160a01b031689600001516001600160a01b0316101561401a575083905082614020565b50829050835b61402d89898985856144b0565b60208c01518c519199509294509092506001600160a01b0391821691161061405e5761405981836131d1565b614068565b61406882826131d1565b90925550929695505050505050565b606083015160009081526008602090815260408083208651825180840190935260148352731513d2d15397d393d517d49151d254d51154915160621b938301939093528392839283916140cc91849190614692565b905060006141158960200151604051806040016040528060148152602001731513d2d15397d393d517d49151d254d51154915160621b815250856146929092919063ffffffff16565b9050600061412284613e12565b90506060816001600160401b038111801561413c57600080fd5b50604051908082528060200260200182016040528015614166578160200160208202803683370190505b50905060005b828110156141de57600061418087836146a8565b905061418b81613971565b83838151811061419757fe5b6020026020010181815250506141b48d608001516130fe83612816565b60808e0152818614156141c9578098506141d5565b848214156141d5578097505b5060010161416c565b5060008960018111156141ed57fe5b14156142bd576141fb614705565b6142048c6146b4565b905060008b6001600160a01b031663b58c9534838589896040518563ffffffff1660e01b815260040161423a9493929190615e0d565b602060405180830381600087803b15801561425457600080fd5b505af1158015614268573d6000803e3d6000fd5b505050506040513d601f19601f8201168201806040525081019061428c9190615210565b90508099506142a88d604001518a61200f90919063ffffffff16565b98506142b48882611fd4565b97505050614383565b6142c5614705565b6142ce8c6146b4565b905060008b6001600160a01b031663618e086e838589896040518563ffffffff1660e01b81526004016143049493929190615e0d565b602060405180830381600087803b15801561431e57600080fd5b505af1158015614332573d6000803e3d6000fd5b505050506040513d601f19601f820116820180604052508101906143569190615210565b9950899050614365898261200f565b985061437e8d6040015189611fd490919063ffffffff16565b975050505b61438e8585896131f6565b6143998584886131f6565b505050505050509392505050565b815460009082106143ca5760405162461bcd60e51b81526004016104cb906156b2565b8260000182815481106143d957fe5b9060005260206000200154905092915050565b600090815260019182016020526040902080549101549091565b3b151590565b6060831561441b575081611a40565b82511561442b5782518084602001fd5b8160405162461bcd60e51b81526004016104cb9190615678565b600082815260028401602052604081205482816144755760405162461bcd60e51b81526004016104cb9190615678565b5060001901949350505050565b6000908152600191820160205260409020015490565b60009081526002919091016020526040902054151590565b6000806000806144bf86613971565b905060006144cc86613971565b90506144e36144da88612816565b6130fe88612816565b60808b015260008860018111156144f657fe5b14156145c357614504614705565b61450d8b6146b4565b905060008a6001600160a01b0316639588c1938386866040518463ffffffff1660e01b815260040161454193929190615e46565b602060405180830381600087803b15801561455b57600080fd5b505af115801561456f573d6000803e3d6000fd5b505050506040513d601f19601f820116820180604052508101906145939190615210565b90506145ac8c604001518a61200f90919063ffffffff16565b96506145b88882611fd4565b955093506146859050565b6145cb614705565b6145d48b6146b4565b905060008a6001600160a01b031663223b57e58386866040518463ffffffff1660e01b815260040161460893929190615e46565b602060405180830381600087803b15801561462257600080fd5b505af1158015614636573d6000803e3d6000fd5b505050506040513d601f19601f8201168201806040525081019061465a9190615210565b9050614666898261200f565b965061467f8c6040015189611fd490919063ffffffff16565b95509350505b5050955095509592505050565b60006119a3846001600160a01b03851684614445565b600061086d8383614482565b611dea614705565b604080518082019091526000808252602082015290565b6040518060a0016040528060008019168152602001600081526020016000815260200160008152602001606081525090565b604080516101008101825260008082526020820181905291810182905260608082018390526080820183905260a0820183905260c082019290925260e081019190915290565b803561087081615f24565b60008083601f840112614767578182fd5b5081356001600160401b0381111561477d578182fd5b6020830191508360208083028501011115613ae357600080fd5b600082601f8301126147a7578081fd5b81356147ba6147b582615ed9565b615eb3565b8181529150602080830190848101818402860182018710156147db57600080fd5b60005b848110156148035781356147f181615f24565b845292820192908201906001016147de565b505050505092915050565b600082601f83011261481e578081fd5b813561482c6147b582615ed9565b81815291506020808301908481018184028601820187101561484d57600080fd5b60005b8481101561480357813584529282019290820190600101614850565b600082601f83011261487c578081fd5b813561488a6147b582615ed9565b818152915060208083019084810160005b84811015614803578135870160a080601f19838c030112156148bc57600080fd5b6148c581615eb3565b8583013581526040808401358783015260608085013582840152608091508185013581840152508284013592506001600160401b0383111561490657600080fd5b6149148c8885870101614995565b9082015286525050928201929082019060010161489b565b600082601f83011261493c578081fd5b815161494a6147b582615ed9565b81815291506020808301908481018184028601820187101561496b57600080fd5b60005b848110156148035781518452928201929082019060010161496e565b803561087081615f39565b600082601f8301126149a5578081fd5b81356001600160401b038111156149ba578182fd5b6149cd601f8201601f1916602001615eb3565b91508082528360208285010111156149e457600080fd5b8060208401602084013760009082016020015292915050565b600060408284031215614a0e578081fd5b614a186040615eb3565b90508135614a2581615f24565b808252506020820135602082015292915050565b600060808284031215614a4a578081fd5b614a546080615eb3565b90508135614a6181615f24565b81526020820135614a7181615f39565b60208201526040820135614a8481615f24565b60408201526060820135614a9781615f39565b606082015292915050565b600060208284031215614ab3578081fd5b813561086d81615f24565b60008060408385031215614ad0578081fd5b8235614adb81615f24565b91506020830135614aeb81615f24565b809150509250929050565b60008060408385031215614b08578182fd5b8235614b1381615f24565b915060208301356001600160401b03811115614b2d578182fd5b614b3985828601614797565b9150509250929050565b60008060408385031215614b55578182fd5b8235614b6081615f24565b91506020830135614aeb81615f39565b600080600080600060608688031215614b87578081fd5b85356001600160401b0380821115614b9d578283fd5b614ba989838a01614756565b90975095506020880135915080821115614bc1578283fd5b50614bce88828901614756565b9094509250506040860135614be281615f24565b809150509295509295909350565b600060208284031215614c01578081fd5b81356001600160401b03811115614c16578182fd5b6119a384828501614797565b60006020808385031215614c34578182fd5b82356001600160401b03811115614c49578283fd5b8301601f81018513614c59578283fd5b8035614c676147b582615ed9565b818152838101908385016080808502860187018a1015614c85578788fd5b8795505b84861015614cf65780828b031215614c9f578788fd5b614ca881615eb3565b614cb28b8461474b565b815287830135888201526040614cca8c82860161474b565b908201526060614cdc8c85830161474b565b908201528452600195909501949286019290810190614c89565b509098975050505050505050565b60008060008060006101008688031215614d1c578283fd5b85356001600160401b0380821115614d32578485fd5b614d3e89838a0161486c565b96506020880135915080821115614d53578485fd5b614d5f89838a01614797565b9550614d6e8960408a01614a39565b945060c0880135915080821115614d83578283fd5b50614d908882890161480e565b9598949750929560e001359392505050565b60008060408385031215614db4578182fd5b82516001600160401b0380821115614dca578384fd5b614dd68683870161492c565b93506020850151915080821115614deb578283fd5b50614b398582860161492c565b600060208284031215614e09578081fd5b815161086d81615f39565b600060208284031215614e25578081fd5b5035919050565b600080600080600080600060e0888a031215614e46578485fd5b873596506020880135614e5881615f24565b95506040880135614e6881615f24565b945060608801356001600160401b0380821115614e83578384fd5b614e8f8b838c01614797565b955060808a0135915080821115614ea4578384fd5b614eb08b838c0161480e565b9450614ebf8b60a08c0161498a565b935060c08a0135915080821115614ed4578283fd5b50614ee18a828b01614995565b91505092959891949750929550565b600080600060408486031215614f04578081fd5b8335925060208401356001600160401b03811115614f20578182fd5b614f2c86828701614756565b9497909650939450505050565b600080600080600060608688031215614f50578283fd5b8535945060208601356001600160401b0380821115614f6d578485fd5b614f7989838a01614756565b90965094506040880135915080821115614f91578283fd5b50614f9e88828901614756565b969995985093965092949392505050565b60008060408385031215614fc1578182fd5b8235915060208301356001600160401b03811115614b2d578182fd5b6000806040808486031215614ff0578283fd5b833592506020808501356001600160401b0381111561500d578384fd5b8501601f8101871361501d578384fd5b803561502b6147b582615ed9565b81815283810190838501868402850186018b1015615047578788fd5b8794505b838510156150715761505d8b826149fd565b83526001949094019391850191860161504b565b508096505050505050509250929050565b60008060408385031215615094578182fd5b823591506020830135614aeb81615f24565b6000806000806000608086880312156150bd578283fd5b85356150c881615f24565b945060208601356001600160401b03808211156150e3578485fd5b6150ef89838a01614797565b95506040880135915080821115615104578485fd5b61511089838a0161480e565b94506060880135915080821115615125578283fd5b818801915088601f830112615138578283fd5b813581811115615146578384fd5b896020828501011115615157578384fd5b9699959850939650602001949392505050565b60006020828403121561517b578081fd5b81356003811061086d578182fd5b60008060008060e0858703121561519e578182fd5b8435600281106151ac578283fd5b935060208501356001600160401b03808211156151c7578384fd5b6151d38883890161486c565b945060408701359150808211156151e8578384fd5b506151f587828801614797565b9250506152058660608701614a39565b905092959194509250565b600060208284031215615221578081fd5b5051919050565b60008060006060848603121561523c578081fd5b505081359360208301359350604090920135919050565b60008284526020808501945082825b8581101561529057813561527581615f24565b6001600160a01b031687529582019590820190600101615262565b509495945050505050565b6000815180845260208085019450808401835b83811015615290578151875295820195908201906001016152ae565b600081518084526152e2816020860160208601615ef8565b601f01601f19169290920160200192915050565b60006101006001600160a01b038084511685528060208501511660208601526040840151604086015260608401516060860152608084015160808601528060a08501511660a08601528060c08501511660c08601525060e08301518160e0860152610d1f828601826152ca565b60609290921b6bffffffffffffffffffffffff191682526001600160e01b031916601482015260180190565b6000828483379101908152919050565b600082516153b1818460208701615ef8565b9190910192915050565b6bffffffffffffffffffffffff19606093841b811682529190921b16601482015260280190565b6001600160a01b039384168152919092166020820152604081019190915260600190565b6001600160a01b0383168152604081016003831061542057fe5b8260208301529392505050565b6001600160a01b03929092168252602082015260400190565b6020808252825182820181905260009190848201906040850190845b818110156154875783516001600160a01b031683529284019291840191600101615462565b50909695505050505050565b604080825283519082018190526000906020906060840190828701845b828110156154d55781516001600160a01b0316845292840192908401906001016154b0565b50505083810382850152612005818661529b565b6020808252825182820181905260009190848201906040850190845b8181101561548757835183529284019291840191600101615505565b60006020825261086d602083018461529b565b600060408252615547604083018561529b565b8281036020840152610d1f818561529b565b901515815260200190565b90815260200190565b9182526001600160a01b0316602082015260400190565b60008882526001600160a01b03808916602084015280881660408401525060e060608301526155b660e083018761529b565b8560808401528460a084015282810360c08401526155d481856152ca565b9a9950505050505050505050565b600084825260406020830152610d1f604083018486615253565b60008682526020606081840152615617606084018789615253565b838103604085015284815285908201835b8681101561565657823561563b81615f24565b6001600160a01b031682529183019190830190600101615628565b509998505050505050505050565b6001600160a01b0391909116815260200190565b60006020825261086d60208301846152ca565b6020808252600d908201526c4f55545f4f465f424f554e445360981b604082015260600190565b60208082526022908201527f456e756d657261626c655365743a20696e646578206f7574206f6620626f756e604082015261647360f01b606082015260800190565b60208082526012908201527f53454e4445525f4e4f545f414c4c4f5745440000000000000000000000000000604082015260600190565b6020808252600a90820152695245454e5452414e435960b01b604082015260600190565b6020808252601b908201527f494e53554646494349454e545f434f4c4c45435445445f464545530000000000604082015260600190565b60208082526019908201527f555345525f444f45534e545f414c4c4f575f52454c4159455200000000000000604082015260600190565b6020808252600e908201526d22ac24aa2fa122a627abafa6a4a760911b604082015260600190565b6020808252600a908201526914d5d05417d31253525560b21b604082015260600190565b60208082526017908201527f544f4b454e535f4c454e4754485f4d5553545f42455f32000000000000000000604082015260600190565b60208082526011908201527f535741505f4645455f544f4f5f48494748000000000000000000000000000000604082015260600190565b6020808252600f908201526e0a89e968a9ca6be9a92a69a82a8869608b1b604082015260600190565b60208082526015908201527f494e5055545f4c454e4754485f4d49534d415443480000000000000000000000604082015260600190565b6020808252600f908201526e1b9bdd081a5b5c1b195b595b9d1959608a1b604082015260600190565b6020808252601c908201527f554e4b4e4f574e5f414d4f554e545f494e5f46495253545f5357415000000000604082015260600190565b60208082526012908201527f5a45524f5f414444524553535f544f4b454e0000000000000000000000000000604082015260600190565b6020808252601490820152731513d2d15397d393d517d49151d254d51154915160621b604082015260600190565b60208082526026908201527f416464726573733a20696e73756666696369656e742062616c616e636520666f6040820152651c8818d85b1b60d21b606082015260800190565b60208082526015908201527f4e4f4e5a45524f5f544f4b454e5f42414c414e43450000000000000000000000604082015260600190565b6020808252601c908201527f4d414c434f4e53545255435445445f4d554c5449484f505f5357415000000000604082015260600190565b6020808252600f908201526e1253959053125117d413d3d317d251608a1b604082015260600190565b6020808252600c908201526b5355425f4f564552464c4f5760a01b604082015260600190565b6020808252600f908201526e554e534f525445445f544f4b454e5360881b604082015260600190565b60208082526015908201527f57495448445241575f4645455f544f4f5f484947480000000000000000000000604082015260600190565b6020808252600d908201526c535741505f444541444c494e4560981b604082015260600190565b6020808252600c908201526b4144445f4f564552464c4f5760a01b604082015260600190565b60208082526016908201527f42414c414e43455f544f54414c5f4f564552464c4f5700000000000000000000604082015260600190565b6020808252601d908201527f416464726573733a2063616c6c20746f206e6f6e2d636f6e7472616374000000604082015260600190565b60208082526028908201527f53616665436173743a2076616c756520646f65736e27742066697420696e2061604082015267371034b73a191a9b60c11b606082015260800190565b6020808252600f908201526e10d05313115497d393d517d413d3d3608a1b604082015260600190565b6020808252602a908201527f5361666545524332303a204552433230206f7065726174696f6e20646964206e6040820152691bdd081cdd58d8d9595960b21b606082015260800190565b6020808252600e908201526d0949e929cbe82849eac8abe9a82b60931b604082015260600190565b60208082526018908201527f544f4b454e5f414c52454144595f524547495354455245440000000000000000604082015260600190565b6020808252601d908201527f494e53554646494349454e545f494e5445524e414c5f42414c414e4345000000604082015260600190565b60208082526016908201527f43414e4e4f545f535741505f53414d455f544f4b454e00000000000000000000604082015260600190565b60208082526017908201527f464c4153485f4c4f414e5f4645455f544f4f5f48494748000000000000000000604082015260600190565b60208082526018908201527f53454e4445525f4e4f545f41535345545f4d414e414745520000000000000000604082015260600190565b6020808252600c908201526b4d554c5f4f564552464c4f5760a01b604082015260600190565b60208082526012908201527f544f4b454e535f414c52454144595f5345540000000000000000000000000000604082015260600190565b600060808252615e2060808301876152f6565b8281036020840152615e32818761529b565b604084019590955250506060015292915050565b600060608252615e5960608301866152f6565b60208301949094525060400152919050565b918252602082015260400190565b9283526020830191909152604082015260600190565b938452602084019290925260408301526001600160a01b0316606082015260800190565b6040518181016001600160401b0381118282101715615ed157600080fd5b604052919050565b60006001600160401b03821115615eee578081fd5b5060209081020190565b60005b83811015615f13578181015183820152602001615efb565b83811115611b145750506000910152565b6001600160a01b038116811461060457600080fd5b801515811461060457600080fdfea2646970667358221220f035d6bbbd99662a11c030448df7bcd5748b6d1a93fcff5cd42dc7f49436039664736f6c63430007000033",
  "linkReferences": {},
  "deployedLinkReferences": {}
}