{
  "address": "0x2DEafCb9E66c408255cc5fAa5714Eb7C0E1C7F08",
  "abi": [
    {
      "inputs": [],
      "name": "SIMULATE_DELEGATECALL_INTERNAL_SELECTOR",
      "outputs": [
        {
          "internalType": "bytes4",
          "name": "",
          "type": "bytes4"
        }
      ],
      "stateMutability": "view",
      "type": "function"
    },
    {
      "inputs": [
        {
          "internalType": "address",
          "name": "solver",
          "type": "address"
        }
      ],
      "name": "addSolver",
      "outputs": [],
      "stateMutability": "nonpayable",
      "type": "function"
    },
    {
      "inputs": [
        {
          "internalType": "uint256",
          "name": "offset",
          "type": "uint256"
        },
        {
          "internalType": "uint256",
          "name": "length",
          "type": "uint256"
        }
      ],
      "name": "getStorageAt",
      "outputs": [
        {
          "internalType": "bytes",
          "name": "",
          "type": "bytes"
        }
      ],
      "stateMutability": "view",
      "type": "function"
    },
    {
      "inputs": [
        {
          "internalType": "address",
          "name": "manager_",
          "type": "address"
        }
      ],
      "name": "initializeManager",
      "outputs": [],
      "stateMutability": "nonpayable",
      "type": "function"
    },
    {
      "inputs": [
        {
          "internalType": "address",
          "name": "prospectiveSolver",
          "type": "address"
        }
      ],
      "name": "isSolver",
      "outputs": [
        {
          "internalType": "bool",
          "name": "",
          "type": "bool"
        }
      ],
      "stateMutability": "view",
      "type": "function"
    },
    {
      "inputs": [],
      "name": "manager",
      "outputs": [
        {
          "internalType": "address",
          "name": "",
          "type": "address"
        }
      ],
      "stateMutability": "view",
      "type": "function"
    },
    {
      "inputs": [
        {
          "internalType": "address",
          "name": "solver",
          "type": "address"
        }
      ],
      "name": "removeSolver",
      "outputs": [],
      "stateMutability": "nonpayable",
      "type": "function"
    },
    {
      "inputs": [
        {
          "internalType": "bytes",
          "name": "response",
          "type": "bytes"
        }
      ],
      "name": "revertWith",
      "outputs": [],
      "stateMutability": "pure",
      "type": "function"
    },
    {
      "inputs": [
        {
          "internalType": "bytes",
          "name": "buffer",
          "type": "bytes"
        },
        {
          "internalType": "uint256",
          "name": "length",
          "type": "uint256"
        }
      ],
      "name": "setLength",
      "outputs": [],
      "stateMutability": "pure",
      "type": "function"
    },
    {
      "inputs": [
        {
          "internalType": "address",
          "name": "manager_",
          "type": "address"
        }
      ],
      "name": "setManager",
      "outputs": [],
      "stateMutability": "nonpayable",
      "type": "function"
    },
    {
      "inputs": [
        {
          "internalType": "address",
          "name": "targetContract",
          "type": "address"
        },
        {
          "internalType": "bytes",
          "name": "calldataPayload",
          "type": "bytes"
        }
      ],
      "name": "simulateDelegatecall",
      "outputs": [
        {
          "internalType": "bytes",
          "name": "response",
          "type": "bytes"
        }
      ],
      "stateMutability": "nonpayable",
      "type": "function"
    },
    {
      "inputs": [
        {
          "internalType": "address",
          "name": "targetContract",
          "type": "address"
        },
        {
          "internalType": "bytes",
          "name": "calldataPayload",
          "type": "bytes"
        }
      ],
      "name": "simulateDelegatecallInternal",
      "outputs": [
        {
          "internalType": "bytes",
          "name": "response",
          "type": "bytes"
        }
      ],
      "stateMutability": "nonpayable",
      "type": "function"
    }
  ],
  "transactionHash": "0x883700e6e4e810cafb82ed841d586ab43b861ca7d602516db086cfa1c7fec2a8",
  "args": [],
  "solcInputHash": "712c481058f897c71953a39a13fda8af",
  "bytecode": "0x608060405234801561001057600080fd5b50611056806100206000396000f3fe608060405234801561001057600080fd5b50600436106100d45760003560e01c806365906ca311610081578063d0ebdbe71161005b578063d0ebdbe71461049f578063ec58f4b8146104d2578063f84436bd14610505576100d4565b806365906ca3146103935780637f7120fe146104395780638fd57b921461046c576100d4565b8063481c6a75116100b2578063481c6a751461029557806352b8dfc5146102c65780635624b25b14610370576100d4565b806302cc250d146100d95780633a1b407a1461012057806343218e191461015d575b600080fd5b61010c600480360360208110156100ef57600080fd5b503573ffffffffffffffffffffffffffffffffffffffff166105c8565b604080519115158252519081900360200190f35b6101286105db565b604080517fffffffff000000000000000000000000000000000000000000000000000000009092168252519081900360200190f35b6102206004803603604081101561017357600080fd5b73ffffffffffffffffffffffffffffffffffffffff82351691908101906040810160208201356401000000008111156101ab57600080fd5b8201836020820111156101bd57600080fd5b803590602001918460018302840111640100000000831117156101df57600080fd5b91908080601f0160208091040260200160405190810160405280939291908181526020018383808284376000920191909152509295506105ff945050505050565b6040805160208082528351818301528351919283929083019185019080838360005b8381101561025a578181015183820152602001610242565b50505050905090810190601f1680156102875780820380516001836020036101000a031916815260200191505b509250505060405180910390f35b61029d610777565b6040805173ffffffffffffffffffffffffffffffffffffffff9092168252519081900360200190f35b61036e600480360360408110156102dc57600080fd5b8101906020810181356401000000008111156102f757600080fd5b82018360208201111561030957600080fd5b8035906020019184600183028401116401000000008311171561032b57600080fd5b91908080601f0160208091040260200160405190810160405280939291908181526020018383808284376000920191909152509295505091359250610799915050565b005b6102206004803603604081101561038657600080fd5b508035906020013561079d565b61036e600480360360208110156103a957600080fd5b8101906020810181356401000000008111156103c457600080fd5b8201836020820111156103d657600080fd5b803590602001918460018302840111640100000000831117156103f857600080fd5b91908080601f016020809104026020016040519081016040528093929190818152602001838380828437600092019190915250929550610811945050505050565b61036e6004803603602081101561044f57600080fd5b503573ffffffffffffffffffffffffffffffffffffffff16610819565b61036e6004803603602081101561048257600080fd5b503573ffffffffffffffffffffffffffffffffffffffff16610973565b61036e600480360360208110156104b557600080fd5b503573ffffffffffffffffffffffffffffffffffffffff16610a0a565b61036e600480360360208110156104e857600080fd5b503573ffffffffffffffffffffffffffffffffffffffff16610b0a565b6102206004803603604081101561051b57600080fd5b73ffffffffffffffffffffffffffffffffffffffff823516919081019060408101602082013564010000000081111561055357600080fd5b82018360208201111561056557600080fd5b8035906020019184600183028401116401000000008311171561058757600080fd5b91908080601f016020809104026020016040519081016040528093929190818152602001838380828437600092019190915250929550610ba1945050505050565b60006105d5600183610e03565b92915050565b7f43218e198a5f5c70ca65adf1973b6285a79c4d29a39cc2a8bb67b912f447dc6481565b606060008373ffffffffffffffffffffffffffffffffffffffff16836040518082805190602001908083835b6020831061066857805182527fffffffffffffffffffffffffffffffffffffffffffffffffffffffffffffffe0909201916020918201910161062b565b6001836020036101000a038019825116818451168082178552505050505050905001915050600060405180830381855af49150503d80600081146106c8576040519150601f19603f3d011682016040523d82523d6000602084013e6106cd565b606091505b50809350819250505061077082826040516020018083805190602001908083835b6020831061072b57805182527fffffffffffffffffffffffffffffffffffffffffffffffffffffffffffffffe090920191602091820191016106ee565b6001836020036101000a03801982511681845116808217855250505050505090500182151560f81b815260010192505050604051602081830303815290604052610811565b5092915050565b60005462010000900473ffffffffffffffffffffffffffffffffffffffff1681565b9052565b606060008260200267ffffffffffffffff811180156107bb57600080fd5b506040519080825280601f01601f1916602001820160405280156107e6576020820181803683370190505b50905060005b8381101561080957848101546020808302840101526001016107ec565b509392505050565b805160208201fd5b600054610100900460ff16806108325750610832610e2c565b80610840575060005460ff16155b610895576040517f08c379a000000000000000000000000000000000000000000000000000000000815260040180806020018281038252602e815260200180610ff3602e913960400191505060405180910390fd5b600054610100900460ff161580156108fb57600080547fffffffffffffffffffffffffffffffffffffffffffffffffffffffffffffff007fffffffffffffffffffffffffffffffffffffffffffffffffffffffffffff00ff909116610100171660011790555b600080547fffffffffffffffffffff0000000000000000000000000000000000000000ffff166201000073ffffffffffffffffffffffffffffffffffffffff851602179055801561096f57600080547fffffffffffffffffffffffffffffffffffffffffffffffffffffffffffff00ff1690555b5050565b60005462010000900473ffffffffffffffffffffffffffffffffffffffff1633146109ff57604080517f08c379a000000000000000000000000000000000000000000000000000000000815260206004820152601860248201527f475076323a2063616c6c6572206e6f74206d616e616765720000000000000000604482015290519081900360640190fd5b61096f600182610e3d565b60005462010000900473ffffffffffffffffffffffffffffffffffffffff16331480610a52575033610a3a610e5f565b73ffffffffffffffffffffffffffffffffffffffff16145b610abd57604080517f08c379a000000000000000000000000000000000000000000000000000000000815260206004820152601460248201527f475076323a206e6f7420617574686f72697a6564000000000000000000000000604482015290519081900360640190fd5b6000805473ffffffffffffffffffffffffffffffffffffffff90921662010000027fffffffffffffffffffff0000000000000000000000000000000000000000ffff909216919091179055565b60005462010000900473ffffffffffffffffffffffffffffffffffffffff163314610b9657604080517f08c379a000000000000000000000000000000000000000000000000000000000815260206004820152601860248201527f475076323a2063616c6c6572206e6f74206d616e616765720000000000000000604482015290519081900360640190fd5b61096f600182610e84565b606060007f43218e198a5f5c70ca65adf1973b6285a79c4d29a39cc2a8bb67b912f447dc648484604051602401808373ffffffffffffffffffffffffffffffffffffffff16815260200180602001828103825283818151815260200191508051906020019080838360005b83811015610c24578181015183820152602001610c0c565b50505050905090810190601f168015610c515780820380516001836020036101000a031916815260200191505b50604080517fffffffffffffffffffffffffffffffffffffffffffffffffffffffffffffffe08184030181529181526020820180517bffffffffffffffffffffffffffffffffffffffffffffffffffffffff167fffffffff00000000000000000000000000000000000000000000000000000000909816979097178752518151919750309688965090945084935091508083835b60208310610d2257805182527fffffffffffffffffffffffffffffffffffffffffffffffffffffffffffffffe09092019160209182019101610ce5565b6001836020036101000a0380198251168184511680821785525050505050509050019150506000604051808303816000865af19150503d8060008114610d84576040519150601f19603f3d011682016040523d82523d6000602084013e610d89565b606091505b50905080925050600082600184510381518110610da257fe5b602001015160f81c60f81b7effffffffffffffffffffffffffffffffffffffffffffffffffffffffffffff1916600160f81b149050610de5836001855103610799565b8015610df25750506105d5565b610dfb83610811565b505092915050565b6000610e258373ffffffffffffffffffffffffffffffffffffffff8416610ea6565b9392505050565b6000610e3730610ebe565b15905090565b6000610e258373ffffffffffffffffffffffffffffffffffffffff8416610ec4565b7fb53127684a568b3173ae13b9f8a6016e243e63b6e8ee1178d6a717850b5d61035490565b6000610e258373ffffffffffffffffffffffffffffffffffffffff8416610fa8565b60009081526001919091016020526040902054151590565b3b151590565b60008181526001830160205260408120548015610f9e5783547fffffffffffffffffffffffffffffffffffffffffffffffffffffffffffffffff8083019190810190600090879083908110610f1557fe5b9060005260206000200154905080876000018481548110610f3257fe5b600091825260208083209091019290925582815260018981019092526040902090840190558654879080610f6257fe5b600190038181906000526020600020016000905590558660010160008781526020019081526020016000206000905560019450505050506105d5565b60009150506105d5565b6000610fb48383610ea6565b610fea575081546001818101845560008481526020808220909301849055845484825282860190935260409020919091556105d5565b5060006105d556fe496e697469616c697a61626c653a20636f6e747261637420697320616c726561647920696e697469616c697a6564a2646970667358221220bb9319d80d5b523b9cc7bddcff4f62a42059ab770e3d357c0db24b3592f8e9a364736f6c63430007060033",
  "devdoc": {
    "author": "Gnosis Developers",
    "kind": "dev",
    "methods": {
      "getStorageAt(uint256,uint256)": {
        "details": "Reads `length` bytes of storage in the currents contract",
        "params": {
          "length": "- the number of words (32 bytes) of data to read",
          "offset": "- the offset in the current contract's storage in words to start reading from"
        },
        "returns": {
          "_0": "the bytes that were read."
        }
      },
      "isSolver(address)": {
        "details": "determines whether the provided address is an authenticated solver.",
        "params": {
          "prospectiveSolver": "the address of prospective solver."
        },
        "returns": {
          "_0": "true when prospectiveSolver is an authenticated solver, otherwise false."
        }
      },
      "simulateDelegatecall(address,bytes)": {
        "details": "Performs a delegetecall on a targetContract in the context of self. Internally reverts execution to avoid side effects (making it static). Catches revert and returns encoded result as bytes.",
        "params": {
          "calldataPayload": "Calldata that should be sent to the target contract (encoded method name and arguments).",
          "targetContract": "Address of the contract containing the code to execute."
        }
      },
      "simulateDelegatecallInternal(address,bytes)": {
        "details": "Performs a delegetecall on a targetContract in the context of self. Internally reverts execution to avoid side effects (making it static). Returns encoded result as revert message concatenated with the success flag of the inner call as a last byte.",
        "params": {
          "calldataPayload": "Calldata that should be sent to the target contract (encoded method name and arguments).",
          "targetContract": "Address of the contract containing the code to execute."
        }
      }
    },
    "title": "Gnosis Protocol v2 Access Control Contract",
    "version": 1
  },
  "userdoc": {
    "kind": "user",
    "methods": {},
    "version": 1
  },
  "storageLayout": {
    "storage": [
      {
        "astId": 1062,
        "contract": "src/contracts/GPv2AllowListAuthentication.sol:GPv2AllowListAuthentication",
        "label": "_initialized",
        "offset": 0,
        "slot": "0",
        "type": "t_bool"
      },
      {
        "astId": 1065,
        "contract": "src/contracts/GPv2AllowListAuthentication.sol:GPv2AllowListAuthentication",
        "label": "_initializing",
        "offset": 1,
        "slot": "0",
        "type": "t_bool"
      },
      {
        "astId": 2810,
        "contract": "src/contracts/GPv2AllowListAuthentication.sol:GPv2AllowListAuthentication",
        "label": "manager",
        "offset": 2,
        "slot": "0",
        "type": "t_address"
      },
      {
        "astId": 2812,
        "contract": "src/contracts/GPv2AllowListAuthentication.sol:GPv2AllowListAuthentication",
        "label": "solvers",
        "offset": 0,
        "slot": "1",
        "type": "t_struct(AddressSet)2443_storage"
      }
    ],
    "types": {
      "t_address": {
        "encoding": "inplace",
        "label": "address",
        "numberOfBytes": "20"
      },
      "t_array(t_bytes32)dyn_storage": {
        "base": "t_bytes32",
        "encoding": "dynamic_array",
        "label": "bytes32[]",
        "numberOfBytes": "32"
      },
      "t_bool": {
        "encoding": "inplace",
        "label": "bool",
        "numberOfBytes": "1"
      },
      "t_bytes32": {
        "encoding": "inplace",
        "label": "bytes32",
        "numberOfBytes": "32"
      },
      "t_mapping(t_bytes32,t_uint256)": {
        "encoding": "mapping",
        "key": "t_bytes32",
        "label": "mapping(bytes32 => uint256)",
        "numberOfBytes": "32",
        "value": "t_uint256"
      },
      "t_struct(AddressSet)2443_storage": {
        "encoding": "inplace",
        "label": "struct EnumerableSet.AddressSet",
        "members": [
          {
            "astId": 2442,
            "contract": "src/contracts/GPv2AllowListAuthentication.sol:GPv2AllowListAuthentication",
            "label": "_inner",
            "offset": 0,
            "slot": "0",
            "type": "t_struct(Set)2178_storage"
          }
        ],
        "numberOfBytes": "64"
      },
      "t_struct(Set)2178_storage": {
        "encoding": "inplace",
        "label": "struct EnumerableSet.Set",
        "members": [
          {
            "astId": 2173,
            "contract": "src/contracts/GPv2AllowListAuthentication.sol:GPv2AllowListAuthentication",
            "label": "_values",
            "offset": 0,
            "slot": "0",
            "type": "t_array(t_bytes32)dyn_storage"
          },
          {
            "astId": 2177,
            "contract": "src/contracts/GPv2AllowListAuthentication.sol:GPv2AllowListAuthentication",
            "label": "_indexes",
            "offset": 0,
            "slot": "1",
            "type": "t_mapping(t_bytes32,t_uint256)"
          }
        ],
        "numberOfBytes": "64"
      },
      "t_uint256": {
        "encoding": "inplace",
        "label": "uint256",
        "numberOfBytes": "32"
      }
    }
  }
}