{
  "address": "0x471B773019E5023DB37f33A774e5f4CC9C50CaBC",
  "abi": [
    {
      "inputs": [
        {
          "internalType": "contract GPv2Authentication",
          "name": "authenticator_",
          "type": "address"
        }
      ],
      "stateMutability": "nonpayable",
      "type": "constructor"
    },
    {
      "anonymous": false,
      "inputs": [
        {
          "indexed": true,
          "internalType": "address",
          "name": "owner",
          "type": "address"
        },
        {
          "indexed": false,
          "internalType": "contract IERC20",
          "name": "sellToken",
          "type": "address"
        },
        {
          "indexed": false,
          "internalType": "contract IERC20",
          "name": "buyToken",
          "type": "address"
        },
        {
          "indexed": false,
          "internalType": "uint256",
          "name": "sellAmount",
          "type": "uint256"
        },
        {
          "indexed": false,
          "internalType": "uint256",
          "name": "buyAmount",
          "type": "uint256"
        },
        {
          "indexed": false,
          "internalType": "uint256",
          "name": "feeAmount",
          "type": "uint256"
        },
        {
          "indexed": false,
          "internalType": "bytes",
          "name": "orderUid",
          "type": "bytes"
        }
      ],
      "name": "Trade",
      "type": "event"
    },
    {
      "inputs": [],
      "name": "allowanceManager",
      "outputs": [
        {
          "internalType": "contract GPv2AllowanceManager",
          "name": "",
          "type": "address"
        }
      ],
      "stateMutability": "view",
      "type": "function"
    },
    {
      "inputs": [],
      "name": "domainSeparator",
      "outputs": [
        {
          "internalType": "bytes32",
          "name": "",
          "type": "bytes32"
        }
      ],
      "stateMutability": "view",
      "type": "function"
    },
    {
      "inputs": [
        {
          "internalType": "bytes",
          "name": "",
          "type": "bytes"
        }
      ],
      "name": "filledAmount",
      "outputs": [
        {
          "internalType": "uint256",
          "name": "",
          "type": "uint256"
        }
      ],
      "stateMutability": "view",
      "type": "function"
    },
    {
      "inputs": [
        {
          "internalType": "bytes",
          "name": "orderUid",
          "type": "bytes"
        }
      ],
      "name": "invalidateOrder",
      "outputs": [],
      "stateMutability": "nonpayable",
      "type": "function"
    },
    {
      "inputs": [
        {
          "internalType": "contract IERC20[]",
          "name": "tokens",
          "type": "address[]"
        },
        {
          "internalType": "uint256[]",
          "name": "clearingPrices",
          "type": "uint256[]"
        },
        {
          "internalType": "bytes",
          "name": "encodedTrades",
          "type": "bytes"
        },
        {
          "internalType": "bytes",
          "name": "encodedInteractions",
          "type": "bytes"
        },
        {
          "internalType": "bytes",
          "name": "encodedOrderRefunds",
          "type": "bytes"
        }
      ],
      "name": "settle",
      "outputs": [],
      "stateMutability": "nonpayable",
      "type": "function"
    },
    {
      "stateMutability": "payable",
      "type": "receive"
    }
  ],
  "transactionHash": "0xfc3066fa7632f9ce8a0f258ce3d5886d9f2083c47ca27c17a5a0db466f419a53",
  "args": [
    "0x091c1CDe12584225dce0fc2a5b3F50bC04D470CC"
  ],
  "solcInputHash": "0df6fb089edd5bf6d0d6236b23739093",
  "bytecode": "0x60e06040523480156200001157600080fd5b50604051620025f0380380620025f083398101604081905262000034916200012f565b6001600160601b0319606082901b1660a0526040514690620000c3907f8b73c3c69bb8fe3d512ecc4cf759cc79239f7b179b0ffacaa9a75d522b39400f907f6c85c0337eba1661327f94f3bf46c8a7f9311a563f4d5c948362567f5d8ed60c907ff9446b8e937d86f0bc87cac73923491692b123ca5f8761908494703758206adf90859030906020016200015f565b60408051601f19818403018152908290528051602090910120608052620000ea9062000121565b604051809103906000f08015801562000107573d6000803e3d6000fd5b5060601b6001600160601b03191660c052506200018b9050565b6106898062001f6783390190565b60006020828403121562000141578081fd5b81516001600160a01b038116811462000158578182fd5b9392505050565b9485526020850193909352604084019190915260608301526001600160a01b0316608082015260a00190565b60805160a05160601c60c05160601c611d9a620001cd6000398061032e52806103ef5280610f91525080610223525080610413528061053f5250611d9a6000f3fe60806040526004361061005e5760003560e01c80637caf7af0116100435780637caf7af0146100c2578063c4b1e4fb146100e2578063f698da251461010457610065565b806315337bc01461006a5780632479fb6e1461008c57610065565b3661006557005b600080fd5b34801561007657600080fd5b5061008a6100853660046118ab565b610119565b005b34801561009857600080fd5b506100ac6100a73660046118eb565b6101c9565b6040516100b99190611a74565b60405180910390f35b3480156100ce57600080fd5b5061008a6100dd3660046117a0565b6101e6565b3480156100ee57600080fd5b506100f76103ed565b6040516100b991906119ca565b34801561011057600080fd5b506100ac610411565b60006101258383610435565b5091505073ffffffffffffffffffffffffffffffffffffffff81163314610181576040517f08c379a000000000000000000000000000000000000000000000000000000000815260040161017890611b0b565b60405180910390fd5b7fffffffffffffffffffffffffffffffffffffffffffffffffffffffffffffffff600084846040516101b492919061199e565b90815260405190819003602001902055505050565b805160208183018101805160008252928201919093012091525481565b6040517f02cc250d00000000000000000000000000000000000000000000000000000000815273ffffffffffffffffffffffffffffffffffffffff7f000000000000000000000000000000000000000000000000000000000000000016906302cc250d906102589033906004016119ca565b60206040518083038186803b15801561027057600080fd5b505afa158015610284573d6000803e3d6000fd5b505050506040513d601f19601f820116820180604052508101906102a8919061188b565b6102de576040517f08c379a000000000000000000000000000000000000000000000000000000000815260040161017890611c55565b60006102ee8b8b8b8b8b8b6104c3565b6040517feaeecbb600000000000000000000000000000000000000000000000000000000815290915073ffffffffffffffffffffffffffffffffffffffff7f0000000000000000000000000000000000000000000000000000000000000000169063eaeecbb6906103639084906004016119eb565b600060405180830381600087803b15801561037d57600080fd5b505af1158015610391573d6000803e3d6000fd5b5050505061039f85856105df565b6103a881610614565b81156103e0576040517f08c379a000000000000000000000000000000000000000000000000000000000815260040161017890611b42565b5050505050505050505050565b7f000000000000000000000000000000000000000000000000000000000000000081565b7f000000000000000000000000000000000000000000000000000000000000000081565b60008080603884146104a857604080517f08c379a000000000000000000000000000000000000000000000000000000000815260206004820152601160248201527f475076323a20696e76616c696420756964000000000000000000000000000000604482015290519081900360640190fd5b5050823593602084013560601c936034013560e01c92509050565b606060006104d18484610648565b90508067ffffffffffffffff811180156104ea57600080fd5b5060405190808252806020026020018201604052801561052457816020015b610511611640565b8152602001906001900390816105095790505b50915061052f61166e565b60005b828110156105d2576105797f00000000000000000000000000000000000000000000000000000000000000008b8b8561056c8b8b886106c4565b90949093909290916106d2565b6105ca828989856020015160ff1681811061059057fe5b905060200201358a8a866040015160ff168181106105aa57fe5b905060200201358785815181106105bd57fe5b6020026020010151610af2565b600101610532565b5050509695505050505050565b6105e76116b3565b82825b801561060d576105fb828285610eae565b9150915061060883610f8f565b6105ea565b5050505050565b60005b81518110156106445761063c82828151811061062f57fe5b60200260200101516110a2565b600101610617565b5050565b600060ce8206156106ba57604080517f08c379a000000000000000000000000000000000000000000000000000000000815260206004820152601a60248201527f475076323a206d616c666f726d65642074726164652064617461000000000000604482015290519081900360640190fd5b5060ce9004919050565b60ce90810292909201929050565b8051600287013560408201526022870135606080830191909152604688013560e090811c60a0840152604a89013560c0840152606b89013591840191909152608b88013560f01c6080840152873560f890811c9260018a0135821c9260428b0135901c91606a8b0135811c9160cd8c013590911c90608d8c01359060ad8d0135908a8a8981811061075f57fe5b602002919091013573ffffffffffffffffffffffffffffffffffffffff168252508a8a60ff891681811061078f57fe5b6020908102929092013573ffffffffffffffffffffffffffffffffffffffff16918301919091525063ffffffff86166080820152600185166107f6577ff3b277728b3fee749481eb3e0b3b48980dbbab78658fc419025cb16eee34677560e082015261081d565b7f6ed88e868af0a1983e3886d5f3e95a2fafbd6c3450bc229e27342283dc429ccc60e08201525b60028516151561010082015260ff80891660208b015287166040808b019190915289517fffffffffffffffffffffffffffffffffffffffffffffffffffffffffffffffe00180517fb2b38b9dcbdeb41f7ad71dea9aed79fb47f7bbc3436576fe994b43d5b16ecdec82526101408220915290516000608087166108f8578e8360405160200180807f190100000000000000000000000000000000000000000000000000000000000081525060020183815260200182815260200192505050604051602081830303815290604052805190602001209050610952565b8e8360405160200180807f19457468657265756d205369676e6564204d6573736167653a0a363400000000815250601c01838152602001828152602001925050506040516020818303038152906040528051906020012090505b6040805160008082526020808301808552859052601f8b1683850152606083018a9052608083018990529251909260019260a0808201937fffffffffffffffffffffffffffffffffffffffffffffffffffffffffffffffe081019281900390910190855afa1580156109c8573d6000803e3d6000fd5b50506040517fffffffffffffffffffffffffffffffffffffffffffffffffffffffffffffffe0015191505073ffffffffffffffffffffffffffffffffffffffff8116610a7557604080517f08c379a000000000000000000000000000000000000000000000000000000000815260206004820152601760248201527f475076323a20696e76616c6964207369676e6174757265000000000000000000604482015290519081900360640190fd5b73ffffffffffffffffffffffffffffffffffffffff811660a08e0152604083905260c08d015151603814610ac657604080516038808252606082019092529060208201818036833750505060c08e01525b602060c08e0151018a601882015281601482015284815250505050505050505050505050505050505050565b835160808101514263ffffffff9091161015610b3a576040517f08c379a000000000000000000000000000000000000000000000000000000000815260040161017890611b79565b60a085015173ffffffffffffffffffffffffffffffffffffffff9081168352815181166020808501919091528201511660408301526060810151610b7e9084611159565b6040820151610b8d9086611159565b1015610bc5576040517f08c379a000000000000000000000000000000000000000000000000000000000815260040161017890611bb0565b6000806000807ff3b277728b3fee749481eb3e0b3b48980dbbab78658fc419025cb16eee3467758560e001511415610ccb5784610100015115610c3457886060015193508460400151610c25858760c0015161115990919063ffffffff16565b81610c2c57fe5b049150610c43565b846040015193508460c0015191505b86610c4e858a611159565b81610c5557fe5b049250610c868460008b60c00151604051610c7091906119ae565b90815260405190819003602001902054906111d5565b90508460400151811115610cc6576040517f08c379a000000000000000000000000000000000000000000000000000000000815260040161017890611c1e565b610d84565b84610100015115610d0857886060015192508460600151610cf9848760c0015161115990919063ffffffff16565b81610d0057fe5b049150610d17565b846060015192508460c0015191505b87610d228489611159565b81610d2957fe5b049350610d448360008b60c00151604051610c7091906119ae565b90508460600151811115610d84576040517f08c379a000000000000000000000000000000000000000000000000000000000815260040161017890611c1e565b612710896080015161ffff161115610dc8576040517f08c379a000000000000000000000000000000000000000000000000000000000815260040161017890611be7565b612710610dea8a6080015161ffff16612710038461115990919063ffffffff16565b81610df157fe5b049150610dfe84836111d5565b60608701526080860183905260c08901516040518291600091610e2191906119ae565b908152602001604051809103902081905550856000015173ffffffffffffffffffffffffffffffffffffffff167fa07a543ab8a018198e99ca0184c93fe9050a79400a0a723441f84de1d972cc178760200151886040015189606001518a60800151878f60c00151604051610e9b96959493929190611a7d565b60405180910390a2505050505050505050565b823560601c8152366000601485013560e81c6017810180861015610f3357604080517f08c379a000000000000000000000000000000000000000000000000000000000815260206004820152601960248201527f475076323a20696e76616c696420696e746572616374696f6e00000000000000604482015290519081900360640190fd5b604080516020601f85018190048102820181019092528381528289019550828803945060178901918491908390839081908401838280828437600092019190915250505050602090970196909652509296919550909350505050565b7f000000000000000000000000000000000000000000000000000000000000000073ffffffffffffffffffffffffffffffffffffffff16816000015173ffffffffffffffffffffffffffffffffffffffff161415611019576040517f08c379a000000000000000000000000000000000000000000000000000000000815260040161017890611c8c565b600080826000015173ffffffffffffffffffffffffffffffffffffffff16836020015160405161104991906119ae565b6000604051808303816000865af19150503d8060008114611086576040519150601f19603f3d011682016040523d82523d6000602084013e61108b565b606091505b50915091508161109d57805160208201fd5b505050565b604081015173ffffffffffffffffffffffffffffffffffffffff1673eeeeeeeeeeeeeeeeeeeeeeeeeeeeeeeeeeeeeeee1415611128578051608082015160405173ffffffffffffffffffffffffffffffffffffffff9092169181156108fc0291906000818181858888f19350505050158015611122573d6000803e3d6000fd5b50611156565b8051608082015160408301516111569273ffffffffffffffffffffffffffffffffffffffff90911691611249565b50565b600082611168575060006111cf565b8282028284828161117557fe5b04146111cc576040517f08c379a0000000000000000000000000000000000000000000000000000000008152600401808060200182810382526021815260200180611d1a6021913960400191505060405180910390fd5b90505b92915050565b6000828201838110156111cc57604080517f08c379a000000000000000000000000000000000000000000000000000000000815260206004820152601b60248201527f536166654d6174683a206164646974696f6e206f766572666c6f770000000000604482015290519081900360640190fd5b6040805173ffffffffffffffffffffffffffffffffffffffff8416602482015260448082018490528251808303909101815260649091019091526020810180517bffffffffffffffffffffffffffffffffffffffffffffffffffffffff167fa9059cbb0000000000000000000000000000000000000000000000000000000017905261109d9084906000611333826040518060400160405280602081526020017f5361666545524332303a206c6f772d6c6576656c2063616c6c206661696c65648152508573ffffffffffffffffffffffffffffffffffffffff166113a99092919063ffffffff16565b80519091501561109d5780806020019051602081101561135257600080fd5b505161109d576040517f08c379a000000000000000000000000000000000000000000000000000000000815260040180806020018281038252602a815260200180611d3b602a913960400191505060405180910390fd5b60606113b884846000856113c2565b90505b9392505050565b60608247101561141d576040517f08c379a0000000000000000000000000000000000000000000000000000000008152600401808060200182810382526026815260200180611cf46026913960400191505060405180910390fd5b6114268561157c565b61149157604080517f08c379a000000000000000000000000000000000000000000000000000000000815260206004820152601d60248201527f416464726573733a2063616c6c20746f206e6f6e2d636f6e7472616374000000604482015290519081900360640190fd5b6000808673ffffffffffffffffffffffffffffffffffffffff1685876040518082805190602001908083835b602083106114fa57805182527fffffffffffffffffffffffffffffffffffffffffffffffffffffffffffffffe090920191602091820191016114bd565b6001836020036101000a03801982511681845116808217855250505050505090500191505060006040518083038185875af1925050503d806000811461155c576040519150601f19603f3d011682016040523d82523d6000602084013e611561565b606091505b5091509150611571828286611582565b979650505050505050565b3b151590565b606083156115915750816113bb565b8251156115a15782518084602001fd5b816040517f08c379a00000000000000000000000000000000000000000000000000000000081526004018080602001828103825283818151815260200191508051906020019080838360005b838110156116055781810151838201526020016115ed565b50505050905090810190601f1680156116325780820380516001836020036101000a031916815260200191505b509250505060405180910390fd5b6040805160a08101825260008082526020820181905291810182905260608101829052608081019190915290565b6040518060e001604052806116816116cb565b81526000602082018190526040820181905260608083018290526080830182905260a083019190915260c09091015290565b60408051808201909152600081526060602082015290565b6040805161012081018252600080825260208201819052918101829052606081018290526080810182905260a0810182905260c0810182905260e0810182905261010081019190915290565b60008083601f840112611728578081fd5b50813567ffffffffffffffff81111561173f578182fd5b602083019150836020808302850101111561175957600080fd5b9250929050565b60008083601f840112611771578182fd5b50813567ffffffffffffffff811115611788578182fd5b60208301915083602082850101111561175957600080fd5b60008060008060008060008060008060a08b8d0312156117be578586fd5b8a3567ffffffffffffffff808211156117d5578788fd5b6117e18e838f01611717565b909c509a5060208d01359150808211156117f9578788fd5b6118058e838f01611717565b909a50985060408d013591508082111561181d578788fd5b6118298e838f01611760565b909850965060608d0135915080821115611841578586fd5b61184d8e838f01611760565b909650945060808d0135915080821115611865578384fd5b506118728d828e01611760565b915080935050809150509295989b9194979a5092959850565b60006020828403121561189c578081fd5b815180151581146111cc578182fd5b600080602083850312156118bd578182fd5b823567ffffffffffffffff8111156118d3578283fd5b6118df85828601611760565b90969095509350505050565b600060208083850312156118fd578182fd5b823567ffffffffffffffff80821115611914578384fd5b818501915085601f830112611927578384fd5b81358181111561193357fe5b604051847fffffffffffffffffffffffffffffffffffffffffffffffffffffffffffffffe0601f840116820101818110848211171561196e57fe5b6040528181528382018501881015611984578586fd5b818585018683013790810190930193909352509392505050565b6000828483379101908152919050565b600082516119c0818460208701611cc3565b9190910192915050565b73ffffffffffffffffffffffffffffffffffffffff91909116815260200190565b602080825282518282018190526000919060409081850190868401855b82811015611a67578151805173ffffffffffffffffffffffffffffffffffffffff908116865287820151811688870152868201511686860152606080820151908601526080908101519085015260a09093019290850190600101611a08565b5091979650505050505050565b90815260200190565b600073ffffffffffffffffffffffffffffffffffffffff808916835280881660208401525085604083015284606083015283608083015260c060a083015282518060c0840152611ad48160e0850160208701611cc3565b601f017fffffffffffffffffffffffffffffffffffffffffffffffffffffffffffffffe0169190910160e001979650505050505050565b6020808252601f908201527f475076323a2063616c6c657220646f6573206e6f74206f776e206f7264657200604082015260600190565b60208082526013908201527f6e6f742079657420696d706c656d656e74656400000000000000000000000000604082015260600190565b60208082526013908201527f475076323a206f72646572206578706972656400000000000000000000000000604082015260600190565b6020808252601f908201527f475076323a206c696d6974207072696365206e6f742072657370656374656400604082015260600190565b6020808252601a908201527f475076323a20696e76616c69642066656520646973636f756e74000000000000604082015260600190565b60208082526012908201527f475076323a206f726465722066696c6c65640000000000000000000000000000604082015260600190565b60208082526012908201527f475076323a206e6f74206120736f6c7665720000000000000000000000000000604082015260600190565b6020808252601b908201527f475076323a20666f7262696464656e20696e746572616374696f6e0000000000604082015260600190565b60005b83811015611cde578181015183820152602001611cc6565b83811115611ced576000848401525b5050505056fe416464726573733a20696e73756666696369656e742062616c616e636520666f722063616c6c536166654d6174683a206d756c7469706c69636174696f6e206f766572666c6f775361666545524332303a204552433230206f7065726174696f6e20646964206e6f742073756363656564a2646970667358221220d2a72d1d9048827982a78783455cb48b31b819d0fa7ce82a847eb483b541637364736f6c6343000706003360a060405234801561001057600080fd5b5033606081901b60805261065961003060003980605d52506106596000f3fe608060405234801561001057600080fd5b506004361061002b5760003560e01c8063eaeecbb614610030575b600080fd5b61004361003e36600461052c565b610045565b005b3373ffffffffffffffffffffffffffffffffffffffff7f000000000000000000000000000000000000000000000000000000000000000016146100bd576040517f08c379a00000000000000000000000000000000000000000000000000000000081526004016100b49061059c565b60405180910390fd5b60005b818110156100eb576100e38383838181106100d757fe5b905060a00201336100f0565b6001016100c0565b505050565b61011e73ffffffffffffffffffffffffffffffffffffffff6020840135811690843516836060860135610122565b5050565b6040805173ffffffffffffffffffffffffffffffffffffffff80861660248301528416604482015260648082018490528251808303909101815260849091019091526020810180517bffffffffffffffffffffffffffffffffffffffffffffffffffffffff167f23b872dd000000000000000000000000000000000000000000000000000000001790526101b79085906101bd565b50505050565b600061021f826040518060400160405280602081526020017f5361666545524332303a206c6f772d6c6576656c2063616c6c206661696c65648152508573ffffffffffffffffffffffffffffffffffffffff166102959092919063ffffffff16565b8051909150156100eb5780806020019051602081101561023e57600080fd5b50516100eb576040517f08c379a000000000000000000000000000000000000000000000000000000000815260040180806020018281038252602a8152602001806105fa602a913960400191505060405180910390fd5b60606102a484846000856102ae565b90505b9392505050565b606082471015610309576040517f08c379a00000000000000000000000000000000000000000000000000000000081526004018080602001828103825260268152602001806105d46026913960400191505060405180910390fd5b61031285610468565b61037d57604080517f08c379a000000000000000000000000000000000000000000000000000000000815260206004820152601d60248201527f416464726573733a2063616c6c20746f206e6f6e2d636f6e7472616374000000604482015290519081900360640190fd5b6000808673ffffffffffffffffffffffffffffffffffffffff1685876040518082805190602001908083835b602083106103e657805182527fffffffffffffffffffffffffffffffffffffffffffffffffffffffffffffffe090920191602091820191016103a9565b6001836020036101000a03801982511681845116808217855250505050505090500191505060006040518083038185875af1925050503d8060008114610448576040519150601f19603f3d011682016040523d82523d6000602084013e61044d565b606091505b509150915061045d82828661046e565b979650505050505050565b3b151590565b6060831561047d5750816102a7565b82511561048d5782518084602001fd5b816040517f08c379a00000000000000000000000000000000000000000000000000000000081526004018080602001828103825283818151815260200191508051906020019080838360005b838110156104f15781810151838201526020016104d9565b50505050905090810190601f16801561051e5780820380516001836020036101000a031916815260200191505b509250505060405180910390fd5b6000806020838503121561053e578182fd5b823567ffffffffffffffff80821115610555578384fd5b818501915085601f830112610568578384fd5b813581811115610576578485fd5b86602060a08302850101111561058a578485fd5b60209290920196919550909350505050565b6020808252601d908201527f475076323a206e6f7420616c6c6f77616e636520726563697069656e7400000060408201526060019056fe416464726573733a20696e73756666696369656e742062616c616e636520666f722063616c6c5361666545524332303a204552433230206f7065726174696f6e20646964206e6f742073756363656564a264697066735822122082c8a90e42d848dc453d40636dcab750cb813942c59794beb05101c72f6a6ccf64736f6c63430007060033",
  "devdoc": {
    "author": "Gnosis Developers",
    "events": {
      "Trade(address,address,address,uint256,uint256,uint256,bytes)": {
        "details": "Event emitted for each executed trade."
      }
    },
    "kind": "dev",
    "methods": {
      "invalidateOrder(bytes)": {
        "details": "Invalidate onchain an order that has been signed offline.",
        "params": {
          "orderUid": "The unique identifier of the order that is to be made invalid after calling this function. The user that created the order must be the the sender of this message. See [`extractOrderUidParams`] for details on orderUid."
        }
      },
      "settle(address[],uint256[],bytes,bytes,bytes)": {
        "details": "Settle the specified orders at a clearing price. Note that it is the responsibility of the caller to ensure that all GPv2 invariants are upheld for the input settlement, otherwise this call will revert. Namely: - The fee factor cannot lead to fees > 0.1% - All orders are valid and signed - Accounts have sufficient balance and approval. - Settlement contract has sufficient balance to execute trades. Note   this implies that the accumulated fees held in the contract can also   be used for settlement. This is OK since:   - Solvers need to be authorized   - Misbehaving solvers will be slashed for abusing accumulated fees for     settlement   - Critically, user orders are entirely protected Note that some parameters are encoded as packed bytes in order to save calldata gas. For more information on encoding format consult the [`GPv2Encoding`] library.",
        "params": {
          "clearingPrices": "An array of clearing prices where the `i`-th price is for the `i`-th token in the [`tokens`] array.",
          "encodedInteractions": "Encoded smart contract interactions.",
          "encodedOrderRefunds": "Encoded order refunds for clearing storage related to invalid orders.",
          "encodedTrades": "Encoded trades for signed EOA orders.",
          "tokens": "An array of ERC20 tokens to be traded in the settlement. Orders and interactions encode tokens as indices into this array."
        }
      }
    },
    "stateVariables": {
      "BPS_BASE": {
        "details": "The number of basis points to make up 100%."
      },
      "DOMAIN_NAME": {
        "details": "The EIP-712 domain name used for computing the domain separator."
      },
      "DOMAIN_TYPE_HASH": {
        "details": "The EIP-712 domain type hash used for computing the domain separator."
      },
      "DOMAIN_VERSION": {
        "details": "The EIP-712 domain version used for computing the domain separator."
      },
      "allowanceManager": {
        "details": "The allowance manager which has access to EOA order funds. This contract is created during deployment"
      },
      "authenticator": {
        "details": "The authenticator is used to determine who can call the settle function. That is, only authorised solvers have the ability to invoke settlements. Any valid authenticator implements an isSolver method called by the onlySolver modifier below."
      },
      "domainSeparator": {
        "details": "The domain separator used for signing orders that gets mixed in making signatures for different domains incompatible. This domain separator is computed following the EIP-712 standard and has replay protection mixed in so that signed orders are only valid for specific GPv2 contracts."
      },
      "filledAmount": {
        "details": "Map each user order by UID to the amount that has been filled so far. If this amount is larger than or equal to the amount traded in the order (amount sold for sell orders, amount bought for buy orders) then the order cannot be traded anymore. If the order is fill or kill, then this value is only used to determine whether the order has already been executed."
      }
    },
    "title": "Gnosis Protocol v2 Settlement Contract",
    "version": 1
  },
  "userdoc": {
    "kind": "user",
    "methods": {},
    "version": 1
  },
  "storageLayout": {
    "storage": [
      {
        "astId": 1700,
        "contract": "src/contracts/GPv2Settlement.sol:GPv2Settlement",
        "label": "filledAmount",
        "offset": 0,
        "slot": "0",
        "type": "t_mapping(t_bytes_memory_ptr,t_uint256)"
      }
    ],
    "types": {
      "t_bytes_memory_ptr": {
        "encoding": "bytes",
        "label": "bytes",
        "numberOfBytes": "32"
      },
      "t_mapping(t_bytes_memory_ptr,t_uint256)": {
        "encoding": "mapping",
        "key": "t_bytes_memory_ptr",
        "label": "mapping(bytes => uint256)",
        "numberOfBytes": "32",
        "value": "t_uint256"
      },
      "t_uint256": {
        "encoding": "inplace",
        "label": "uint256",
        "numberOfBytes": "32"
      }
    }
  }
}