{
  "address": "0x8B63DeF1214563DBed4576B569F7d5e9f7aaa677",
  "abi": [
    {
      "inputs": [
        {
          "internalType": "contract GPv2Authentication",
          "name": "authenticator_",
          "type": "address"
        }
      ],
      "stateMutability": "nonpayable",
      "type": "constructor"
    },
    {
      "anonymous": false,
      "inputs": [
        {
          "indexed": true,
          "internalType": "address",
          "name": "target",
          "type": "address"
        },
        {
          "indexed": false,
          "internalType": "uint256",
          "name": "value",
          "type": "uint256"
        },
        {
          "indexed": false,
          "internalType": "bytes4",
          "name": "selector",
          "type": "bytes4"
        }
      ],
      "name": "Interaction",
      "type": "event"
    },
    {
      "anonymous": false,
      "inputs": [
        {
          "indexed": true,
          "internalType": "address",
          "name": "owner",
          "type": "address"
        },
        {
          "indexed": false,
          "internalType": "bytes",
          "name": "orderUid",
          "type": "bytes"
        }
      ],
      "name": "OrderInvalidated",
      "type": "event"
    },
    {
      "anonymous": false,
      "inputs": [
        {
          "indexed": true,
          "internalType": "address",
          "name": "solver",
          "type": "address"
        }
      ],
      "name": "Settlement",
      "type": "event"
    },
    {
      "anonymous": false,
      "inputs": [
        {
          "indexed": true,
          "internalType": "address",
          "name": "owner",
          "type": "address"
        },
        {
          "indexed": false,
          "internalType": "contract IERC20",
          "name": "sellToken",
          "type": "address"
        },
        {
          "indexed": false,
          "internalType": "contract IERC20",
          "name": "buyToken",
          "type": "address"
        },
        {
          "indexed": false,
          "internalType": "uint256",
          "name": "sellAmount",
          "type": "uint256"
        },
        {
          "indexed": false,
          "internalType": "uint256",
          "name": "buyAmount",
          "type": "uint256"
        },
        {
          "indexed": false,
          "internalType": "uint256",
          "name": "feeAmount",
          "type": "uint256"
        },
        {
          "indexed": false,
          "internalType": "bytes",
          "name": "orderUid",
          "type": "bytes"
        }
      ],
      "name": "Trade",
      "type": "event"
    },
    {
      "inputs": [],
      "name": "SIMULATE_DELEGATECALL_INTERNAL_SELECTOR",
      "outputs": [
        {
          "internalType": "bytes4",
          "name": "",
          "type": "bytes4"
        }
      ],
      "stateMutability": "view",
      "type": "function"
    },
    {
      "inputs": [],
      "name": "allowanceManager",
      "outputs": [
        {
          "internalType": "contract GPv2AllowanceManager",
          "name": "",
          "type": "address"
        }
      ],
      "stateMutability": "view",
      "type": "function"
    },
    {
      "inputs": [],
      "name": "authenticator",
      "outputs": [
        {
          "internalType": "contract GPv2Authentication",
          "name": "",
          "type": "address"
        }
      ],
      "stateMutability": "view",
      "type": "function"
    },
    {
      "inputs": [],
      "name": "domainSeparator",
      "outputs": [
        {
          "internalType": "bytes32",
          "name": "",
          "type": "bytes32"
        }
      ],
      "stateMutability": "view",
      "type": "function"
    },
    {
      "inputs": [
        {
          "internalType": "bytes",
          "name": "",
          "type": "bytes"
        }
      ],
      "name": "filledAmount",
      "outputs": [
        {
          "internalType": "uint256",
          "name": "",
          "type": "uint256"
        }
      ],
      "stateMutability": "view",
      "type": "function"
    },
    {
      "inputs": [
        {
          "internalType": "uint256",
          "name": "offset",
          "type": "uint256"
        },
        {
          "internalType": "uint256",
          "name": "length",
          "type": "uint256"
        }
      ],
      "name": "getStorageAt",
      "outputs": [
        {
          "internalType": "bytes",
          "name": "",
          "type": "bytes"
        }
      ],
      "stateMutability": "view",
      "type": "function"
    },
    {
      "inputs": [
        {
          "internalType": "bytes",
          "name": "orderUid",
          "type": "bytes"
        }
      ],
      "name": "invalidateOrder",
      "outputs": [],
      "stateMutability": "nonpayable",
      "type": "function"
    },
    {
      "inputs": [
        {
          "internalType": "bytes",
          "name": "",
          "type": "bytes"
        }
      ],
      "name": "preSignature",
      "outputs": [
        {
          "internalType": "uint256",
          "name": "",
          "type": "uint256"
        }
      ],
      "stateMutability": "view",
      "type": "function"
    },
    {
      "inputs": [
        {
          "internalType": "bytes",
          "name": "response",
          "type": "bytes"
        }
      ],
      "name": "revertWith",
      "outputs": [],
      "stateMutability": "pure",
      "type": "function"
    },
    {
      "inputs": [
        {
          "internalType": "bytes",
          "name": "buffer",
          "type": "bytes"
        },
        {
          "internalType": "uint256",
          "name": "length",
          "type": "uint256"
        }
      ],
      "name": "setLength",
      "outputs": [],
      "stateMutability": "pure",
      "type": "function"
    },
    {
      "inputs": [
        {
          "internalType": "bytes",
          "name": "orderUid",
          "type": "bytes"
        },
        {
          "internalType": "bool",
          "name": "signed",
          "type": "bool"
        }
      ],
      "name": "setPreSignature",
      "outputs": [],
      "stateMutability": "nonpayable",
      "type": "function"
    },
    {
      "inputs": [
        {
          "internalType": "contract IERC20[]",
          "name": "tokens",
          "type": "address[]"
        },
        {
          "internalType": "uint256[]",
          "name": "clearingPrices",
          "type": "uint256[]"
        },
        {
          "components": [
            {
              "internalType": "uint256",
              "name": "sellTokenIndex",
              "type": "uint256"
            },
            {
              "internalType": "uint256",
              "name": "buyTokenIndex",
              "type": "uint256"
            },
            {
              "internalType": "address",
              "name": "receiver",
              "type": "address"
            },
            {
              "internalType": "uint256",
              "name": "sellAmount",
              "type": "uint256"
            },
            {
              "internalType": "uint256",
              "name": "buyAmount",
              "type": "uint256"
            },
            {
              "internalType": "uint32",
              "name": "validTo",
              "type": "uint32"
            },
            {
              "internalType": "bytes32",
              "name": "appData",
              "type": "bytes32"
            },
            {
              "internalType": "uint256",
              "name": "feeAmount",
              "type": "uint256"
            },
            {
              "internalType": "uint256",
              "name": "flags",
              "type": "uint256"
            },
            {
              "internalType": "uint256",
              "name": "executedAmount",
              "type": "uint256"
            },
            {
              "internalType": "uint256",
              "name": "feeDiscount",
              "type": "uint256"
            },
            {
              "internalType": "bytes",
              "name": "signature",
              "type": "bytes"
            }
          ],
          "internalType": "struct GPv2Trade.Data[]",
          "name": "trades",
          "type": "tuple[]"
        },
        {
          "components": [
            {
              "internalType": "address",
              "name": "target",
              "type": "address"
            },
            {
              "internalType": "uint256",
              "name": "value",
              "type": "uint256"
            },
            {
              "internalType": "bytes",
              "name": "callData",
              "type": "bytes"
            }
          ],
          "internalType": "struct GPv2Interaction.Data[][3]",
          "name": "interactions",
          "type": "tuple[][3]"
        },
        {
          "components": [
            {
              "internalType": "bytes[]",
              "name": "filledAmounts",
              "type": "bytes[]"
            },
            {
              "internalType": "bytes[]",
              "name": "preSignatures",
              "type": "bytes[]"
            }
          ],
          "internalType": "struct GPv2Settlement.OrderRefunds",
          "name": "orderRefunds",
          "type": "tuple"
        }
      ],
      "name": "settle",
      "outputs": [],
      "stateMutability": "nonpayable",
      "type": "function"
    },
    {
      "inputs": [
        {
          "internalType": "address",
          "name": "targetContract",
          "type": "address"
        },
        {
          "internalType": "bytes",
          "name": "calldataPayload",
          "type": "bytes"
        }
      ],
      "name": "simulateDelegatecall",
      "outputs": [
        {
          "internalType": "bytes",
          "name": "response",
          "type": "bytes"
        }
      ],
      "stateMutability": "nonpayable",
      "type": "function"
    },
    {
      "inputs": [
        {
          "internalType": "address",
          "name": "targetContract",
          "type": "address"
        },
        {
          "internalType": "bytes",
          "name": "calldataPayload",
          "type": "bytes"
        }
      ],
      "name": "simulateDelegatecallInternal",
      "outputs": [
        {
          "internalType": "bytes",
          "name": "response",
          "type": "bytes"
        }
      ],
      "stateMutability": "nonpayable",
      "type": "function"
    },
    {
      "stateMutability": "payable",
      "type": "receive"
    }
  ],
  "transactionHash": "0x9414074a00d8e1ea5df73235e190b361a0ac05a372117983d9a02f4a1ff967c1",
  "args": [
    "0xD368E836f0548678Bd46D8Bb3183f25ef476D75d"
  ],
  "solcInputHash": "712c481058f897c71953a39a13fda8af",
  "bytecode": "0x60e06040523480156200001157600080fd5b506040516200332638038062003326833981016040819052620000349162000146565b604080517f8b73c3c69bb8fe3d512ecc4cf759cc79239f7b179b0ffacaa9a75d522b39400f6020808301919091527f6c85c0337eba1661327f94f3bf46c8a7f9311a563f4d5c948362567f5d8ed60c828401527ff9446b8e937d86f0bc87cac73923491692b123ca5f8761908494703758206adf606080840191909152466080808501919091523060a08086019190915285518086038201815260c09095019586905284519490930193909320909252600180559083901b6001600160601b0319169052620001039062000138565b604051809103906000f08015801562000120573d6000803e3d6000fd5b5060601b6001600160601b03191660c0525062000176565b6104d18062002e5583390190565b60006020828403121562000158578081fd5b81516001600160a01b03811681146200016f578182fd5b9392505050565b60805160a05160601c60c05160601c612c98620001bd6000398061062352806108205280610d825250806103c452806106f9525080610a2d52806117265250612c986000f3fe6080604052600436106100e15760003560e01c806365906ca31161007f578063d08d33d111610059578063d08d33d11461024b578063ec6cb13f1461026b578063f698da251461028b578063f84436bd146102a0576100e8565b806365906ca3146101f6578063c4b1e4fb14610216578063cd65ea871461022b576100e8565b80633a1b407a116100bb5780633a1b407a1461016757806343218e191461018957806352b8dfc5146101b65780635624b25b146101d6576100e8565b806315337bc0146100ed5780632335c76b1461010f5780632479fb6e1461013a576100e8565b366100e857005b600080fd5b3480156100f957600080fd5b5061010d61010836600461254e565b6102c0565b005b34801561011b57600080fd5b506101246103c2565b60405161013191906126f0565b60405180910390f35b34801561014657600080fd5b5061015a6101553660046125e3565b6103e6565b60405161013191906127a8565b34801561017357600080fd5b5061017c610403565b60405161013191906127b1565b34801561019557600080fd5b506101a96101a436600461240a565b610427565b604051610131919061282b565b3480156101c257600080fd5b5061010d6101d1366004612616565b61059f565b3480156101e257600080fd5b506101a96101f1366004612659565b6105a3565b34801561020257600080fd5b5061010d6102113660046125e3565b610619565b34801561022257600080fd5b50610124610621565b34801561023757600080fd5b5061010d610246366004612456565b610645565b34801561025757600080fd5b5061015a6102663660046125e3565b6108ee565b34801561027757600080fd5b5061010d61028636600461258e565b61090b565b34801561029757600080fd5b5061015a610a2b565b3480156102ac57600080fd5b506101a96102bb36600461240a565b610a4f565b60006102cc8383610cb1565b5091505073ffffffffffffffffffffffffffffffffffffffff81163314610328576040517f08c379a000000000000000000000000000000000000000000000000000000000815260040161031f90612895565b60405180910390fd5b7fffffffffffffffffffffffffffffffffffffffffffffffffffffffffffffffff6002848460405161035b9291906126c4565b9081526020016040518091039020819055508073ffffffffffffffffffffffffffffffffffffffff167f875b6cb035bbd4ac6500fabc6d1e4ca5bdc58a3e2b424ccb5c24cdbebeb009a984846040516103b59291906127de565b60405180910390a2505050565b7f000000000000000000000000000000000000000000000000000000000000000081565b805160208183018101805160028252928201919093012091525481565b7f43218e198a5f5c70ca65adf1973b6285a79c4d29a39cc2a8bb67b912f447dc6481565b606060008373ffffffffffffffffffffffffffffffffffffffff16836040518082805190602001908083835b6020831061049057805182527fffffffffffffffffffffffffffffffffffffffffffffffffffffffffffffffe09092019160209182019101610453565b6001836020036101000a038019825116818451168082178552505050505050905001915050600060405180830381855af49150503d80600081146104f0576040519150601f19603f3d011682016040523d82523d6000602084013e6104f5565b606091505b50809350819250505061059882826040516020018083805190602001908083835b6020831061055357805182527fffffffffffffffffffffffffffffffffffffffffffffffffffffffffffffffe09092019160209182019101610516565b6001836020036101000a03801982511681845116808217855250505050505090500182151560f81b815260010192505050604051602081830303815290604052610619565b5092915050565b9052565b606060008260200267ffffffffffffffff811180156105c157600080fd5b506040519080825280601f01601f1916602001820160405280156105ec576020820181803683370190505b50905060005b8381101561060f57848101546020808302840101526001016105f2565b5090505b92915050565b805160208201fd5b7f000000000000000000000000000000000000000000000000000000000000000081565b600260015414156106b757604080517f08c379a000000000000000000000000000000000000000000000000000000000815260206004820152601f60248201527f5265656e7472616e637947756172643a207265656e7472616e742063616c6c00604482015290519081900360640190fd5b60026001556040517f02cc250d00000000000000000000000000000000000000000000000000000000815273ffffffffffffffffffffffffffffffffffffffff7f000000000000000000000000000000000000000000000000000000000000000016906302cc250d9061072e9033906004016126f0565b60206040518083038186803b15801561074657600080fd5b505afa15801561075a573d6000803e3d6000fd5b505050506040513d601f19601f8201168201806040525081019061077e9190612532565b6107b4576040517f08c379a000000000000000000000000000000000000000000000000000000000815260040161031f906129df565b6107d08260005b6020028101906107cb9190612ae2565b610d3f565b60006107e0898989898989610e76565b6040517faef733d700000000000000000000000000000000000000000000000000000000815290915073ffffffffffffffffffffffffffffffffffffffff7f0000000000000000000000000000000000000000000000000000000000000000169063aef733d790610855908490600401612711565b600060405180830381600087803b15801561086f57600080fd5b505af1158015610883573d6000803e3d6000fd5b50505050610897836001600381106107bb57fe5b6108a081610f79565b6108ab8360026107bb565b6108b482610fad565b60405133907f40338ce1a7c49204f0099533b1e9a7ee0a3d261f84974ab7af36105b8c4e9db490600090a250506001805550505050505050565b805160208183018101805160008252928201919093012091525481565b60006109178484610cb1565b5091505073ffffffffffffffffffffffffffffffffffffffff8116331461099f57604080517f08c379a000000000000000000000000000000000000000000000000000000000815260206004820152601a60248201527f475076323a2063616e6e6f74207072657369676e206f72646572000000000000604482015290519081900360640190fd5b81156109f9577ff59c009283ff87aa78203fc4d9c2df025ee851130fb69cc3e068941f6b5e2d6f60001c60008585604051808383808284378083019250505092505050908152602001604051809103902081905550610a25565b600080858560405180838380828437919091019485525050604051928390036020019092209290925550505b50505050565b7f000000000000000000000000000000000000000000000000000000000000000081565b606060007f43218e198a5f5c70ca65adf1973b6285a79c4d29a39cc2a8bb67b912f447dc648484604051602401808373ffffffffffffffffffffffffffffffffffffffff16815260200180602001828103825283818151815260200191508051906020019080838360005b83811015610ad2578181015183820152602001610aba565b50505050905090810190601f168015610aff5780820380516001836020036101000a031916815260200191505b50604080517fffffffffffffffffffffffffffffffffffffffffffffffffffffffffffffffe08184030181529181526020820180517bffffffffffffffffffffffffffffffffffffffffffffffffffffffff167fffffffff00000000000000000000000000000000000000000000000000000000909816979097178752518151919750309688965090945084935091508083835b60208310610bd057805182527fffffffffffffffffffffffffffffffffffffffffffffffffffffffffffffffe09092019160209182019101610b93565b6001836020036101000a0380198251168184511680821785525050505050509050019150506000604051808303816000865af19150503d8060008114610c32576040519150601f19603f3d011682016040523d82523d6000602084013e610c37565b606091505b50905080925050600082600184510381518110610c5057fe5b602001015160f81c60f81b7effffffffffffffffffffffffffffffffffffffffffffffffffffffffffffff1916600160f81b149050610c9383600185510361059f565b8015610ca0575050610613565b610ca983610619565b505092915050565b6000808060388414610d2457604080517f08c379a000000000000000000000000000000000000000000000000000000000815260206004820152601160248201527f475076323a20696e76616c696420756964000000000000000000000000000000604482015290519081900360640190fd5b5050823593602084013560601c936034013560e01c92509050565b3660005b82811015610a2557838382818110610d5757fe5b9050602002810190610d699190612b79565b915073ffffffffffffffffffffffffffffffffffffffff7f000000000000000000000000000000000000000000000000000000000000000016610daf60208401846123f0565b73ffffffffffffffffffffffffffffffffffffffff161415610dfd576040517f08c379a000000000000000000000000000000000000000000000000000000000815260040161031f90612a16565b610e0682610fdb565b610e1360208301836123f0565b73ffffffffffffffffffffffffffffffffffffffff167fed99827efb37016f2275f98c4bcf71c7551c75d59e9b450f79fa32e60be672c28360200135610e5885611075565b604051610e66929190612a4d565b60405180910390a2600101610d43565b60606000610e8261109f565b90508267ffffffffffffffff81118015610e9b57600080fd5b50604051908082528060200260200182016040528015610ed557816020015b610ec26121d3565b815260200190600190039081610eba5790505b50915060005b83811015610f6d5736858583818110610ef057fe5b9050602002810190610f029190612bac565b9050610f10838b8b846110cc565b610f648389898435818110610f2157fe5b905060200201358a8a8560200135818110610f3857fe5b90506020020135846101200135856101400135898881518110610f5757fe5b6020026020010151611143565b50600101610edb565b50509695505050505050565b60005b8151811015610fa957610fa1828281518110610f9457fe5b60200260200101516114be565b600101610f7c565b5050565b610fc1610fba8280612a7d565b6002611597565b610fd8610fd16020830183612a7d565b6000611597565b50565b60008073ffffffffffffffffffffffffffffffffffffffff83351660208401356110086040860186612b16565b604051808383808284376040519201945060009350909150508083038185875af1925050503d8060008114611059576040519150601f19603f3d011682016040523d82523d6000602084013e61105e565b606091505b50915091508161107057805160208201fd5b505050565b600036816110866040850185612b16565b90925090506004811061109857813592505b5050919050565b6110a7612208565b6040805160388082526060820190925290602082018180368337505050602082015290565b835160006110dc83868685611647565b90506000806110f984846110f4610160890189612b16565b61171d565b9150915061111c82828660a001518b602001516117e0909392919063ffffffff16565b73ffffffffffffffffffffffffffffffffffffffff16604090970196909652505050505050565b8551602087015160a08201514263ffffffff9091161015611190576040517f08c379a000000000000000000000000000000000000000000000000000000000815260040161031f906128cc565b60408089015173ffffffffffffffffffffffffffffffffffffffff908116855283820151811660208087019190915284518216928601929092529083015116606084015260808201516111e39087611862565b60608301516111f29089611862565b101561122a576040517f08c379a000000000000000000000000000000000000000000000000000000000815260040161031f9061293a565b6000806000807ff3b277728b3fee749481eb3e0b3b48980dbbab78658fc419025cb16eee3467758661010001511415611321578561012001511561128e57606086015160e08701518a955061127f9086611862565b8161128657fe5b04915061129d565b856060015193508560e0015191505b896112a8858d611862565b816112af57fe5b0492506112dc846002876040516112c691906126d4565b90815260405190819003602001902054906118dc565b9050856060015181111561131c576040517f08c379a000000000000000000000000000000000000000000000000000000000815260040161031f90612971565b6113ca565b8561012001511561135257608086015160e08701518a94506113439085611862565b8161134a57fe5b049150611361565b856080015192508560e0015191505b8a61136c848c611862565b8161137357fe5b04935061138a836002876040516112c691906126d4565b905085608001518111156113ca576040517f08c379a000000000000000000000000000000000000000000000000000000000815260040161031f90612971565b81881115611404576040517f08c379a000000000000000000000000000000000000000000000000000000000815260040161031f90612903565b908790039061141384836118dc565b608088015260a0870183905260405181906002906114329088906126d4565b908152602001604051809103902081905550866000015173ffffffffffffffffffffffffffffffffffffffff167fa07a543ab8a018198e99ca0184c93fe9050a79400a0a723441f84de1d972cc17886040015189606001518a608001518b60a00151878b6040516114a89695949392919061283e565b60405180910390a2505050505050505050505050565b602081015173ffffffffffffffffffffffffffffffffffffffff81166114e2575080515b606082015173ffffffffffffffffffffffffffffffffffffffff1673eeeeeeeeeeeeeeeeeeeeeeeeeeeeeeeeeeeeeeee14156115645760a082015160405173ffffffffffffffffffffffffffffffffffffffff83169180156108fc02916000818181858888f1935050505015801561155e573d6000803e3d6000fd5b50610fa9565b610fa9818360a00151846060015173ffffffffffffffffffffffffffffffffffffffff166119509092919063ffffffff16565b60005b82811015610a25573660008585848181106115b157fe5b90506020028101906115c39190612b16565b9150915060006115d38383610cb1565b92505050428163ffffffff1610611616576040517f08c379a000000000000000000000000000000000000000000000000000000000815260040161031f906129a8565b60008584846040516116299291906126c4565b9081526040519081900360200190205550506001909101905061159a565b60008383863581811061165657fe5b6020908102929092013573ffffffffffffffffffffffffffffffffffffffff168452508490849087013581811061168957fe5b73ffffffffffffffffffffffffffffffffffffffff602091820293909301358316908501525060408087013590911690830152606080860135908301526080808601359083015263ffffffff60a080870135919091169083015260c0808601359083015260e080860135908301526117056101008601356119dd565b90151561012085015261010090930152509392505050565b60008061174a867f0000000000000000000000000000000000000000000000000000000000000000611a54565b9150600085600381111561175a57fe5b14156117725761176b828585611ade565b90506117d7565b600185600381111561178057fe5b14156117915761176b828585611af3565b600285600381111561179f57fe5b14156117b05761176b828585611b5b565b60038560038111156117be57fe5b14156117d7576117d48285858960a00151611cf9565b90505b94509492505050565b603884511461185057604080517f08c379a000000000000000000000000000000000000000000000000000000000815260206004820152601960248201527f475076323a2075696420627566666572206f766572666c6f7700000000000000604482015290519081900360640190fd5b60388401526034830152602090910152565b60008261187157506000610613565b8282028284828161187e57fe5b04146118d5576040517f08c379a0000000000000000000000000000000000000000000000000000000008152600401808060200182810382526021815260200180612c426021913960400191505060405180910390fd5b9392505050565b6000828201838110156118d557604080517f08c379a000000000000000000000000000000000000000000000000000000000815260206004820152601b60248201527f536166654d6174683a206164646974696f6e206f766572666c6f770000000000604482015290519081900360640190fd5b6040805173ffffffffffffffffffffffffffffffffffffffff8416602482015260448082018490528251808303909101815260649091019091526020810180517bffffffffffffffffffffffffffffffffffffffffffffffffffffffff167fa9059cbb00000000000000000000000000000000000000000000000000000000179052611070908490611ebe565b6000808060018416611a11577ff3b277728b3fee749481eb3e0b3b48980dbbab78658fc419025cb16eee3467759250611a35565b7f6ed88e868af0a1983e3886d5f3e95a2fafbd6c3450bc229e27342283dc429ccc92505b60028085161515925084901c6003811115611a4c57fe5b929491935050565b7fffffffffffffffffffffffffffffffffffffffffffffffffffffffffffffffe090910180517fd604be04a8c6d2df582ec82eba9b65ce714008acbf9122dd95e499569c8f1a808252610160822091526040517f19010000000000000000000000000000000000000000000000000000000000008152600281019290925260228201526042902090565b6000611aeb848484612028565b949350505050565b6000808460405160200180807f19457468657265756d205369676e6564204d6573736167653a0a333200000000815250601c01828152602001915050604051602081830303815290604052805190602001209050611b52818585612028565b95945050505050565b813560601c366000611b708460148188612bdf565b604080517f1626ba7e00000000000000000000000000000000000000000000000000000000808252600482018b81526024830193845260448301859052949650929450919273ffffffffffffffffffffffffffffffffffffffff871692631626ba7e928b928892889290606401848480828437600083820152604051601f9091017fffffffffffffffffffffffffffffffffffffffffffffffffffffffffffffffe016909201965060209550909350505081840390508186803b158015611c3657600080fd5b505afa158015611c4a573d6000803e3d6000fd5b505050506040513d6020811015611c6057600080fd5b50517fffffffff000000000000000000000000000000000000000000000000000000001614611cf057604080517f08c379a000000000000000000000000000000000000000000000000000000000815260206004820152601f60248201527f475076323a20696e76616c69642065697031323731207369676e617475726500604482015290519081900360640190fd5b50509392505050565b600060148314611d6a57604080517f08c379a000000000000000000000000000000000000000000000000000000000815260206004820152601c60248201527f475076323a206d616c666f726d6564207072657369676e617475726500000000604482015290519081900360640190fd5b506040805160388082526060828101909352853590921c9160009190602082018180368337019050509050611da1818784866117e0565b7ff59c009283ff87aa78203fc4d9c2df025ee851130fb69cc3e068941f6b5e2d6f60001c6000826040518082805190602001908083835b60208310611e1557805182527fffffffffffffffffffffffffffffffffffffffffffffffffffffffffffffffe09092019160209182019101611dd8565b6001836020036101000a03801982511681845116808217855250505050505090500191505090815260200160405180910390205414611eb557604080517f08c379a000000000000000000000000000000000000000000000000000000000815260206004820152601960248201527f475076323a206f72646572206e6f74207072657369676e656400000000000000604482015290519081900360640190fd5b50949350505050565b6000808373ffffffffffffffffffffffffffffffffffffffff16836040518082805190602001908083835b60208310611f2657805182527fffffffffffffffffffffffffffffffffffffffffffffffffffffffffffffffe09092019160209182019101611ee9565b6001836020036101000a0380198251168184511680821785525050505050509050019150506000604051808303816000865af19150503d8060008114611f88576040519150601f19603f3d011682016040523d82523d6000602084013e611f8d565b606091505b509150915081611f9f57805160208201fd5b805115610a2557808060200190516020811015611fbb57600080fd5b5051610a2557604080517f08c379a000000000000000000000000000000000000000000000000000000000815260206004820152601e60248201527f475076325361666545524332303a206661696c6564207472616e736665720000604482015290519081900360640190fd5b60006041821461209957604080517f08c379a000000000000000000000000000000000000000000000000000000000815260206004820152601f60248201527f475076323a206d616c666f726d6564206563647361207369676e617475726500604482015290519081900360640190fd5b604080516000815260208181018084528790528286013560f81c82840181905286356060840181905282880135608085018190529451909493919260019260a0808201937fffffffffffffffffffffffffffffffffffffffffffffffffffffffffffffffe081019281900390910190855afa15801561211c573d6000803e3d6000fd5b50506040517fffffffffffffffffffffffffffffffffffffffffffffffffffffffffffffffe0015194505073ffffffffffffffffffffffffffffffffffffffff84166121c957604080517f08c379a000000000000000000000000000000000000000000000000000000000815260206004820152601d60248201527f475076323a20696e76616c6964206563647361207369676e6174757265000000604482015290519081900360640190fd5b5050509392505050565b6040805160c081018252600080825260208201819052918101829052606081018290526080810182905260a081019190915290565b604051806060016040528061221b61222f565b815260606020820152600060409091015290565b6040805161014081018252600080825260208201819052918101829052606081018290526080810182905260a0810182905260c0810182905260e08101829052610100810182905261012081019190915290565b803573ffffffffffffffffffffffffffffffffffffffff811681146122a757600080fd5b919050565b806060810183101561061357600080fd5b60008083601f8401126122ce578182fd5b50813567ffffffffffffffff8111156122e5578182fd5b60208301915083602080830285010111156122ff57600080fd5b9250929050565b60008083601f840112612317578182fd5b50813567ffffffffffffffff81111561232e578182fd5b6020830191508360208285010111156122ff57600080fd5b600082601f830112612356578081fd5b813567ffffffffffffffff8082111561236b57fe5b60405160207fffffffffffffffffffffffffffffffffffffffffffffffffffffffffffffffe0601f85011682010181811083821117156123a757fe5b6040528281528483016020018610156123be578384fd5b82602086016020830137918201602001929092529392505050565b6000604082840312156123ea578081fd5b50919050565b600060208284031215612401578081fd5b6118d582612283565b6000806040838503121561241c578081fd5b61242583612283565b9150602083013567ffffffffffffffff811115612440578182fd5b61244c85828601612346565b9150509250929050565b60008060008060008060008060a0898b031215612471578384fd5b883567ffffffffffffffff80821115612488578586fd5b6124948c838d016122bd565b909a50985060208b01359150808211156124ac578586fd5b6124b88c838d016122bd565b909850965060408b01359150808211156124d0578586fd5b6124dc8c838d016122bd565b909650945060608b01359150808211156124f4578384fd5b6125008c838d016122ac565b935060808b0135915080821115612515578283fd5b506125228b828c016123d9565b9150509295985092959890939650565b600060208284031215612543578081fd5b81516118d581612c33565b60008060208385031215612560578182fd5b823567ffffffffffffffff811115612576578283fd5b61258285828601612306565b90969095509350505050565b6000806000604084860312156125a2578283fd5b833567ffffffffffffffff8111156125b8578384fd5b6125c486828701612306565b90945092505060208401356125d881612c33565b809150509250925092565b6000602082840312156125f4578081fd5b813567ffffffffffffffff81111561260a578182fd5b611aeb84828501612346565b60008060408385031215612628578182fd5b823567ffffffffffffffff81111561263e578283fd5b61264a85828601612346565b95602094909401359450505050565b6000806040838503121561266b578182fd5b50508035926020909101359150565b60008151808452612692816020860160208601612c07565b601f017fffffffffffffffffffffffffffffffffffffffffffffffffffffffffffffffe0169290920160200192915050565b6000828483379101908152919050565b600082516126e6818460208701612c07565b9190910192915050565b73ffffffffffffffffffffffffffffffffffffffff91909116815260200190565b602080825282518282018190526000919060409081850190868401855b8281101561279b578151805173ffffffffffffffffffffffffffffffffffffffff90811686528782015181168887015286820151811687870152606080830151909116908601526080808201519086015260a0908101519085015260c0909301929085019060010161272e565b5091979650505050505050565b90815260200190565b7fffffffff0000000000000000000000000000000000000000000000000000000091909116815260200190565b60006020825282602083015282846040840137818301604090810191909152601f9092017fffffffffffffffffffffffffffffffffffffffffffffffffffffffffffffffe0160101919050565b6000602082526118d5602083018461267a565b600073ffffffffffffffffffffffffffffffffffffffff808916835280881660208401525085604083015284606083015283608083015260c060a083015261288960c083018461267a565b98975050505050505050565b6020808252601f908201527f475076323a2063616c6c657220646f6573206e6f74206f776e206f7264657200604082015260600190565b60208082526013908201527f475076323a206f72646572206578706972656400000000000000000000000000604082015260600190565b6020808252601c908201527f475076323a2066656520646973636f756e7420746f6f206c6172676500000000604082015260600190565b6020808252601f908201527f475076323a206c696d6974207072696365206e6f742072657370656374656400604082015260600190565b60208082526012908201527f475076323a206f726465722066696c6c65640000000000000000000000000000604082015260600190565b60208082526017908201527f475076323a206f72646572207374696c6c2076616c6964000000000000000000604082015260600190565b60208082526012908201527f475076323a206e6f74206120736f6c7665720000000000000000000000000000604082015260600190565b6020808252601b908201527f475076323a20666f7262696464656e20696e746572616374696f6e0000000000604082015260600190565b9182527fffffffff0000000000000000000000000000000000000000000000000000000016602082015260400190565b60008083357fffffffffffffffffffffffffffffffffffffffffffffffffffffffffffffffe1843603018112612ab1578283fd5b83018035915067ffffffffffffffff821115612acb578283fd5b60209081019250810236038213156122ff57600080fd5b60008083357fffffffffffffffffffffffffffffffffffffffffffffffffffffffffffffffe1843603018112612ab1578182fd5b60008083357fffffffffffffffffffffffffffffffffffffffffffffffffffffffffffffffe1843603018112612b4a578182fd5b83018035915067ffffffffffffffff821115612b64578283fd5b6020019150368190038213156122ff57600080fd5b600082357fffffffffffffffffffffffffffffffffffffffffffffffffffffffffffffffa18336030181126126e6578182fd5b600082357ffffffffffffffffffffffffffffffffffffffffffffffffffffffffffffffe818336030181126126e6578182fd5b60008085851115612bee578182fd5b83861115612bfa578182fd5b5050820193919092039150565b60005b83811015612c22578181015183820152602001612c0a565b83811115610a255750506000910152565b8015158114610fd857600080fdfe536166654d6174683a206d756c7469706c69636174696f6e206f766572666c6f77a2646970667358221220db43af99285a0b7563c130c810c4217c85104bb0276a17e702b249ef2d573c9964736f6c6343000706003360a060405234801561001057600080fd5b5033606081901b6080526104a161003060003980605d52506104a16000f3fe608060405234801561001057600080fd5b506004361061002b5760003560e01c8063aef733d714610030575b600080fd5b61004361003e3660046103c4565b610045565b005b3373ffffffffffffffffffffffffffffffffffffffff7f000000000000000000000000000000000000000000000000000000000000000016146100bd576040517f08c379a00000000000000000000000000000000000000000000000000000000081526004016100b490610434565b60405180910390fd5b60005b818110156100eb576100e38383838181106100d757fe5b905060c00201336100f0565b6001016100c0565b505050565b604082013573ffffffffffffffffffffffffffffffffffffffff1673eeeeeeeeeeeeeeeeeeeeeeeeeeeeeeeeeeeeeeee141561018d57604080517f08c379a000000000000000000000000000000000000000000000000000000000815260206004820181905260248201527f475076323a2063616e6e6f74207472616e73666572206e617469766520455448604482015290519081900360640190fd5b6101bb73ffffffffffffffffffffffffffffffffffffffff60408401358116908435168360808601356101bf565b5050565b6040805173ffffffffffffffffffffffffffffffffffffffff80861660248301528416604482015260648082018490528251808303909101815260849091019091526020810180517bffffffffffffffffffffffffffffffffffffffffffffffffffffffff167f23b872dd0000000000000000000000000000000000000000000000000000000017905261025490859061025a565b50505050565b6000808373ffffffffffffffffffffffffffffffffffffffff16836040518082805190602001908083835b602083106102c257805182527fffffffffffffffffffffffffffffffffffffffffffffffffffffffffffffffe09092019160209182019101610285565b6001836020036101000a0380198251168184511680821785525050505050509050019150506000604051808303816000865af19150503d8060008114610324576040519150601f19603f3d011682016040523d82523d6000602084013e610329565b606091505b50915091508161033b57805160208201fd5b8051156102545780806020019051602081101561035757600080fd5b505161025457604080517f08c379a000000000000000000000000000000000000000000000000000000000815260206004820152601e60248201527f475076325361666545524332303a206661696c6564207472616e736665720000604482015290519081900360640190fd5b600080602083850312156103d6578182fd5b823567ffffffffffffffff808211156103ed578384fd5b818501915085601f830112610400578384fd5b81358181111561040e578485fd5b86602060c083028501011115610422578485fd5b60209290920196919550909350505050565b6020808252601d908201527f475076323a206e6f7420616c6c6f77616e636520726563697069656e7400000060408201526060019056fea2646970667358221220eee1be19ad2302da7efd3b05e159627daf68c1f6e28cb3b0142b0c8062b9f46a64736f6c63430007060033",
  "devdoc": {
    "author": "Gnosis Developers",
    "events": {
      "Interaction(address,uint256,bytes4)": {
        "details": "Event emitted for each executed interaction. For gas effeciency, only the interaction calldata selector (first 4 bytes) is included in the event. For interactions without calldata or whose calldata is shorter than 4 bytes, the selector will be `0`."
      },
      "OrderInvalidated(address,bytes)": {
        "details": "Event emitted when an order is invalidated."
      },
      "Settlement(address)": {
        "details": "Event emitted when a settlement complets"
      },
      "Trade(address,address,address,uint256,uint256,uint256,bytes)": {
        "details": "Event emitted for each executed trade."
      }
    },
    "kind": "dev",
    "methods": {
      "getStorageAt(uint256,uint256)": {
        "details": "Reads `length` bytes of storage in the currents contract",
        "params": {
          "length": "- the number of words (32 bytes) of data to read",
          "offset": "- the offset in the current contract's storage in words to start reading from"
        },
        "returns": {
          "_0": "the bytes that were read."
        }
      },
      "invalidateOrder(bytes)": {
        "details": "Invalidate onchain an order that has been signed offline.",
        "params": {
          "orderUid": "The unique identifier of the order that is to be made invalid after calling this function. The user that created the order must be the the sender of this message. See [`extractOrderUidParams`] for details on orderUid."
        }
      },
      "setPreSignature(bytes,bool)": {
        "details": "Sets a presignature for the specified order UID.",
        "params": {
          "orderUid": "The unique identifier of the order to pre-sign."
        }
      },
      "settle(address[],uint256[],(uint256,uint256,address,uint256,uint256,uint32,bytes32,uint256,uint256,uint256,uint256,bytes)[],(address,uint256,bytes)[][3],(bytes[],bytes[]))": {
        "details": "Settle the specified orders at a clearing price. Note that it is the responsibility of the caller to ensure that all GPv2 invariants are upheld for the input settlement, otherwise this call will revert. Namely: - All orders are valid and signed - Accounts have sufficient balance and approval. - Settlement contract has sufficient balance to execute trades. Note   this implies that the accumulated fees held in the contract can also   be used for settlement. This is OK since:   - Solvers need to be authorized   - Misbehaving solvers will be slashed for abusing accumulated fees for     settlement   - Critically, user orders are entirely protected",
        "params": {
          "clearingPrices": "An array of clearing prices where the `i`-th price is for the `i`-th token in the [`tokens`] array.",
          "interactions": "Smart contract interactions split into three separate lists to be run before the settlement, during the settlement and after the settlement respectively.",
          "orderRefunds": "Order refunds for clearing storage related to expired orders.",
          "tokens": "An array of ERC20 tokens to be traded in the settlement. Trades encode tokens as indices into this array.",
          "trades": "Trades for signed orders."
        }
      },
      "simulateDelegatecall(address,bytes)": {
        "details": "Performs a delegetecall on a targetContract in the context of self. Internally reverts execution to avoid side effects (making it static). Catches revert and returns encoded result as bytes.",
        "params": {
          "calldataPayload": "Calldata that should be sent to the target contract (encoded method name and arguments).",
          "targetContract": "Address of the contract containing the code to execute."
        }
      },
      "simulateDelegatecallInternal(address,bytes)": {
        "details": "Performs a delegetecall on a targetContract in the context of self. Internally reverts execution to avoid side effects (making it static). Returns encoded result as revert message concatenated with the success flag of the inner call as a last byte.",
        "params": {
          "calldataPayload": "Calldata that should be sent to the target contract (encoded method name and arguments).",
          "targetContract": "Address of the contract containing the code to execute."
        }
      }
    },
    "stateVariables": {
      "allowanceManager": {
        "details": "The allowance manager which has access to order funds. This contract is created during deployment"
      },
      "authenticator": {
        "details": "The authenticator is used to determine who can call the settle function. That is, only authorised solvers have the ability to invoke settlements. Any valid authenticator implements an isSolver method called by the onlySolver modifier below."
      },
      "filledAmount": {
        "details": "Map each user order by UID to the amount that has been filled so far. If this amount is larger than or equal to the amount traded in the order (amount sold for sell orders, amount bought for buy orders) then the order cannot be traded anymore. If the order is fill or kill, then this value is only used to determine whether the order has already been executed."
      }
    },
    "title": "Gnosis Protocol v2 Settlement Contract",
    "version": 1
  },
  "userdoc": {
    "kind": "user",
    "methods": {},
    "version": 1
  },
  "storageLayout": {
    "storage": [
      {
        "astId": 4362,
        "contract": "src/contracts/GPv2Settlement.sol:GPv2Settlement",
        "label": "preSignature",
        "offset": 0,
        "slot": "0",
        "type": "t_mapping(t_bytes_memory_ptr,t_uint256)"
      },
      {
        "astId": 2762,
        "contract": "src/contracts/GPv2Settlement.sol:GPv2Settlement",
        "label": "_status",
        "offset": 0,
        "slot": "1",
        "type": "t_uint256"
      },
      {
        "astId": 3025,
        "contract": "src/contracts/GPv2Settlement.sol:GPv2Settlement",
        "label": "filledAmount",
        "offset": 0,
        "slot": "2",
        "type": "t_mapping(t_bytes_memory_ptr,t_uint256)"
      }
    ],
    "types": {
      "t_bytes_memory_ptr": {
        "encoding": "bytes",
        "label": "bytes",
        "numberOfBytes": "32"
      },
      "t_mapping(t_bytes_memory_ptr,t_uint256)": {
        "encoding": "mapping",
        "key": "t_bytes_memory_ptr",
        "label": "mapping(bytes => uint256)",
        "numberOfBytes": "32",
        "value": "t_uint256"
      },
      "t_uint256": {
        "encoding": "inplace",
        "label": "uint256",
        "numberOfBytes": "32"
      }
    }
  }
}