{
  "address": "0x60027a9c1EF06EE9890f086B05A4ACc6cd041D62",
  "abi": [
    {
      "inputs": [
        {
          "internalType": "address",
          "name": "initialOwner",
          "type": "address"
        }
      ],
      "stateMutability": "nonpayable",
      "type": "constructor"
    },
    {
      "anonymous": false,
      "inputs": [
        {
          "indexed": true,
          "internalType": "address",
          "name": "previousOwner",
          "type": "address"
        },
        {
          "indexed": true,
          "internalType": "address",
          "name": "newOwner",
          "type": "address"
        }
      ],
      "name": "OwnershipTransferred",
      "type": "event"
    },
    {
      "inputs": [],
      "name": "SIMULATE_DELEGATECALL_INTERNAL_SELECTOR",
      "outputs": [
        {
          "internalType": "bytes4",
          "name": "",
          "type": "bytes4"
        }
      ],
      "stateMutability": "view",
      "type": "function"
    },
    {
      "inputs": [
        {
          "internalType": "address",
          "name": "solver",
          "type": "address"
        }
      ],
      "name": "addSolver",
      "outputs": [],
      "stateMutability": "nonpayable",
      "type": "function"
    },
    {
      "inputs": [
        {
          "internalType": "uint256",
          "name": "offset",
          "type": "uint256"
        },
        {
          "internalType": "uint256",
          "name": "length",
          "type": "uint256"
        }
      ],
      "name": "getStorageAt",
      "outputs": [
        {
          "internalType": "bytes",
          "name": "",
          "type": "bytes"
        }
      ],
      "stateMutability": "view",
      "type": "function"
    },
    {
      "inputs": [
        {
          "internalType": "address",
          "name": "prospectiveSolver",
          "type": "address"
        }
      ],
      "name": "isSolver",
      "outputs": [
        {
          "internalType": "bool",
          "name": "",
          "type": "bool"
        }
      ],
      "stateMutability": "view",
      "type": "function"
    },
    {
      "inputs": [],
      "name": "owner",
      "outputs": [
        {
          "internalType": "address",
          "name": "",
          "type": "address"
        }
      ],
      "stateMutability": "view",
      "type": "function"
    },
    {
      "inputs": [
        {
          "internalType": "address",
          "name": "solver",
          "type": "address"
        }
      ],
      "name": "removeSolver",
      "outputs": [],
      "stateMutability": "nonpayable",
      "type": "function"
    },
    {
      "inputs": [],
      "name": "renounceOwnership",
      "outputs": [],
      "stateMutability": "nonpayable",
      "type": "function"
    },
    {
      "inputs": [
        {
          "internalType": "bytes",
          "name": "response",
          "type": "bytes"
        }
      ],
      "name": "revertWith",
      "outputs": [],
      "stateMutability": "pure",
      "type": "function"
    },
    {
      "inputs": [
        {
          "internalType": "bytes",
          "name": "buffer",
          "type": "bytes"
        },
        {
          "internalType": "uint256",
          "name": "length",
          "type": "uint256"
        }
      ],
      "name": "setLength",
      "outputs": [],
      "stateMutability": "pure",
      "type": "function"
    },
    {
      "inputs": [
        {
          "internalType": "address",
          "name": "targetContract",
          "type": "address"
        },
        {
          "internalType": "bytes",
          "name": "calldataPayload",
          "type": "bytes"
        }
      ],
      "name": "simulateDelegatecall",
      "outputs": [
        {
          "internalType": "bytes",
          "name": "response",
          "type": "bytes"
        }
      ],
      "stateMutability": "nonpayable",
      "type": "function"
    },
    {
      "inputs": [
        {
          "internalType": "address",
          "name": "targetContract",
          "type": "address"
        },
        {
          "internalType": "bytes",
          "name": "calldataPayload",
          "type": "bytes"
        }
      ],
      "name": "simulateDelegatecallInternal",
      "outputs": [
        {
          "internalType": "bytes",
          "name": "response",
          "type": "bytes"
        }
      ],
      "stateMutability": "nonpayable",
      "type": "function"
    },
    {
      "inputs": [
        {
          "internalType": "address",
          "name": "newOwner",
          "type": "address"
        }
      ],
      "name": "transferOwnership",
      "outputs": [],
      "stateMutability": "nonpayable",
      "type": "function"
    }
  ],
  "transactionHash": "0x42859862cf1ace9085954a5514950d98c0c103949903e631cc3c82a9c07fafe0",
  "args": [
    "0x6Fb5916c0f57f88004d5b5EB25f6f4D77353a1eD"
  ],
  "solcInputHash": "8d943a48500fe96597a89ee668886ba9",
  "bytecode": "0x608060405234801561001057600080fd5b506040516111fa3803806111fa8339818101604052602081101561003357600080fd5b5051806000610040610088565b600080546001600160a01b0319166001600160a01b0383169081178255604051929350916000805160206111da833981519152908290a3506100818161008c565b5050610184565b3390565b610094610088565b6000546001600160a01b039081169116146100f6576040805162461bcd60e51b815260206004820181905260248201527f4f776e61626c653a2063616c6c6572206973206e6f7420746865206f776e6572604482015290519081900360640190fd5b6001600160a01b03811661013b5760405162461bcd60e51b81526004018080602001828103825260268152602001806111b46026913960400191505060405180910390fd5b600080546040516001600160a01b03808516939216916000805160206111da83398151915291a3600080546001600160a01b0319166001600160a01b0392909216919091179055565b611021806101936000396000f3fe608060405234801561001057600080fd5b50600436106100d45760003560e01c8063715018a611610081578063ec58f4b81161005b578063ec58f4b814610474578063f2fde38b146104a7578063f84436bd146104da576100d4565b8063715018a6146104085780638da5cb5b146104105780638fd57b9214610441576100d4565b806352b8dfc5116100b257806352b8dfc5146102955780635624b25b1461033f57806365906ca314610362576100d4565b806302cc250d146100d95780633a1b407a1461012057806343218e191461015d575b600080fd5b61010c600480360360208110156100ef57600080fd5b503573ffffffffffffffffffffffffffffffffffffffff1661059d565b604080519115158252519081900360200190f35b6101286105b0565b604080517fffffffff000000000000000000000000000000000000000000000000000000009092168252519081900360200190f35b6102206004803603604081101561017357600080fd5b73ffffffffffffffffffffffffffffffffffffffff82351691908101906040810160208201356401000000008111156101ab57600080fd5b8201836020820111156101bd57600080fd5b803590602001918460018302840111640100000000831117156101df57600080fd5b91908080601f0160208091040260200160405190810160405280939291908181526020018383808284376000920191909152509295506105d4945050505050565b6040805160208082528351818301528351919283929083019185019080838360005b8381101561025a578181015183820152602001610242565b50505050905090810190601f1680156102875780820380516001836020036101000a031916815260200191505b509250505060405180910390f35b61033d600480360360408110156102ab57600080fd5b8101906020810181356401000000008111156102c657600080fd5b8201836020820111156102d857600080fd5b803590602001918460018302840111640100000000831117156102fa57600080fd5b91908080601f016020809104026020016040519081016040528093929190818152602001838380828437600092019190915250929550509135925061074c915050565b005b6102206004803603604081101561035557600080fd5b5080359060200135610750565b61033d6004803603602081101561037857600080fd5b81019060208101813564010000000081111561039357600080fd5b8201836020820111156103a557600080fd5b803590602001918460018302840111640100000000831117156103c757600080fd5b91908080601f0160208091040260200160405190810160405280939291908181526020018383808284376000920191909152509295506107c3945050505050565b61033d6107cb565b6104186108cb565b6040805173ffffffffffffffffffffffffffffffffffffffff9092168252519081900360200190f35b61033d6004803603602081101561045757600080fd5b503573ffffffffffffffffffffffffffffffffffffffff166108e7565b61033d6004803603602081101561048a57600080fd5b503573ffffffffffffffffffffffffffffffffffffffff16610987565b61033d600480360360208110156104bd57600080fd5b503573ffffffffffffffffffffffffffffffffffffffff16610a23565b610220600480360360408110156104f057600080fd5b73ffffffffffffffffffffffffffffffffffffffff823516919081019060408101602082013564010000000081111561052857600080fd5b82018360208201111561053a57600080fd5b8035906020019184600183028401116401000000008311171561055c57600080fd5b91908080601f016020809104026020016040519081016040528093929190818152602001838380828437600092019190915250929550610bad945050505050565b60006105aa600183610e0e565b92915050565b7f43218e198a5f5c70ca65adf1973b6285a79c4d29a39cc2a8bb67b912f447dc6481565b606060008373ffffffffffffffffffffffffffffffffffffffff16836040518082805190602001908083835b6020831061063d57805182527fffffffffffffffffffffffffffffffffffffffffffffffffffffffffffffffe09092019160209182019101610600565b6001836020036101000a038019825116818451168082178552505050505050905001915050600060405180830381855af49150503d806000811461069d576040519150601f19603f3d011682016040523d82523d6000602084013e6106a2565b606091505b50809350819250505061074582826040516020018083805190602001908083835b6020831061070057805182527fffffffffffffffffffffffffffffffffffffffffffffffffffffffffffffffe090920191602091820191016106c3565b6001836020036101000a03801982511681845116808217855250505050505090500182151560f81b8152600101925050506040516020818303038152906040526107c3565b5092915050565b9052565b6060808260200267ffffffffffffffff8111801561076d57600080fd5b506040519080825280601f01601f191660200182016040528015610798576020820181803683370190505b50905060005b838110156107bb578481015460208083028401015260010161079e565b509392505050565b805160208201fd5b6107d3610e37565b60005473ffffffffffffffffffffffffffffffffffffffff90811691161461085c57604080517f08c379a000000000000000000000000000000000000000000000000000000000815260206004820181905260248201527f4f776e61626c653a2063616c6c6572206973206e6f7420746865206f776e6572604482015290519081900360640190fd5b6000805460405173ffffffffffffffffffffffffffffffffffffffff909116907f8be0079c531659141344cd1fd0a4f28419497f9722a3daafe3b4186f6b6457e0908390a3600080547fffffffffffffffffffffffff0000000000000000000000000000000000000000169055565b60005473ffffffffffffffffffffffffffffffffffffffff1690565b6108ef610e37565b60005473ffffffffffffffffffffffffffffffffffffffff90811691161461097857604080517f08c379a000000000000000000000000000000000000000000000000000000000815260206004820181905260248201527f4f776e61626c653a2063616c6c6572206973206e6f7420746865206f776e6572604482015290519081900360640190fd5b610983600182610e3b565b5050565b61098f610e37565b60005473ffffffffffffffffffffffffffffffffffffffff908116911614610a1857604080517f08c379a000000000000000000000000000000000000000000000000000000000815260206004820181905260248201527f4f776e61626c653a2063616c6c6572206973206e6f7420746865206f776e6572604482015290519081900360640190fd5b610983600182610e5d565b610a2b610e37565b60005473ffffffffffffffffffffffffffffffffffffffff908116911614610ab457604080517f08c379a000000000000000000000000000000000000000000000000000000000815260206004820181905260248201527f4f776e61626c653a2063616c6c6572206973206e6f7420746865206f776e6572604482015290519081900360640190fd5b73ffffffffffffffffffffffffffffffffffffffff8116610b20576040517f08c379a0000000000000000000000000000000000000000000000000000000008152600401808060200182810382526026815260200180610fc66026913960400191505060405180910390fd5b6000805460405173ffffffffffffffffffffffffffffffffffffffff808516939216917f8be0079c531659141344cd1fd0a4f28419497f9722a3daafe3b4186f6b6457e091a3600080547fffffffffffffffffffffffff00000000000000000000000000000000000000001673ffffffffffffffffffffffffffffffffffffffff92909216919091179055565b6060807f43218e198a5f5c70ca65adf1973b6285a79c4d29a39cc2a8bb67b912f447dc648484604051602401808373ffffffffffffffffffffffffffffffffffffffff16815260200180602001828103825283818151815260200191508051906020019080838360005b83811015610c2f578181015183820152602001610c17565b50505050905090810190601f168015610c5c5780820380516001836020036101000a031916815260200191505b50604080517fffffffffffffffffffffffffffffffffffffffffffffffffffffffffffffffe08184030181529181526020820180517bffffffffffffffffffffffffffffffffffffffffffffffffffffffff167fffffffff00000000000000000000000000000000000000000000000000000000909816979097178752518151919750309688965090945084935091508083835b60208310610d2d57805182527fffffffffffffffffffffffffffffffffffffffffffffffffffffffffffffffe09092019160209182019101610cf0565b6001836020036101000a0380198251168184511680821785525050505050509050019150506000604051808303816000865af19150503d8060008114610d8f576040519150601f19603f3d011682016040523d82523d6000602084013e610d94565b606091505b50905080925050600082600184510381518110610dad57fe5b602001015160f81c60f81b7effffffffffffffffffffffffffffffffffffffffffffffffffffffffffffff1916600160f81b149050610df083600185510361074c565b8015610dfd5750506105aa565b610e06836107c3565b505092915050565b6000610e308373ffffffffffffffffffffffffffffffffffffffff8416610e7f565b9392505050565b3390565b6000610e308373ffffffffffffffffffffffffffffffffffffffff8416610e97565b6000610e308373ffffffffffffffffffffffffffffffffffffffff8416610f7b565b60009081526001919091016020526040902054151590565b60008181526001830160205260408120548015610f715783547fffffffffffffffffffffffffffffffffffffffffffffffffffffffffffffffff8083019190810190600090879083908110610ee857fe5b9060005260206000200154905080876000018481548110610f0557fe5b600091825260208083209091019290925582815260018981019092526040902090840190558654879080610f3557fe5b600190038181906000526020600020016000905590558660010160008781526020019081526020016000206000905560019450505050506105aa565b60009150506105aa565b6000610f878383610e7f565b610fbd575081546001818101845560008481526020808220909301849055845484825282860190935260409020919091556105aa565b5060006105aa56fe4f776e61626c653a206e6577206f776e657220697320746865207a65726f2061646472657373a26469706673582212204d265fa1c367491e07d304885971481a070f467f28d8c863d30bb0646a8ffabb64736f6c634300070500334f776e61626c653a206e6577206f776e657220697320746865207a65726f20616464726573738be0079c531659141344cd1fd0a4f28419497f9722a3daafe3b4186f6b6457e0",
  "devdoc": {
    "author": "Gnosis Developers",
    "kind": "dev",
    "methods": {
      "getStorageAt(uint256,uint256)": {
        "details": "Reads `length` bytes of storage in the currents contract",
        "params": {
          "length": "- the number of words (32 bytes) of data to read",
          "offset": "- the offset in the current contract's storage in words to start reading from"
        },
        "returns": {
          "_0": "the bytes that were read."
        }
      },
      "isSolver(address)": {
        "details": "determines whether the provided address is an authenticated solver.",
        "params": {
          "prospectiveSolver": "the address of prospective solver."
        },
        "returns": {
          "_0": "true when prospectiveSolver is an authenticated solver, otherwise false."
        }
      },
      "owner()": {
        "details": "Returns the address of the current owner."
      },
      "renounceOwnership()": {
        "details": "Leaves the contract without owner. It will not be possible to call `onlyOwner` functions anymore. Can only be called by the current owner. NOTE: Renouncing ownership will leave the contract without an owner, thereby removing any functionality that is only available to the owner."
      },
      "simulateDelegatecall(address,bytes)": {
        "details": "Performs a delegetecall on a targetContract in the context of self. Internally reverts execution to avoid side effects (making it static). Catches revert and returns encoded result as bytes.",
        "params": {
          "calldataPayload": "Calldata that should be sent to the target contract (encoded method name and arguments).",
          "targetContract": "Address of the contract containing the code to execute."
        }
      },
      "simulateDelegatecallInternal(address,bytes)": {
        "details": "Performs a delegetecall on a targetContract in the context of self. Internally reverts execution to avoid side effects (making it static). Returns encoded result as revert message concatenated with the success flag of the inner call as a last byte.",
        "params": {
          "calldataPayload": "Calldata that should be sent to the target contract (encoded method name and arguments).",
          "targetContract": "Address of the contract containing the code to execute."
        }
      },
      "transferOwnership(address)": {
        "details": "Transfers ownership of the contract to a new account (`newOwner`). Can only be called by the current owner."
      }
    },
    "title": "Gnosis Protocol v2 Access Control Contract",
    "version": 1
  },
  "userdoc": {
    "kind": "user",
    "methods": {},
    "version": 1
  },
  "storageLayout": {
    "storage": [
      {
        "astId": 196,
        "contract": "src/contracts/GPv2AllowListAuthentication.sol:GPv2AllowListAuthentication",
        "label": "_owner",
        "offset": 0,
        "slot": "0",
        "type": "t_address"
      },
      {
        "astId": 1535,
        "contract": "src/contracts/GPv2AllowListAuthentication.sol:GPv2AllowListAuthentication",
        "label": "solvers",
        "offset": 0,
        "slot": "1",
        "type": "t_struct(AddressSet)1304_storage"
      }
    ],
    "types": {
      "t_address": {
        "encoding": "inplace",
        "label": "address",
        "numberOfBytes": "20"
      },
      "t_array(t_bytes32)dyn_storage": {
        "base": "t_bytes32",
        "encoding": "dynamic_array",
        "label": "bytes32[]",
        "numberOfBytes": "32"
      },
      "t_bytes32": {
        "encoding": "inplace",
        "label": "bytes32",
        "numberOfBytes": "32"
      },
      "t_mapping(t_bytes32,t_uint256)": {
        "encoding": "mapping",
        "key": "t_bytes32",
        "label": "mapping(bytes32 => uint256)",
        "numberOfBytes": "32",
        "value": "t_uint256"
      },
      "t_struct(AddressSet)1304_storage": {
        "encoding": "inplace",
        "label": "struct EnumerableSet.AddressSet",
        "members": [
          {
            "astId": 1303,
            "contract": "src/contracts/GPv2AllowListAuthentication.sol:GPv2AllowListAuthentication",
            "label": "_inner",
            "offset": 0,
            "slot": "0",
            "type": "t_struct(Set)1039_storage"
          }
        ],
        "numberOfBytes": "64"
      },
      "t_struct(Set)1039_storage": {
        "encoding": "inplace",
        "label": "struct EnumerableSet.Set",
        "members": [
          {
            "astId": 1034,
            "contract": "src/contracts/GPv2AllowListAuthentication.sol:GPv2AllowListAuthentication",
            "label": "_values",
            "offset": 0,
            "slot": "0",
            "type": "t_array(t_bytes32)dyn_storage"
          },
          {
            "astId": 1038,
            "contract": "src/contracts/GPv2AllowListAuthentication.sol:GPv2AllowListAuthentication",
            "label": "_indexes",
            "offset": 0,
            "slot": "1",
            "type": "t_mapping(t_bytes32,t_uint256)"
          }
        ],
        "numberOfBytes": "64"
      },
      "t_uint256": {
        "encoding": "inplace",
        "label": "uint256",
        "numberOfBytes": "32"
      }
    }
  }
}