{
  "address": "0x9008D19f58AAbD9eD0D60971565AA8510560ab41",
  "abi": [
    {
      "inputs": [
        {
          "internalType": "contract GPv2Authentication",
          "name": "authenticator_",
          "type": "address"
        },
        {
          "internalType": "contract IVault",
          "name": "vault_",
          "type": "address"
        }
      ],
      "stateMutability": "nonpayable",
      "type": "constructor"
    },
    {
      "anonymous": false,
      "inputs": [
        {
          "indexed": true,
          "internalType": "address",
          "name": "target",
          "type": "address"
        },
        {
          "indexed": false,
          "internalType": "uint256",
          "name": "value",
          "type": "uint256"
        },
        {
          "indexed": false,
          "internalType": "bytes4",
          "name": "selector",
          "type": "bytes4"
        }
      ],
      "name": "Interaction",
      "type": "event"
    },
    {
      "anonymous": false,
      "inputs": [
        {
          "indexed": true,
          "internalType": "address",
          "name": "owner",
          "type": "address"
        },
        {
          "indexed": false,
          "internalType": "bytes",
          "name": "orderUid",
          "type": "bytes"
        }
      ],
      "name": "OrderInvalidated",
      "type": "event"
    },
    {
      "anonymous": false,
      "inputs": [
        {
          "indexed": true,
          "internalType": "address",
          "name": "owner",
          "type": "address"
        },
        {
          "indexed": false,
          "internalType": "bytes",
          "name": "orderUid",
          "type": "bytes"
        },
        {
          "indexed": false,
          "internalType": "bool",
          "name": "signed",
          "type": "bool"
        }
      ],
      "name": "PreSignature",
      "type": "event"
    },
    {
      "anonymous": false,
      "inputs": [
        {
          "indexed": true,
          "internalType": "address",
          "name": "solver",
          "type": "address"
        }
      ],
      "name": "Settlement",
      "type": "event"
    },
    {
      "anonymous": false,
      "inputs": [
        {
          "indexed": true,
          "internalType": "address",
          "name": "owner",
          "type": "address"
        },
        {
          "indexed": false,
          "internalType": "contract IERC20",
          "name": "sellToken",
          "type": "address"
        },
        {
          "indexed": false,
          "internalType": "contract IERC20",
          "name": "buyToken",
          "type": "address"
        },
        {
          "indexed": false,
          "internalType": "uint256",
          "name": "sellAmount",
          "type": "uint256"
        },
        {
          "indexed": false,
          "internalType": "uint256",
          "name": "buyAmount",
          "type": "uint256"
        },
        {
          "indexed": false,
          "internalType": "uint256",
          "name": "feeAmount",
          "type": "uint256"
        },
        {
          "indexed": false,
          "internalType": "bytes",
          "name": "orderUid",
          "type": "bytes"
        }
      ],
      "name": "Trade",
      "type": "event"
    },
    {
      "inputs": [],
      "name": "authenticator",
      "outputs": [
        {
          "internalType": "contract GPv2Authentication",
          "name": "",
          "type": "address"
        }
      ],
      "stateMutability": "view",
      "type": "function"
    },
    {
      "inputs": [],
      "name": "domainSeparator",
      "outputs": [
        {
          "internalType": "bytes32",
          "name": "",
          "type": "bytes32"
        }
      ],
      "stateMutability": "view",
      "type": "function"
    },
    {
      "inputs": [
        {
          "internalType": "bytes",
          "name": "",
          "type": "bytes"
        }
      ],
      "name": "filledAmount",
      "outputs": [
        {
          "internalType": "uint256",
          "name": "",
          "type": "uint256"
        }
      ],
      "stateMutability": "view",
      "type": "function"
    },
    {
      "inputs": [
        {
          "internalType": "bytes[]",
          "name": "orderUids",
          "type": "bytes[]"
        }
      ],
      "name": "freeFilledAmountStorage",
      "outputs": [],
      "stateMutability": "nonpayable",
      "type": "function"
    },
    {
      "inputs": [
        {
          "internalType": "bytes[]",
          "name": "orderUids",
          "type": "bytes[]"
        }
      ],
      "name": "freePreSignatureStorage",
      "outputs": [],
      "stateMutability": "nonpayable",
      "type": "function"
    },
    {
      "inputs": [
        {
          "internalType": "uint256",
          "name": "offset",
          "type": "uint256"
        },
        {
          "internalType": "uint256",
          "name": "length",
          "type": "uint256"
        }
      ],
      "name": "getStorageAt",
      "outputs": [
        {
          "internalType": "bytes",
          "name": "",
          "type": "bytes"
        }
      ],
      "stateMutability": "view",
      "type": "function"
    },
    {
      "inputs": [
        {
          "internalType": "bytes",
          "name": "orderUid",
          "type": "bytes"
        }
      ],
      "name": "invalidateOrder",
      "outputs": [],
      "stateMutability": "nonpayable",
      "type": "function"
    },
    {
      "inputs": [
        {
          "internalType": "bytes",
          "name": "",
          "type": "bytes"
        }
      ],
      "name": "preSignature",
      "outputs": [
        {
          "internalType": "uint256",
          "name": "",
          "type": "uint256"
        }
      ],
      "stateMutability": "view",
      "type": "function"
    },
    {
      "inputs": [
        {
          "internalType": "bytes",
          "name": "orderUid",
          "type": "bytes"
        },
        {
          "internalType": "bool",
          "name": "signed",
          "type": "bool"
        }
      ],
      "name": "setPreSignature",
      "outputs": [],
      "stateMutability": "nonpayable",
      "type": "function"
    },
    {
      "inputs": [
        {
          "internalType": "contract IERC20[]",
          "name": "tokens",
          "type": "address[]"
        },
        {
          "internalType": "uint256[]",
          "name": "clearingPrices",
          "type": "uint256[]"
        },
        {
          "components": [
            {
              "internalType": "uint256",
              "name": "sellTokenIndex",
              "type": "uint256"
            },
            {
              "internalType": "uint256",
              "name": "buyTokenIndex",
              "type": "uint256"
            },
            {
              "internalType": "address",
              "name": "receiver",
              "type": "address"
            },
            {
              "internalType": "uint256",
              "name": "sellAmount",
              "type": "uint256"
            },
            {
              "internalType": "uint256",
              "name": "buyAmount",
              "type": "uint256"
            },
            {
              "internalType": "uint32",
              "name": "validTo",
              "type": "uint32"
            },
            {
              "internalType": "bytes32",
              "name": "appData",
              "type": "bytes32"
            },
            {
              "internalType": "uint256",
              "name": "feeAmount",
              "type": "uint256"
            },
            {
              "internalType": "uint256",
              "name": "flags",
              "type": "uint256"
            },
            {
              "internalType": "uint256",
              "name": "executedAmount",
              "type": "uint256"
            },
            {
              "internalType": "bytes",
              "name": "signature",
              "type": "bytes"
            }
          ],
          "internalType": "struct GPv2Trade.Data[]",
          "name": "trades",
          "type": "tuple[]"
        },
        {
          "components": [
            {
              "internalType": "address",
              "name": "target",
              "type": "address"
            },
            {
              "internalType": "uint256",
              "name": "value",
              "type": "uint256"
            },
            {
              "internalType": "bytes",
              "name": "callData",
              "type": "bytes"
            }
          ],
          "internalType": "struct GPv2Interaction.Data[][3]",
          "name": "interactions",
          "type": "tuple[][3]"
        }
      ],
      "name": "settle",
      "outputs": [],
      "stateMutability": "nonpayable",
      "type": "function"
    },
    {
      "inputs": [
        {
          "internalType": "address",
          "name": "targetContract",
          "type": "address"
        },
        {
          "internalType": "bytes",
          "name": "calldataPayload",
          "type": "bytes"
        }
      ],
      "name": "simulateDelegatecall",
      "outputs": [
        {
          "internalType": "bytes",
          "name": "response",
          "type": "bytes"
        }
      ],
      "stateMutability": "nonpayable",
      "type": "function"
    },
    {
      "inputs": [
        {
          "internalType": "address",
          "name": "targetContract",
          "type": "address"
        },
        {
          "internalType": "bytes",
          "name": "calldataPayload",
          "type": "bytes"
        }
      ],
      "name": "simulateDelegatecallInternal",
      "outputs": [
        {
          "internalType": "bytes",
          "name": "response",
          "type": "bytes"
        }
      ],
      "stateMutability": "nonpayable",
      "type": "function"
    },
    {
      "inputs": [
        {
          "components": [
            {
              "internalType": "bytes32",
              "name": "poolId",
              "type": "bytes32"
            },
            {
              "internalType": "uint256",
              "name": "assetInIndex",
              "type": "uint256"
            },
            {
              "internalType": "uint256",
              "name": "assetOutIndex",
              "type": "uint256"
            },
            {
              "internalType": "uint256",
              "name": "amount",
              "type": "uint256"
            },
            {
              "internalType": "bytes",
              "name": "userData",
              "type": "bytes"
            }
          ],
          "internalType": "struct IVault.BatchSwapStep[]",
          "name": "swaps",
          "type": "tuple[]"
        },
        {
          "internalType": "contract IERC20[]",
          "name": "tokens",
          "type": "address[]"
        },
        {
          "components": [
            {
              "internalType": "uint256",
              "name": "sellTokenIndex",
              "type": "uint256"
            },
            {
              "internalType": "uint256",
              "name": "buyTokenIndex",
              "type": "uint256"
            },
            {
              "internalType": "address",
              "name": "receiver",
              "type": "address"
            },
            {
              "internalType": "uint256",
              "name": "sellAmount",
              "type": "uint256"
            },
            {
              "internalType": "uint256",
              "name": "buyAmount",
              "type": "uint256"
            },
            {
              "internalType": "uint32",
              "name": "validTo",
              "type": "uint32"
            },
            {
              "internalType": "bytes32",
              "name": "appData",
              "type": "bytes32"
            },
            {
              "internalType": "uint256",
              "name": "feeAmount",
              "type": "uint256"
            },
            {
              "internalType": "uint256",
              "name": "flags",
              "type": "uint256"
            },
            {
              "internalType": "uint256",
              "name": "executedAmount",
              "type": "uint256"
            },
            {
              "internalType": "bytes",
              "name": "signature",
              "type": "bytes"
            }
          ],
          "internalType": "struct GPv2Trade.Data",
          "name": "trade",
          "type": "tuple"
        }
      ],
      "name": "swap",
      "outputs": [],
      "stateMutability": "nonpayable",
      "type": "function"
    },
    {
      "inputs": [],
      "name": "vault",
      "outputs": [
        {
          "internalType": "contract IVault",
          "name": "",
          "type": "address"
        }
      ],
      "stateMutability": "view",
      "type": "function"
    },
    {
      "inputs": [],
      "name": "vaultRelayer",
      "outputs": [
        {
          "internalType": "contract GPv2VaultRelayer",
          "name": "",
          "type": "address"
        }
      ],
      "stateMutability": "view",
      "type": "function"
    },
    {
      "stateMutability": "payable",
      "type": "receive"
    }
  ],
  "transactionHash": "0x609fa2e8f32c73c1f5dc21ff60a26238dacb50d4674d336c90d6950bdda17a21",
  "args": [
    "0x2c4c28DDBdAc9C5E7055b4C863b72eA0149D8aFE",
    "0xBA12222222228d8Ba445958a75a0704d566BF2C8"
  ],
  "solcInputHash": "edc04b977e7a6657e6e9bb91bf92461d",
  "bytecode": "0x6101006040523480156200001257600080fd5b50604051620053eb380380620053eb83398101604081905262000035916200015b565b604080517f8b73c3c69bb8fe3d512ecc4cf759cc79239f7b179b0ffacaa9a75d522b39400f6020808301919091527f6c85c0337eba1661327f94f3bf46c8a7f9311a563f4d5c948362567f5d8ed60c828401527ff9446b8e937d86f0bc87cac73923491692b123ca5f8761908494703758206adf606080840191909152466080808501919091523060a08086019190915285518086038201815260c09586019687905280519401939093209052600180556001600160601b031986821b811690925284901b16905281906200010a906200014d565b62000116919062000199565b604051809103906000f08015801562000133573d6000803e3d6000fd5b5060601b6001600160601b03191660e05250620001c69050565b61129e806200414d83390190565b600080604083850312156200016e578182fd5b82516200017b81620001ad565b60208401519092506200018e81620001ad565b809150509250929050565b6001600160a01b0391909116815260200190565b6001600160a01b0381168114620001c357600080fd5b50565b60805160a05160601c60c05160601c60e05160601c613f2562000228600039806104c55280610d61528061109052806115f0525080610556528061158b52508061039252806106bc528061099d52508061131e52806123df5250613f256000f3fe6080604052600436106100ec5760003560e01c80639b552cc21161008a578063ed9f35ce11610059578063ed9f35ce14610274578063f698da2514610294578063f84436bd146102a9578063fbfa77cf146102c9576100f3565b80639b552cc2146101ff578063a2a7d51b14610214578063d08d33d114610234578063ec6cb13f14610254576100f3565b80632479fb6e116100c65780632479fb6e1461016557806343218e19146101925780635624b25b146101bf578063845a101f146101df576100f3565b806313d79a0b146100f857806315337bc01461011a5780632335c76b1461013a576100f3565b366100f357005b600080fd5b34801561010457600080fd5b5061011861011336600461322e565b6102de565b005b34801561012657600080fd5b50610118610135366004613441565b6105c1565b34801561014657600080fd5b5061014f6106ba565b60405161015c91906136ee565b60405180910390f35b34801561017157600080fd5b506101856101803660046134ca565b6106de565b60405161015c91906137f0565b34801561019e57600080fd5b506101b26101ad3660046131a0565b6106fb565b60405161015c919061380d565b3480156101cb57600080fd5b506101b26101da3660046134fd565b610873565b3480156101eb57600080fd5b506101186101fa36600461338e565b6108e9565b34801561020b57600080fd5b5061014f61108e565b34801561022057600080fd5b5061011861022f3660046131ee565b6110b2565b34801561024057600080fd5b5061018561024f3660046134ca565b6110fb565b34801561026057600080fd5b5061011861026f366004613475565b611118565b34801561028057600080fd5b5061011861028f3660046131ee565b6112d7565b3480156102a057600080fd5b5061018561131c565b3480156102b557600080fd5b506101b26102c43660046131a0565b611340565b3480156102d557600080fd5b5061014f611589565b6002600154141561035057604080517f08c379a000000000000000000000000000000000000000000000000000000000815260206004820152601f60248201527f5265656e7472616e637947756172643a207265656e7472616e742063616c6c00604482015290519081900360640190fd5b60026001556040517f02cc250d00000000000000000000000000000000000000000000000000000000815273ffffffffffffffffffffffffffffffffffffffff7f000000000000000000000000000000000000000000000000000000000000000016906302cc250d906103c79033906004016136ee565b60206040518083038186803b1580156103df57600080fd5b505afa1580156103f3573d6000803e3d6000fd5b505050506040513d601f19601f820116820180604052508101906104179190613425565b610456576040517f08c379a000000000000000000000000000000000000000000000000000000000815260040161044d90613c78565b60405180910390fd5b6104728160005b60200281019061046d9190613d16565b6115ad565b6000806104838989898989896116ea565b6040517f7d10d11f000000000000000000000000000000000000000000000000000000008152919350915073ffffffffffffffffffffffffffffffffffffffff7f00000000000000000000000000000000000000000000000000000000000000001690637d10d11f906104fa90859060040161370f565b600060405180830381600087803b15801561051457600080fd5b505af1158015610528573d6000803e3d6000fd5b5050505061053c8360016003811061045d57fe5b61057c73ffffffffffffffffffffffffffffffffffffffff7f00000000000000000000000000000000000000000000000000000000000000001682611851565b61058783600261045d565b60405133907f40338ce1a7c49204f0099533b1e9a7ee0a3d261f84974ab7af36105b8c4e9db490600090a250506001805550505050505050565b60006105cd8383611b2f565b5091505073ffffffffffffffffffffffffffffffffffffffff81163314610620576040517f08c379a000000000000000000000000000000000000000000000000000000000815260040161044d90613a1b565b7fffffffffffffffffffffffffffffffffffffffffffffffffffffffffffffffff600284846040516106539291906136c2565b9081526020016040518091039020819055508073ffffffffffffffffffffffffffffffffffffffff167f875b6cb035bbd4ac6500fabc6d1e4ca5bdc58a3e2b424ccb5c24cdbebeb009a984846040516106ad9291906137f9565b60405180910390a2505050565b7f000000000000000000000000000000000000000000000000000000000000000081565b805160208183018101805160028252928201919093012091525481565b606060008373ffffffffffffffffffffffffffffffffffffffff16836040518082805190602001908083835b6020831061076457805182527fffffffffffffffffffffffffffffffffffffffffffffffffffffffffffffffe09092019160209182019101610727565b6001836020036101000a038019825116818451168082178552505050505050905001915050600060405180830381855af49150503d80600081146107c4576040519150601f19603f3d011682016040523d82523d6000602084013e6107c9565b606091505b50809350819250505061086c82826040516020018083805190602001908083835b6020831061082757805182527fffffffffffffffffffffffffffffffffffffffffffffffffffffffffffffffe090920191602091820191016107ea565b6001836020036101000a03801982511681845116808217855250505050505090500182151560f81b815260010192505050604051602081830303815290604052611bbd565b5092915050565b606060008260200267ffffffffffffffff8111801561089157600080fd5b506040519080825280601f01601f1916602001820160405280156108bc576020820181803683370190505b50905060005b838110156108df57848101546020808302840101526001016108c2565b5090505b92915050565b6002600154141561095b57604080517f08c379a000000000000000000000000000000000000000000000000000000000815260206004820152601f60248201527f5265656e7472616e637947756172643a207265656e7472616e742063616c6c00604482015290519081900360640190fd5b60026001556040517f02cc250d00000000000000000000000000000000000000000000000000000000815273ffffffffffffffffffffffffffffffffffffffff7f000000000000000000000000000000000000000000000000000000000000000016906302cc250d906109d29033906004016136ee565b60206040518083038186803b1580156109ea57600080fd5b505afa1580156109fe573d6000803e3d6000fd5b505050506040513d601f19601f82011682018060405250810190610a229190613425565b610a58576040517f08c379a000000000000000000000000000000000000000000000000000000000815260040161044d90613c78565b6000610a62611bc5565b8051909150610a7382868686611bf2565b60007ff3b277728b3fee749481eb3e0b3b48980dbbab78658fc419025cb16eee34677582610100015114610aa8576001610aab565b60005b9050610ab5612f90565b60408085015173ffffffffffffffffffffffffffffffffffffffff90811683526101408501517f4ac99ace14ee0a5ef932dc609df0943ab7ac16b7583634612f8dc35a4289a6ce9081146020850152606080880151909216928401929092526101608501519091149082015260008667ffffffffffffffff81118015610b3a57600080fd5b50604051908082528060200260200182016040528015610b64578160200160208202803683370190505b50610100850151909150610120870135907ff3b277728b3fee749481eb3e0b3b48980dbbab78658fc419025cb16eee3467751415610c30578460800151811015610bda576040517f08c379a000000000000000000000000000000000000000000000000000000000815260040161044d90613c41565b610be78560600151611c90565b82886000013581518110610bf757fe5b602002602001018181525050610c0c81611c90565b60000382886020013581518110610c1f57fe5b602002602001018181525050610cc0565b8460600151811115610c6e576040517f08c379a000000000000000000000000000000000000000000000000000000000815260040161044d90613b9c565b610c7781611c90565b82886000013581518110610c8757fe5b602002602001018181525050610ca08560800151611c90565b60000382886020013581518110610cb357fe5b6020026020010181815250505b610cc8612f90565b8660400151816000019073ffffffffffffffffffffffffffffffffffffffff16908173ffffffffffffffffffffffffffffffffffffffff16815250508560000151816020019073ffffffffffffffffffffffffffffffffffffffff16908173ffffffffffffffffffffffffffffffffffffffff16815250508560e0015181604001818152505085610140015181606001818152505060007f000000000000000000000000000000000000000000000000000000000000000073ffffffffffffffffffffffffffffffffffffffff16634817a286878f8f8f8f8b8b8f60a001518b6040518a63ffffffff1660e01b8152600401610dcc99989796959493929190613877565b600060405180830381600087803b158015610de657600080fd5b505af1158015610dfa573d6000803e3d6000fd5b505050506040513d6000823e601f3d9081017fffffffffffffffffffffffffffffffffffffffffffffffffffffffffffffffe0168201604052610e4091908101906132ed565b90506000886020015190506000610e6d838c6000013581518110610e6057fe5b6020026020010151611d25565b90506000610e94848d6020013581518110610e8457fe5b6020026020010151600003611d25565b9050600283604051610ea691906136d2565b908152602001604051809103902054600014610eee576040517f08c379a000000000000000000000000000000000000000000000000000000000815260040161044d90613bd3565b7ff3b277728b3fee749481eb3e0b3b48980dbbab78658fc419025cb16eee3467758a61010001511415610f825789606001518214610f58576040517f08c379a000000000000000000000000000000000000000000000000000000000815260040161044d90613ac0565b8960600151600284604051610f6d91906136d2565b90815260405190819003602001902055610fe5565b89608001518114610fbf576040517f08c379a000000000000000000000000000000000000000000000000000000000815260040161044d90613af7565b8960800151600284604051610fd491906136d2565b908152604051908190036020019020555b8a6040015173ffffffffffffffffffffffffffffffffffffffff167fa07a543ab8a018198e99ca0184c93fe9050a79400a0a723441f84de1d972cc178b600001518c6020015185858f60e001518960405161104596959493929190613820565b60405180910390a260405133907f40338ce1a7c49204f0099533b1e9a7ee0a3d261f84974ab7af36105b8c4e9db490600090a25050600180555050505050505050505050505050565b7f000000000000000000000000000000000000000000000000000000000000000081565b3033146110eb576040517f08c379a000000000000000000000000000000000000000000000000000000000815260040161044d90613b65565b6110f760008383611d96565b5050565b805160208183018101805160008252928201919093012091525481565b60006111248484611b2f565b5091505073ffffffffffffffffffffffffffffffffffffffff811633146111ac57604080517f08c379a000000000000000000000000000000000000000000000000000000000815260206004820152601a60248201527f475076323a2063616e6e6f74207072657369676e206f72646572000000000000604482015290519081900360640190fd5b8115611206577ff59c009283ff87aa78203fc4d9c2df025ee851130fb69cc3e068941f6b5e2d6f60001c60008585604051808383808284378083019250505092505050908152602001604051809103902081905550611232565b600080858560405180838380828437919091019485525050604051928390036020019092209290925550505b8073ffffffffffffffffffffffffffffffffffffffff167f01bf7c8b0ca55deecbea89d7e58295b7ffbf685fd0d96801034ba8c6ffe1c68d858585604051808060200183151581526020018281038252858582818152602001925080828437600083820152604051601f9091017fffffffffffffffffffffffffffffffffffffffffffffffffffffffffffffffe016909201829003965090945050505050a250505050565b303314611310576040517f08c379a000000000000000000000000000000000000000000000000000000000815260040161044d90613b65565b6110f760028383611d96565b7f000000000000000000000000000000000000000000000000000000000000000081565b606060006343218e1960e01b8484604051602401808373ffffffffffffffffffffffffffffffffffffffff16815260200180602001828103825283818151815260200191508051906020019080838360005b838110156113aa578181015183820152602001611392565b50505050905090810190601f1680156113d75780820380516001836020036101000a031916815260200191505b50604080517fffffffffffffffffffffffffffffffffffffffffffffffffffffffffffffffe08184030181529181526020820180517bffffffffffffffffffffffffffffffffffffffffffffffffffffffff167fffffffff00000000000000000000000000000000000000000000000000000000909816979097178752518151919750309688965090945084935091508083835b602083106114a857805182527fffffffffffffffffffffffffffffffffffffffffffffffffffffffffffffffe0909201916020918201910161146b565b6001836020036101000a0380198251168184511680821785525050505050509050019150506000604051808303816000865af19150503d806000811461150a576040519150601f19603f3d011682016040523d82523d6000602084013e61150f565b606091505b5090508092505060008260018451038151811061152857fe5b602001015160f81c60f81b7effffffffffffffffffffffffffffffffffffffffffffffffffffffffffffff1916600160f81b14905061156b836001855103611e46565b80156115785750506108e3565b61158183611bbd565b505092915050565b7f000000000000000000000000000000000000000000000000000000000000000081565b60005b818110156116e557368383838181106115c557fe5b90506020028101906115d79190613dde565b905073ffffffffffffffffffffffffffffffffffffffff7f00000000000000000000000000000000000000000000000000000000000000001661161d6020830183613184565b73ffffffffffffffffffffffffffffffffffffffff16141561166b576040517f08c379a000000000000000000000000000000000000000000000000000000000815260040161044d90613caf565b61167481611e4a565b6116816020820182613184565b73ffffffffffffffffffffffffffffffffffffffff167fed99827efb37016f2275f98c4bcf71c7551c75d59e9b450f79fa32e60be672c282602001356116c684611ea1565b6040516116d4929190613ce6565b60405180910390a2506001016115b0565b505050565b60608060006116f7611bc5565b90508367ffffffffffffffff8111801561171057600080fd5b5060405190808252806020026020018201604052801561174a57816020015b611737612f90565b81526020019060019003908161172f5790505b5092508367ffffffffffffffff8111801561176457600080fd5b5060405190808252806020026020018201604052801561179e57816020015b61178b612f90565b8152602001906001900390816117835790505b50915060005b8481101561184457368686838181106117b957fe5b90506020028101906117cb9190613e11565b90506117d9838c8c84611bf2565b61183b838a8a84358181106117ea57fe5b905060200201358b8b856020013581811061180157fe5b9050602002013584610120013589878151811061181a57fe5b602002602001015189888151811061182e57fe5b6020026020010151611ecb565b506001016117a4565b5050965096945050505050565b6000815167ffffffffffffffff8111801561186b57600080fd5b506040519080825280602002602001820160405280156118a557816020015b611892612fb7565b81526020019060019003908161188a5790505b5090506000805b8351811015611a935760008482815181106118c357fe5b6020026020010151905073eeeeeeeeeeeeeeeeeeeeeeeeeeeeeeeeeeeeeeee73ffffffffffffffffffffffffffffffffffffffff16816020015173ffffffffffffffffffffffffffffffffffffffff1614156119c7577f4ac99ace14ee0a5ef932dc609df0943ab7ac16b7583634612f8dc35a4289a6ce81606001511415611977576040517f08c379a000000000000000000000000000000000000000000000000000000000815260040161044d90613b2e565b8051604080830151905173ffffffffffffffffffffffffffffffffffffffff9092169181156108fc0291906000818181858888f193505050501580156119c1573d6000803e3d6000fd5b50611a8a565b7f5a28e9363bb942b639270062aa6bb295f434bcdfc42c97267bf003f272060dc981606001511415611a2657805160408201516020830151611a219273ffffffffffffffffffffffffffffffffffffffff90911691612216565b611a8a565b6000848480600101955081518110611a3a57fe5b602090810291909101810151600081528382015173ffffffffffffffffffffffffffffffffffffffff90811692820192909252604080850151908201523060608201528351909116608090910152505b506001016118ac565b508015611b2957611aa48282611e46565b6040517f0e8e3e8400000000000000000000000000000000000000000000000000000000815273ffffffffffffffffffffffffffffffffffffffff851690630e8e3e8490611af690859060040161375d565b600060405180830381600087803b158015611b1057600080fd5b505af1158015611b24573d6000803e3d6000fd5b505050505b50505050565b6000808060388414611ba257604080517f08c379a000000000000000000000000000000000000000000000000000000000815260206004820152601160248201527f475076323a20696e76616c696420756964000000000000000000000000000000604482015290519081900360640190fd5b5050823593602084013560601c936034013560e01c92509050565b805160208201fd5b611bcd612fe7565b6040805160388082526060820190925290602082018180368337505050602082015290565b83516000611c02838686856122ee565b9050600080611c1f8484611c1a610140890189613d7b565b6123d6565b91509150611c4282828660a001518b60200151612485909392919063ffffffff16565b73ffffffffffffffffffffffffffffffffffffffff81166040890152611c688482612507565b73ffffffffffffffffffffffffffffffffffffffff1660609098019790975250505050505050565b60007f7fffffffffffffffffffffffffffffffffffffffffffffffffffffffffffffff821115611d2157604080517f08c379a000000000000000000000000000000000000000000000000000000000815260206004820152601960248201527f53616665436173743a20696e74323536206f766572666c6f7700000000000000604482015290519081900360640190fd5b5090565b600080821215611d2157604080517f08c379a000000000000000000000000000000000000000000000000000000000815260206004820152601660248201527f53616665436173743a206e6f7420706f73697469766500000000000000000000604482015290519081900360640190fd5b60005b81811015611b2957366000848484818110611db057fe5b9050602002810190611dc29190613d7b565b915091506000611dd28383611b2f565b92505050428163ffffffff1610611e15576040517f08c379a000000000000000000000000000000000000000000000000000000000815260040161044d90613c0a565b6000878484604051611e289291906136c2565b90815260405190819003602001902055505060019091019050611d99565b9052565b73ffffffffffffffffffffffffffffffffffffffff8135166020820135366000611e776040860186613d7b565b9150915060405181838237600080838387895af1611e99573d6000803e3d6000fd5b505050505050565b60003681611eb26040850185613d7b565b909250905060048110611ec457813592505b5050919050565b8551602087015160a08201514263ffffffff9091161015611f18576040517f08c379a000000000000000000000000000000000000000000000000000000000815260040161044d90613a52565b6080820151611f279087612539565b6060830151611f369089612539565b1015611f6e576040517f08c379a000000000000000000000000000000000000000000000000000000000815260040161044d90613a89565b6000806000807ff3b277728b3fee749481eb3e0b3b48980dbbab78658fc419025cb16eee346775866101000151141561206f5785610120015115611fdb57889350611fd48660600151611fce868960e0015161253990919063ffffffff16565b906125c9565b9150611fea565b856060015193508560e0015191505b611ffe8a611ff8868e612539565b9061264a565b925061202a8460028760405161201491906136d2565b90815260405190819003602001902054906126e8565b9050856060015181111561206a576040517f08c379a000000000000000000000000000000000000000000000000000000000815260040161044d90613bd3565b612116565b856101200151156120a35788925061209c8660800151611fce858960e0015161253990919063ffffffff16565b91506120b2565b856080015192508560e0015191505b6120c08b611fce858d612539565b93506120d68360028760405161201491906136d2565b90508560800151811115612116576040517f08c379a000000000000000000000000000000000000000000000000000000000815260040161044d90613bd3565b61212084836126e8565b93508060028660405161213391906136d2565b9081526020016040518091039020819055508b6040015173ffffffffffffffffffffffffffffffffffffffff167fa07a543ab8a018198e99ca0184c93fe9050a79400a0a723441f84de1d972cc17876000015188602001518787878b6040516121a196959493929190613820565b60405180910390a250506040808b015173ffffffffffffffffffffffffffffffffffffffff9081168852855181166020808a0191909152888301949094526101408601516060988901529a8701518b16865282850151909a169185019190915297830197909752610160015191015250505050565b6040517fa9059cbb0000000000000000000000000000000000000000000000000000000080825273ffffffffffffffffffffffffffffffffffffffff84166004830152602482018390529060008060448382895af1612279573d6000803e3d6000fd5b506122838461275c565b611b2957604080517f08c379a000000000000000000000000000000000000000000000000000000000815260206004820152601560248201527f475076323a206661696c6564207472616e736665720000000000000000000000604482015290519081900360640190fd5b6000838386358181106122fd57fe5b6020908102929092013573ffffffffffffffffffffffffffffffffffffffff168452508490849087013581811061233057fe5b73ffffffffffffffffffffffffffffffffffffffff602091820293909301358316908501525060408087013590911690830152606080860135908301526080808601359083015263ffffffff60a080870135919091169083015260c0808601359083015260e080860135908301526123ac610100860135612826565b61016087019190915261014086019190915290151561012085015261010090930152509392505050565b600080612403867f000000000000000000000000000000000000000000000000000000000000000061297b565b9150600085600381111561241357fe5b141561242b57612424828585612a05565b905061247c565b600185600381111561243957fe5b141561244a57612424828585612a1a565b600285600381111561245857fe5b141561246957612424828585612a82565b6124798285858960a00151612c20565b90505b94509492505050565b60388451146124f557604080517f08c379a000000000000000000000000000000000000000000000000000000000815260206004820152601960248201527f475076323a2075696420627566666572206f766572666c6f7700000000000000604482015290519081900360640190fd5b60388401526034830152602090910152565b604082015160009073ffffffffffffffffffffffffffffffffffffffff166125305750806108e3565b50506040015190565b600082612548575060006108e3565b8282028284828161255557fe5b04146125c257604080517f08c379a000000000000000000000000000000000000000000000000000000000815260206004820152601660248201527f536166654d6174683a206d756c206f766572666c6f7700000000000000000000604482015290519081900360640190fd5b9392505050565b600080821161263957604080517f08c379a000000000000000000000000000000000000000000000000000000000815260206004820152601760248201527f536166654d6174683a206469766973696f6e2062792030000000000000000000604482015290519081900360640190fd5b81838161264257fe5b049392505050565b60008082116126ba57604080517f08c379a000000000000000000000000000000000000000000000000000000000815260206004820152601f60248201527f536166654d6174683a206365696c696e67206469766973696f6e206279203000604482015290519081900360640190fd5b8183816126c357fe5b06156126d05760016126d3565b60005b60ff168284816126df57fe5b04019392505050565b6000828201838110156125c257604080517f08c379a000000000000000000000000000000000000000000000000000000000815260206004820152601b60248201527f536166654d6174683a206164646974696f6e206f766572666c6f770000000000604482015290519081900360640190fd5b600061279a565b7f08c379a0000000000000000000000000000000000000000000000000000000006000526020600452806024528160445260646000fd5b3d80156127d95760208114612813576127d47f475076323a206d616c666f726d6564207472616e7366657220726573756c7400601f612763565b612820565b823b61280a5761280a7f475076323a206e6f74206120636f6e74726163740000000000000000000000006014612763565b60019150612820565b3d6000803e600051151591505b50919050565b6000808080806001861661285c577ff3b277728b3fee749481eb3e0b3b48980dbbab78658fc419025cb16eee3467759450612880565b7f6ed88e868af0a1983e3886d5f3e95a2fafbd6c3450bc229e27342283dc429ccc94505b6002861615159350600886166128b8577f5a28e9363bb942b639270062aa6bb295f434bcdfc42c97267bf003f272060dc9925061290c565b600486166128e8577fabee3b73373acd583a130924aad6dc38cfdc44ba0555ba94ce2ff63980ea0632925061290c565b7f4ac99ace14ee0a5ef932dc609df0943ab7ac16b7583634612f8dc35a4289a6ce92505b6010861661293c577f5a28e9363bb942b639270062aa6bb295f434bcdfc42c97267bf003f272060dc99150612960565b7f4ac99ace14ee0a5ef932dc609df0943ab7ac16b7583634612f8dc35a4289a6ce91505b600586901c600381111561297057fe5b905091939590929450565b7fffffffffffffffffffffffffffffffffffffffffffffffffffffffffffffffe090910180517fd5a25ba2e97094ad7d83dc28a6572da797d6b3e7fc6663bd93efb789fc17e48982526101a0822091526040517f19010000000000000000000000000000000000000000000000000000000000008152600281019290925260228201526042902090565b6000612a12848484612de5565b949350505050565b6000808460405160200180807f19457468657265756d205369676e6564204d6573736167653a0a333200000000815250601c01828152602001915050604051602081830303815290604052805190602001209050612a79818585612de5565b95945050505050565b813560601c366000612a978460148188613e68565b604080517f1626ba7e00000000000000000000000000000000000000000000000000000000808252600482018b81526024830193845260448301859052949650929450919273ffffffffffffffffffffffffffffffffffffffff871692631626ba7e928b928892889290606401848480828437600083820152604051601f9091017fffffffffffffffffffffffffffffffffffffffffffffffffffffffffffffffe016909201965060209550909350505081840390508186803b158015612b5d57600080fd5b505afa158015612b71573d6000803e3d6000fd5b505050506040513d6020811015612b8757600080fd5b50517fffffffff000000000000000000000000000000000000000000000000000000001614612c1757604080517f08c379a000000000000000000000000000000000000000000000000000000000815260206004820152601f60248201527f475076323a20696e76616c69642065697031323731207369676e617475726500604482015290519081900360640190fd5b50509392505050565b600060148314612c9157604080517f08c379a000000000000000000000000000000000000000000000000000000000815260206004820152601c60248201527f475076323a206d616c666f726d6564207072657369676e617475726500000000604482015290519081900360640190fd5b506040805160388082526060828101909352853590921c9160009190602082018180368337019050509050612cc881878486612485565b7ff59c009283ff87aa78203fc4d9c2df025ee851130fb69cc3e068941f6b5e2d6f60001c6000826040518082805190602001908083835b60208310612d3c57805182527fffffffffffffffffffffffffffffffffffffffffffffffffffffffffffffffe09092019160209182019101612cff565b6001836020036101000a03801982511681845116808217855250505050505090500191505090815260200160405180910390205414612ddc57604080517f08c379a000000000000000000000000000000000000000000000000000000000815260206004820152601960248201527f475076323a206f72646572206e6f74207072657369676e656400000000000000604482015290519081900360640190fd5b50949350505050565b600060418214612e5657604080517f08c379a000000000000000000000000000000000000000000000000000000000815260206004820152601f60248201527f475076323a206d616c666f726d6564206563647361207369676e617475726500604482015290519081900360640190fd5b604080516000815260208181018084528790528286013560f81c82840181905286356060840181905282880135608085018190529451909493919260019260a0808201937fffffffffffffffffffffffffffffffffffffffffffffffffffffffffffffffe081019281900390910190855afa158015612ed9573d6000803e3d6000fd5b50506040517fffffffffffffffffffffffffffffffffffffffffffffffffffffffffffffffe0015194505073ffffffffffffffffffffffffffffffffffffffff8416612f8657604080517f08c379a000000000000000000000000000000000000000000000000000000000815260206004820152601d60248201527f475076323a20696e76616c6964206563647361207369676e6174757265000000604482015290519081900360640190fd5b5050509392505050565b60408051608081018252600080825260208201819052918101829052606081019190915290565b6040805160a081019091528060008152600060208201819052604082018190526060820181905260809091015290565b6040518060800160405280612ffa613014565b815260606020820181905260006040830181905291015290565b6040805161018081018252600080825260208201819052918101829052606081018290526080810182905260a0810182905260c0810182905260e0810182905261010081018290526101208101829052610140810182905261016081019190915290565b60008083601f840112613089578182fd5b50813567ffffffffffffffff8111156130a0578182fd5b60208301915083602080830285010111156130ba57600080fd5b9250929050565b60008083601f8401126130d2578182fd5b50813567ffffffffffffffff8111156130e9578182fd5b6020830191508360208285010111156130ba57600080fd5b600082601f830112613111578081fd5b813567ffffffffffffffff81111561312557fe5b61315660207fffffffffffffffffffffffffffffffffffffffffffffffffffffffffffffffe0601f84011601613e44565b81815284602083860101111561316a578283fd5b816020850160208301379081016020019190915292915050565b600060208284031215613195578081fd5b81356125c281613ebc565b600080604083850312156131b2578081fd5b82356131bd81613ebc565b9150602083013567ffffffffffffffff8111156131d8578182fd5b6131e485828601613101565b9150509250929050565b60008060208385031215613200578182fd5b823567ffffffffffffffff811115613216578283fd5b61322285828601613078565b90969095509350505050565b60008060008060008060006080888a031215613248578283fd5b873567ffffffffffffffff8082111561325f578485fd5b61326b8b838c01613078565b909950975060208a0135915080821115613283578485fd5b61328f8b838c01613078565b909750955060408a01359150808211156132a7578485fd5b6132b38b838c01613078565b909550935060608a01359150808211156132cb578283fd5b508801606081018a10156132dd578182fd5b8091505092959891949750929550565b600060208083850312156132ff578182fd5b825167ffffffffffffffff80821115613316578384fd5b818501915085601f830112613329578384fd5b81518181111561333557fe5b8381029150613345848301613e44565b8181528481019084860184860187018a101561335f578788fd5b8795505b83861015613381578051835260019590950194918601918601613363565b5098975050505050505050565b6000806000806000606086880312156133a5578081fd5b853567ffffffffffffffff808211156133bc578283fd5b6133c889838a01613078565b909750955060208801359150808211156133e0578283fd5b6133ec89838a01613078565b90955093506040880135915080821115613404578283fd5b5086016101608189031215613417578182fd5b809150509295509295909350565b600060208284031215613436578081fd5b81516125c281613ee1565b60008060208385031215613453578182fd5b823567ffffffffffffffff811115613469578283fd5b613222858286016130c1565b600080600060408486031215613489578081fd5b833567ffffffffffffffff81111561349f578182fd5b6134ab868287016130c1565b90945092505060208401356134bf81613ee1565b809150509250925092565b6000602082840312156134db578081fd5b813567ffffffffffffffff8111156134f1578182fd5b612a1284828501613101565b6000806040838503121561350f578182fd5b50508035926020909101359150565b60008284526020808501945082825b8581101561356857813561354081613ebc565b73ffffffffffffffffffffffffffffffffffffffff168752958201959082019060010161352d565b509495945050505050565b6000815180845260208085019450808401835b8381101561356857815187529582019590820190600101613586565b600082845282826020860137806020848601015260207fffffffffffffffffffffffffffffffffffffffffffffffffffffffffffffffe0601f85011685010190509392505050565b60008151808452613602816020860160208601613e90565b601f017fffffffffffffffffffffffffffffffffffffffffffffffffffffffffffffffe0169290920160200192915050565b73ffffffffffffffffffffffffffffffffffffffff8082511683528060208301511660208401525060408101516040830152606081015160608301525050565b73ffffffffffffffffffffffffffffffffffffffff808251168352602082015115156020840152806040830151166040840152506060810151151560608301525050565b63ffffffff169052565b6000828483379101908152919050565b600082516136e4818460208701613e90565b9190910192915050565b73ffffffffffffffffffffffffffffffffffffffff91909116815260200190565b6020808252825182820181905260009190848201906040850190845b818110156137515761373e838551613634565b928401926080929092019160010161372b565b50909695505050505050565b602080825282518282018190526000919060409081850190868401855b828110156137e357815180516004811061379057fe5b85528087015173ffffffffffffffffffffffffffffffffffffffff908116888701528682015187870152606080830151821690870152608091820151169085015260a0909301929085019060010161377a565b5091979650505050505050565b90815260200190565b600060208252612a126020830184866135a2565b6000602082526125c260208301846135ea565b600073ffffffffffffffffffffffffffffffffffffffff808916835280881660208401525085604083015284606083015283608083015260c060a083015261386b60c08301846135ea565b98975050505050505050565b60006101a0820160028c1061388857fe5b8b835260206101a081850152818b83526101c0850190506101c0828d0286010192508c845b8d8110156139b6577ffffffffffffffffffffffffffffffffffffffffffffffffffffffffffffffe408786030183527fffffffffffffffffffffffffffffffffffffffffffffffffffffffffffffff618f36030182351261390c578586fd5b8e823501803586528481013585870152604081013560408701526060810135606087015260808101357fffffffffffffffffffffffffffffffffffffffffffffffffffffffffffffffe1823603018112613964578788fd5b8101803567ffffffffffffffff81111561397c578889fd5b80360383131561398a578889fd5b60a060808901526139a160a08901828985016135a2565b975050509284019250908301906001016138ad565b5050505082810360408401526139cd81898b61351e565b90506139dc6060840188613674565b82810360e08401526139ee8187613573565b9150506139ff6101008301856136b8565b613a0d610120830184613634565b9a9950505050505050505050565b6020808252601f908201527f475076323a2063616c6c657220646f6573206e6f74206f776e206f7264657200604082015260600190565b60208082526013908201527f475076323a206f72646572206578706972656400000000000000000000000000604082015260600190565b6020808252601f908201527f475076323a206c696d6974207072696365206e6f742072657370656374656400604082015260600190565b6020808252601f908201527f475076323a2073656c6c20616d6f756e74206e6f742072657370656374656400604082015260600190565b6020808252601e908201527f475076323a2062757920616d6f756e74206e6f74207265737065637465640000604082015260600190565b6020808252601e908201527f475076323a20756e737570706f7274656420696e7465726e616c204554480000604082015260600190565b60208082526018908201527f475076323a206e6f7420616e20696e746572616374696f6e0000000000000000604082015260600190565b60208082526014908201527f475076323a206c696d697420746f6f2068696768000000000000000000000000604082015260600190565b60208082526012908201527f475076323a206f726465722066696c6c65640000000000000000000000000000604082015260600190565b60208082526017908201527f475076323a206f72646572207374696c6c2076616c6964000000000000000000604082015260600190565b60208082526013908201527f475076323a206c696d697420746f6f206c6f7700000000000000000000000000604082015260600190565b60208082526012908201527f475076323a206e6f74206120736f6c7665720000000000000000000000000000604082015260600190565b6020808252601b908201527f475076323a20666f7262696464656e20696e746572616374696f6e0000000000604082015260600190565b9182527fffffffff0000000000000000000000000000000000000000000000000000000016602082015260400190565b60008083357fffffffffffffffffffffffffffffffffffffffffffffffffffffffffffffffe1843603018112613d4a578283fd5b83018035915067ffffffffffffffff821115613d64578283fd5b60209081019250810236038213156130ba57600080fd5b60008083357fffffffffffffffffffffffffffffffffffffffffffffffffffffffffffffffe1843603018112613daf578283fd5b83018035915067ffffffffffffffff821115613dc9578283fd5b6020019150368190038213156130ba57600080fd5b600082357fffffffffffffffffffffffffffffffffffffffffffffffffffffffffffffffa18336030181126136e4578182fd5b600082357ffffffffffffffffffffffffffffffffffffffffffffffffffffffffffffffea18336030181126136e4578182fd5b60405181810167ffffffffffffffff81118282101715613e6057fe5b604052919050565b60008085851115613e77578182fd5b83861115613e83578182fd5b5050820193919092039150565b60005b83811015613eab578181015183820152602001613e93565b83811115611b295750506000910152565b73ffffffffffffffffffffffffffffffffffffffff81168114613ede57600080fd5b50565b8015158114613ede57600080fdfea2646970667358221220de5e493c48a3b42da03a5db89085177b8d8ccec6e9bf6e8e48b3809343624c8f64736f6c6343000706003360c060405234801561001057600080fd5b5060405161129e38038061129e83398101604081905261002f9161004b565b33606090811b6080521b6001600160601b03191660a052610079565b60006020828403121561005c578081fd5b81516001600160a01b0381168114610072578182fd5b9392505050565b60805160601c60a05160601c6111ee6100b060003980610130528061020152806102bd5250806093528061024c52506111ee6000f3fe608060405234801561001057600080fd5b50600436106100365760003560e01c80634817a2861461003b5780637d10d11f14610064575b600080fd5b61004e610049366004610cd9565b610079565b60405161005b9190610eb3565b60405180910390f35b610077610072366004610c69565b610234565b005b60603373ffffffffffffffffffffffffffffffffffffffff7f000000000000000000000000000000000000000000000000000000000000000016146100f3576040517f08c379a00000000000000000000000000000000000000000000000000000000081526004016100ea906110e5565b60405180910390fd5b6040517f945bcec900000000000000000000000000000000000000000000000000000000815273ffffffffffffffffffffffffffffffffffffffff7f0000000000000000000000000000000000000000000000000000000000000000169063945bcec990610171908c908c908c908c908c908c908c90600401610f59565b600060405180830381600087803b15801561018b57600080fd5b505af115801561019f573d6000803e3d6000fd5b505050506040513d6000823e601f3d9081017fffffffffffffffffffffffffffffffffffffffffffffffffffffffffffffffe01682016040526101e59190810190610bd9565b905061022873ffffffffffffffffffffffffffffffffffffffff7f00000000000000000000000000000000000000000000000000000000000000001683336102e9565b98975050505050505050565b3373ffffffffffffffffffffffffffffffffffffffff7f000000000000000000000000000000000000000000000000000000000000000016146102a3576040517f08c379a00000000000000000000000000000000000000000000000000000000081526004016100ea906110e5565b6102e573ffffffffffffffffffffffffffffffffffffffff7f000000000000000000000000000000000000000000000000000000000000000016838333610551565b5050565b73eeeeeeeeeeeeeeeeeeeeeeeeeeeeeeeeeeeeeeee61030e6040840160208501610bb6565b73ffffffffffffffffffffffffffffffffffffffff16141561035c576040517f08c379a00000000000000000000000000000000000000000000000000000000081526004016100ea9061111c565b7f5a28e9363bb942b639270062aa6bb295f434bcdfc42c97267bf003f272060dc9826060013514156103d0576103cb6103986020840184610bb6565b82604085018035906103ad9060208801610bb6565b73ffffffffffffffffffffffffffffffffffffffff16929190610816565b61054c565b604080516001808252818301909252600091816020015b6103ef6109cb565b8152602001906001900390816103e757905050905060008160008151811061041357fe5b602002602001015190507fabee3b73373acd583a130924aad6dc38cfdc44ba0555ba94ce2ff63980ea063284606001351461044f576002610452565b60035b8190600381111561045f57fe5b9081600381111561046c57fe5b90525061047f6040850160208601610bb6565b73ffffffffffffffffffffffffffffffffffffffff16602080830191909152604080860135908301526104b490850185610bb6565b73ffffffffffffffffffffffffffffffffffffffff908116606083015283811660808301526040517f0e8e3e8400000000000000000000000000000000000000000000000000000000815290861690630e8e3e8490610517908590600401610ec6565b600060405180830381600087803b15801561053157600080fd5b505af1158015610545573d6000803e3d6000fd5b5050505050505b505050565b60008267ffffffffffffffff8111801561056a57600080fd5b506040519080825280602002602001820160405280156105a457816020015b6105916109cb565b8152602001906001900390816105895790505b5090506000805b8481101561077857368686838181106105c057fe5b60800291909101915073eeeeeeeeeeeeeeeeeeeeeeeeeeeeeeeeeeeeeeee90506105f06040830160208401610bb6565b73ffffffffffffffffffffffffffffffffffffffff16141561063e576040517f08c379a00000000000000000000000000000000000000000000000000000000081526004016100ea9061111c565b7f5a28e9363bb942b639270062aa6bb295f434bcdfc42c97267bf003f272060dc9816060013514156106945761068f61067a6020830183610bb6565b86604084018035906103ad9060208701610bb6565b61076f565b60008484806001019550815181106106a857fe5b602002602001015190507fabee3b73373acd583a130924aad6dc38cfdc44ba0555ba94ce2ff63980ea06328260600135146106e45760016106e7565b60035b819060038111156106f457fe5b9081600381111561070157fe5b9052506107146040830160208401610bb6565b73ffffffffffffffffffffffffffffffffffffffff166020808301919091526040808401359083015261074990830183610bb6565b73ffffffffffffffffffffffffffffffffffffffff908116606083015286166080909101525b506001016105ab565b50801561080e5761078982826108fd565b6040517f0e8e3e8400000000000000000000000000000000000000000000000000000000815273ffffffffffffffffffffffffffffffffffffffff871690630e8e3e84906107db908590600401610ec6565b600060405180830381600087803b1580156107f557600080fd5b505af1158015610809573d6000803e3d6000fd5b505050505b505050505050565b6040517f23b872dd0000000000000000000000000000000000000000000000000000000080825273ffffffffffffffffffffffffffffffffffffffff8581166004840152841660248301526044820183905290600080606483828a5af1610881573d6000803e3d6000fd5b5061088b85610901565b6108f657604080517f08c379a000000000000000000000000000000000000000000000000000000000815260206004820152601960248201527f475076323a206661696c6564207472616e7366657246726f6d00000000000000604482015290519081900360640190fd5b5050505050565b9052565b600061093f565b7f08c379a0000000000000000000000000000000000000000000000000000000006000526020600452806024528160445260646000fd5b3d801561097e57602081146109b8576109797f475076323a206d616c666f726d6564207472616e7366657220726573756c7400601f610908565b6109c5565b823b6109af576109af7f475076323a206e6f74206120636f6e74726163740000000000000000000000006014610908565b600191506109c5565b3d6000803e600051151591505b50919050565b6040805160a081019091528060008152600060208201819052604082018190526060820181905260809091015290565b600082601f830112610a0b578081fd5b81356020610a20610a1b83611175565b611151565b8281528181019085830183850287018401881015610a3c578586fd5b855b85811015610a63578135610a5181611193565b84529284019290840190600101610a3e565b5090979650505050505050565b600082601f830112610a80578081fd5b81356020610a90610a1b83611175565b8281528181019085830183850287018401881015610aac578586fd5b855b85811015610a6357813584529284019290840190600101610aae565b60008083601f840112610adb578182fd5b50813567ffffffffffffffff811115610af2578182fd5b6020830191508360208083028501011115610b0c57600080fd5b9250929050565b80358015158114610b2357600080fd5b919050565b6000608082840312156109c5578081fd5b600060808284031215610b4a578081fd5b6040516080810181811067ffffffffffffffff82111715610b6757fe5b6040529050808235610b7881611193565b8152610b8660208401610b13565b60208201526040830135610b9981611193565b6040820152610baa60608401610b13565b60608201525092915050565b600060208284031215610bc7578081fd5b8135610bd281611193565b9392505050565b60006020808385031215610beb578182fd5b825167ffffffffffffffff811115610c01578283fd5b8301601f81018513610c11578283fd5b8051610c1f610a1b82611175565b8181528381019083850185840285018601891015610c3b578687fd5b8694505b83851015610c5d578051835260019490940193918501918501610c3f565b50979650505050505050565b60008060208385031215610c7b578081fd5b823567ffffffffffffffff80821115610c92578283fd5b818501915085601f830112610ca5578283fd5b813581811115610cb3578384fd5b866020608083028501011115610cc7578384fd5b60209290920196919550909350505050565b6000806000806000806000806101a0898b031215610cf5578384fd5b883560028110610d03578485fd5b9750602089013567ffffffffffffffff80821115610d1f578586fd5b610d2b8c838d01610aca565b909950975060408b0135915080821115610d43578586fd5b610d4f8c838d016109fb565b9650610d5e8c60608d01610b39565b955060e08b0135915080821115610d73578485fd5b50610d808b828c01610a70565b9350506101008901359150610d998a6101208b01610b28565b90509295985092959890939650565b6000815180845260208085019450808401835b83811015610ded57815173ffffffffffffffffffffffffffffffffffffffff1687529582019590820190600101610dbb565b509495945050505050565b6000815180845260208085019450808401835b83811015610ded57815187529582019590820190600101610e0b565b600082845282826020860137806020848601015260207fffffffffffffffffffffffffffffffffffffffffffffffffffffffffffffffe0601f85011685010190509392505050565b73ffffffffffffffffffffffffffffffffffffffff808251168352602082015115156020840152806040830151166040840152506060810151151560608301525050565b600060208252610bd26020830184610df8565b602080825282518282018190526000919060409081850190868401855b82811015610f4c578151805160048110610ef957fe5b85528087015173ffffffffffffffffffffffffffffffffffffffff908116888701528682015187870152606080830151821690870152608091820151169085015260a09093019290850190600101610ee3565b5091979650505050505050565b600061012080830160028b10610f6b57fe5b8a8452602080850192909252889052610140808401918981028501909101908a845b8b811015611098577ffffffffffffffffffffffffffffffffffffffffffffffffffffffffffffffec087850301855281357fffffffffffffffffffffffffffffffffffffffffffffffffffffffffffffff618e3603018112610fed578687fd5b8d01803585528381013584860152604080820135908601526060808201359086015260a0608080830135368490037fffffffffffffffffffffffffffffffffffffffffffffffffffffffffffffffe101811261104757898afd5b8301803567ffffffffffffffff81111561105f578a8bfd5b80360385131561106d578a8bfd5b83838a0152611081848a01828a8501610e27565b998801999850505093850193505050600101610f8d565b50505083810360408501526110ad8189610da8565b9150506110bd6060840187610e6f565b82810360e08401526110cf8186610df8565b9150508261010083015298975050505050505050565b60208082526011908201527f475076323a206e6f742063726561746f72000000000000000000000000000000604082015260600190565b6020808252818101527f475076323a2063616e6e6f74207472616e73666572206e617469766520455448604082015260600190565b60405181810167ffffffffffffffff8111828210171561116d57fe5b604052919050565b600067ffffffffffffffff82111561118957fe5b5060209081020190565b73ffffffffffffffffffffffffffffffffffffffff811681146111b557600080fd5b5056fea2646970667358221220364a6941bea69620b7dc3a957d0ab4cbf3bfc459c7ad3924d220620aca9202fc64736f6c63430007060033",
  "devdoc": {
    "author": "Gnosis Developers",
    "events": {
      "Interaction(address,uint256,bytes4)": {
        "details": "Event emitted for each executed interaction. For gas effeciency, only the interaction calldata selector (first 4 bytes) is included in the event. For interactions without calldata or whose calldata is shorter than 4 bytes, the selector will be `0`."
      },
      "OrderInvalidated(address,bytes)": {
        "details": "Event emitted when an order is invalidated."
      },
      "Settlement(address)": {
        "details": "Event emitted when a settlement complets"
      },
      "Trade(address,address,address,uint256,uint256,uint256,bytes)": {
        "details": "Event emitted for each executed trade."
      }
    },
    "kind": "dev",
    "methods": {
      "freeFilledAmountStorage(bytes[])": {
        "details": "Free storage from the filled amounts of **expired** orders to claim a gas refund. This method can only be called as an interaction.",
        "params": {
          "orderUids": "The unique identifiers of the expired order to free storage for."
        }
      },
      "freePreSignatureStorage(bytes[])": {
        "details": "Free storage from the pre signatures of **expired** orders to claim a gas refund. This method can only be called as an interaction.",
        "params": {
          "orderUids": "The unique identifiers of the expired order to free storage for."
        }
      },
      "getStorageAt(uint256,uint256)": {
        "details": "Reads `length` bytes of storage in the currents contract",
        "params": {
          "length": "- the number of words (32 bytes) of data to read",
          "offset": "- the offset in the current contract's storage in words to start reading from"
        },
        "returns": {
          "_0": "the bytes that were read."
        }
      },
      "invalidateOrder(bytes)": {
        "details": "Invalidate onchain an order that has been signed offline.",
        "params": {
          "orderUid": "The unique identifier of the order that is to be made invalid after calling this function. The user that created the order must be the the sender of this message. See [`extractOrderUidParams`] for details on orderUid."
        }
      },
      "setPreSignature(bytes,bool)": {
        "details": "Sets a presignature for the specified order UID.",
        "params": {
          "orderUid": "The unique identifier of the order to pre-sign."
        }
      },
      "settle(address[],uint256[],(uint256,uint256,address,uint256,uint256,uint32,bytes32,uint256,uint256,uint256,bytes)[],(address,uint256,bytes)[][3])": {
        "details": "Settle the specified orders at a clearing price. Note that it is the responsibility of the caller to ensure that all GPv2 invariants are upheld for the input settlement, otherwise this call will revert. Namely: - All orders are valid and signed - Accounts have sufficient balance and approval. - Settlement contract has sufficient balance to execute trades. Note   this implies that the accumulated fees held in the contract can also   be used for settlement. This is OK since:   - Solvers need to be authorized   - Misbehaving solvers will be slashed for abusing accumulated fees for     settlement   - Critically, user orders are entirely protected",
        "params": {
          "clearingPrices": "An array of clearing prices where the `i`-th price is for the `i`-th token in the [`tokens`] array.",
          "interactions": "Smart contract interactions split into three separate lists to be run before the settlement, during the settlement and after the settlement respectively.",
          "tokens": "An array of ERC20 tokens to be traded in the settlement. Trades encode tokens as indices into this array.",
          "trades": "Trades for signed orders."
        }
      },
      "simulateDelegatecall(address,bytes)": {
        "details": "Performs a delegetecall on a targetContract in the context of self. Internally reverts execution to avoid side effects (making it static). Catches revert and returns encoded result as bytes.",
        "params": {
          "calldataPayload": "Calldata that should be sent to the target contract (encoded method name and arguments).",
          "targetContract": "Address of the contract containing the code to execute."
        }
      },
      "simulateDelegatecallInternal(address,bytes)": {
        "details": "Performs a delegetecall on a targetContract in the context of self. Internally reverts execution to avoid side effects (making it static). Returns encoded result as revert message concatenated with the success flag of the inner call as a last byte.",
        "params": {
          "calldataPayload": "Calldata that should be sent to the target contract (encoded method name and arguments).",
          "targetContract": "Address of the contract containing the code to execute."
        }
      },
      "swap((bytes32,uint256,uint256,uint256,bytes)[],address[],(uint256,uint256,address,uint256,uint256,uint32,bytes32,uint256,uint256,uint256,bytes))": {
        "details": "Settle an order directly against Balancer V2 pools.",
        "params": {
          "swaps": "The Balancer V2 swap steps to use for trading.",
          "tokens": "An array of ERC20 tokens to be traded in the settlement. Swaps and the trade encode tokens as indices into this array.",
          "trade": "The trade to match directly against Balancer liquidity. The order will always be fully executed, so the trade's `executedAmount` field is used to represent a swap limit amount."
        }
      }
    },
    "stateVariables": {
      "authenticator": {
        "details": "The authenticator is used to determine who can call the settle function. That is, only authorised solvers have the ability to invoke settlements. Any valid authenticator implements an isSolver method called by the onlySolver modifier below."
      },
      "filledAmount": {
        "details": "Map each user order by UID to the amount that has been filled so far. If this amount is larger than or equal to the amount traded in the order (amount sold for sell orders, amount bought for buy orders) then the order cannot be traded anymore. If the order is fill or kill, then this value is only used to determine whether the order has already been executed."
      },
      "vault": {
        "details": "The Balancer Vault the protocol uses for managing user funds."
      },
      "vaultRelayer": {
        "details": "The Balancer Vault relayer which can interact on behalf of users. This contract is created during deployment"
      }
    },
    "title": "Gnosis Protocol v2 Settlement Contract",
    "version": 1
  },
  "userdoc": {
    "kind": "user",
    "methods": {},
    "version": 1
  },
  "storageLayout": {
    "storage": [
      {
        "astId": 2808,
        "contract": "src/contracts/GPv2Settlement.sol:GPv2Settlement",
        "label": "preSignature",
        "offset": 0,
        "slot": "0",
        "type": "t_mapping(t_bytes_memory_ptr,t_uint256)"
      },
      {
        "astId": 3292,
        "contract": "src/contracts/GPv2Settlement.sol:GPv2Settlement",
        "label": "_status",
        "offset": 0,
        "slot": "1",
        "type": "t_uint256"
      },
      {
        "astId": 218,
        "contract": "src/contracts/GPv2Settlement.sol:GPv2Settlement",
        "label": "filledAmount",
        "offset": 0,
        "slot": "2",
        "type": "t_mapping(t_bytes_memory_ptr,t_uint256)"
      }
    ],
    "types": {
      "t_bytes_memory_ptr": {
        "encoding": "bytes",
        "label": "bytes",
        "numberOfBytes": "32"
      },
      "t_mapping(t_bytes_memory_ptr,t_uint256)": {
        "encoding": "mapping",
        "key": "t_bytes_memory_ptr",
        "label": "mapping(bytes => uint256)",
        "numberOfBytes": "32",
        "value": "t_uint256"
      },
      "t_uint256": {
        "encoding": "inplace",
        "label": "uint256",
        "numberOfBytes": "32"
      }
    }
  }
}