{
  "address": "0xFeDbc87123caF3925145e1bD1Be844c03b36722f",
  "abi": [
    {
      "inputs": [
        {
          "internalType": "address",
          "name": "solver",
          "type": "address"
        }
      ],
      "name": "addSolver",
      "outputs": [],
      "stateMutability": "nonpayable",
      "type": "function"
    },
    {
      "inputs": [
        {
          "internalType": "uint256",
          "name": "offset",
          "type": "uint256"
        },
        {
          "internalType": "uint256",
          "name": "length",
          "type": "uint256"
        }
      ],
      "name": "getStorageAt",
      "outputs": [
        {
          "internalType": "bytes",
          "name": "",
          "type": "bytes"
        }
      ],
      "stateMutability": "view",
      "type": "function"
    },
    {
      "inputs": [
        {
          "internalType": "address",
          "name": "manager_",
          "type": "address"
        }
      ],
      "name": "initializeManager",
      "outputs": [],
      "stateMutability": "nonpayable",
      "type": "function"
    },
    {
      "inputs": [
        {
          "internalType": "address",
          "name": "prospectiveSolver",
          "type": "address"
        }
      ],
      "name": "isSolver",
      "outputs": [
        {
          "internalType": "bool",
          "name": "",
          "type": "bool"
        }
      ],
      "stateMutability": "view",
      "type": "function"
    },
    {
      "inputs": [],
      "name": "manager",
      "outputs": [
        {
          "internalType": "address",
          "name": "",
          "type": "address"
        }
      ],
      "stateMutability": "view",
      "type": "function"
    },
    {
      "inputs": [
        {
          "internalType": "address",
          "name": "solver",
          "type": "address"
        }
      ],
      "name": "removeSolver",
      "outputs": [],
      "stateMutability": "nonpayable",
      "type": "function"
    },
    {
      "inputs": [
        {
          "internalType": "address",
          "name": "manager_",
          "type": "address"
        }
      ],
      "name": "setManager",
      "outputs": [],
      "stateMutability": "nonpayable",
      "type": "function"
    },
    {
      "inputs": [
        {
          "internalType": "address",
          "name": "targetContract",
          "type": "address"
        },
        {
          "internalType": "bytes",
          "name": "calldataPayload",
          "type": "bytes"
        }
      ],
      "name": "simulateDelegatecall",
      "outputs": [
        {
          "internalType": "bytes",
          "name": "response",
          "type": "bytes"
        }
      ],
      "stateMutability": "nonpayable",
      "type": "function"
    },
    {
      "inputs": [
        {
          "internalType": "address",
          "name": "targetContract",
          "type": "address"
        },
        {
          "internalType": "bytes",
          "name": "calldataPayload",
          "type": "bytes"
        }
      ],
      "name": "simulateDelegatecallInternal",
      "outputs": [
        {
          "internalType": "bytes",
          "name": "response",
          "type": "bytes"
        }
      ],
      "stateMutability": "nonpayable",
      "type": "function"
    }
  ],
  "transactionHash": "0x1944a449e45f2650c224d196158ffb5bceddc71f8ab75e220420daf69aaf41db",
  "args": [],
  "solcInputHash": "f8b6a43fd36b4febc3619e7ceeb7d13f",
  "bytecode": "0x608060405234801561001057600080fd5b50610e5d806100206000396000f3fe608060405234801561001057600080fd5b50600436106100a35760003560e01c80637f7120fe11610076578063d0ebdbe71161005b578063d0ebdbe7146102e3578063ec58f4b814610316578063f84436bd14610349576100a3565b80637f7120fe1461027b5780638fd57b92146102b0576100a3565b806302cc250d146100a857806343218e19146100ef578063481c6a75146102275780635624b25b14610258575b600080fd5b6100db600480360360208110156100be57600080fd5b503573ffffffffffffffffffffffffffffffffffffffff1661040c565b604080519115158252519081900360200190f35b6101b26004803603604081101561010557600080fd5b73ffffffffffffffffffffffffffffffffffffffff823516919081019060408101602082013564010000000081111561013d57600080fd5b82018360208201111561014f57600080fd5b8035906020019184600183028401116401000000008311171561017157600080fd5b91908080601f01602080910402602001604051908101604052809392919081815260200183838082843760009201919091525092955061041f945050505050565b6040805160208082528351818301528351919283929083019185019080838360005b838110156101ec5781810151838201526020016101d4565b50505050905090810190601f1680156102195780820380516001836020036101000a031916815260200191505b509250505060405180910390f35b61022f610597565b6040805173ffffffffffffffffffffffffffffffffffffffff9092168252519081900360200190f35b6101b26004803603604081101561026e57600080fd5b50803590602001356105b9565b6102ae6004803603602081101561029157600080fd5b503573ffffffffffffffffffffffffffffffffffffffff1661062d565b005b6102ae600480360360208110156102c657600080fd5b503573ffffffffffffffffffffffffffffffffffffffff16610787565b6102ae600480360360208110156102f957600080fd5b503573ffffffffffffffffffffffffffffffffffffffff1661081e565b6102ae6004803603602081101561032c57600080fd5b503573ffffffffffffffffffffffffffffffffffffffff1661091e565b6101b26004803603604081101561035f57600080fd5b73ffffffffffffffffffffffffffffffffffffffff823516919081019060408101602082013564010000000081111561039757600080fd5b8201836020820111156103a957600080fd5b803590602001918460018302840111640100000000831117156103cb57600080fd5b91908080601f0160208091040260200160405190810160405280939291908181526020018383808284376000920191909152509295506109b5945050505050565b6000610419600183610bfe565b92915050565b606060008373ffffffffffffffffffffffffffffffffffffffff16836040518082805190602001908083835b6020831061048857805182527fffffffffffffffffffffffffffffffffffffffffffffffffffffffffffffffe0909201916020918201910161044b565b6001836020036101000a038019825116818451168082178552505050505050905001915050600060405180830381855af49150503d80600081146104e8576040519150601f19603f3d011682016040523d82523d6000602084013e6104ed565b606091505b50809350819250505061059082826040516020018083805190602001908083835b6020831061054b57805182527fffffffffffffffffffffffffffffffffffffffffffffffffffffffffffffffe0909201916020918201910161050e565b6001836020036101000a03801982511681845116808217855250505050505090500182151560f81b815260010192505050604051602081830303815290604052610c27565b5092915050565b60005462010000900473ffffffffffffffffffffffffffffffffffffffff1681565b606060008260200267ffffffffffffffff811180156105d757600080fd5b506040519080825280601f01601f191660200182016040528015610602576020820181803683370190505b50905060005b838110156106255784810154602080830284010152600101610608565b509392505050565b600054610100900460ff16806106465750610646610c2f565b80610654575060005460ff16155b6106a9576040517f08c379a000000000000000000000000000000000000000000000000000000000815260040180806020018281038252602e815260200180610dfa602e913960400191505060405180910390fd5b600054610100900460ff1615801561070f57600080547fffffffffffffffffffffffffffffffffffffffffffffffffffffffffffffff007fffffffffffffffffffffffffffffffffffffffffffffffffffffffffffff00ff909116610100171660011790555b600080547fffffffffffffffffffff0000000000000000000000000000000000000000ffff166201000073ffffffffffffffffffffffffffffffffffffffff851602179055801561078357600080547fffffffffffffffffffffffffffffffffffffffffffffffffffffffffffff00ff1690555b5050565b60005462010000900473ffffffffffffffffffffffffffffffffffffffff16331461081357604080517f08c379a000000000000000000000000000000000000000000000000000000000815260206004820152601860248201527f475076323a2063616c6c6572206e6f74206d616e616765720000000000000000604482015290519081900360640190fd5b610783600182610c40565b60005462010000900473ffffffffffffffffffffffffffffffffffffffff1633148061086657503361084e610c62565b73ffffffffffffffffffffffffffffffffffffffff16145b6108d157604080517f08c379a000000000000000000000000000000000000000000000000000000000815260206004820152601460248201527f475076323a206e6f7420617574686f72697a6564000000000000000000000000604482015290519081900360640190fd5b6000805473ffffffffffffffffffffffffffffffffffffffff90921662010000027fffffffffffffffffffff0000000000000000000000000000000000000000ffff909216919091179055565b60005462010000900473ffffffffffffffffffffffffffffffffffffffff1633146109aa57604080517f08c379a000000000000000000000000000000000000000000000000000000000815260206004820152601860248201527f475076323a2063616c6c6572206e6f74206d616e616765720000000000000000604482015290519081900360640190fd5b610783600182610c87565b606060006343218e1960e01b8484604051602401808373ffffffffffffffffffffffffffffffffffffffff16815260200180602001828103825283818151815260200191508051906020019080838360005b83811015610a1f578181015183820152602001610a07565b50505050905090810190601f168015610a4c5780820380516001836020036101000a031916815260200191505b50604080517fffffffffffffffffffffffffffffffffffffffffffffffffffffffffffffffe08184030181529181526020820180517bffffffffffffffffffffffffffffffffffffffffffffffffffffffff167fffffffff00000000000000000000000000000000000000000000000000000000909816979097178752518151919750309688965090945084935091508083835b60208310610b1d57805182527fffffffffffffffffffffffffffffffffffffffffffffffffffffffffffffffe09092019160209182019101610ae0565b6001836020036101000a0380198251168184511680821785525050505050509050019150506000604051808303816000865af19150503d8060008114610b7f576040519150601f19603f3d011682016040523d82523d6000602084013e610b84565b606091505b50905080925050600082600184510381518110610b9d57fe5b602001015160f81c60f81b7effffffffffffffffffffffffffffffffffffffffffffffffffffffffffffff1916600160f81b149050610be0836001855103610ca9565b8015610bed575050610419565b610bf683610c27565b505092915050565b6000610c208373ffffffffffffffffffffffffffffffffffffffff8416610cad565b9392505050565b805160208201fd5b6000610c3a30610cc5565b15905090565b6000610c208373ffffffffffffffffffffffffffffffffffffffff8416610ccb565b7fb53127684a568b3173ae13b9f8a6016e243e63b6e8ee1178d6a717850b5d61035490565b6000610c208373ffffffffffffffffffffffffffffffffffffffff8416610daf565b9052565b60009081526001919091016020526040902054151590565b3b151590565b60008181526001830160205260408120548015610da55783547fffffffffffffffffffffffffffffffffffffffffffffffffffffffffffffffff8083019190810190600090879083908110610d1c57fe5b9060005260206000200154905080876000018481548110610d3957fe5b600091825260208083209091019290925582815260018981019092526040902090840190558654879080610d6957fe5b60019003818190600052602060002001600090559055866001016000878152602001908152602001600020600090556001945050505050610419565b6000915050610419565b6000610dbb8383610cad565b610df157508154600181810184556000848152602080822090930184905584548482528286019093526040902091909155610419565b50600061041956fe496e697469616c697a61626c653a20636f6e747261637420697320616c726561647920696e697469616c697a6564a2646970667358221220437879e2ed29341e4154fc39abb1f65f2c6f9783258a8366c430ebf1b646507d64736f6c63430007060033",
  "devdoc": {
    "author": "Gnosis Developers",
    "kind": "dev",
    "methods": {
      "getStorageAt(uint256,uint256)": {
        "details": "Reads `length` bytes of storage in the currents contract",
        "params": {
          "length": "- the number of words (32 bytes) of data to read",
          "offset": "- the offset in the current contract's storage in words to start reading from"
        },
        "returns": {
          "_0": "the bytes that were read."
        }
      },
      "isSolver(address)": {
        "details": "determines whether the provided address is an authenticated solver.",
        "params": {
          "prospectiveSolver": "the address of prospective solver."
        },
        "returns": {
          "_0": "true when prospectiveSolver is an authenticated solver, otherwise false."
        }
      },
      "simulateDelegatecall(address,bytes)": {
        "details": "Performs a delegetecall on a targetContract in the context of self. Internally reverts execution to avoid side effects (making it static). Catches revert and returns encoded result as bytes.",
        "params": {
          "calldataPayload": "Calldata that should be sent to the target contract (encoded method name and arguments).",
          "targetContract": "Address of the contract containing the code to execute."
        }
      },
      "simulateDelegatecallInternal(address,bytes)": {
        "details": "Performs a delegetecall on a targetContract in the context of self. Internally reverts execution to avoid side effects (making it static). Returns encoded result as revert message concatenated with the success flag of the inner call as a last byte.",
        "params": {
          "calldataPayload": "Calldata that should be sent to the target contract (encoded method name and arguments).",
          "targetContract": "Address of the contract containing the code to execute."
        }
      }
    },
    "title": "Gnosis Protocol v2 Access Control Contract",
    "version": 1
  },
  "userdoc": {
    "kind": "user",
    "methods": {},
    "version": 1
  },
  "storageLayout": {
    "storage": [
      {
        "astId": 1139,
        "contract": "src/contracts/GPv2AllowListAuthentication.sol:GPv2AllowListAuthentication",
        "label": "_initialized",
        "offset": 0,
        "slot": "0",
        "type": "t_bool"
      },
      {
        "astId": 1142,
        "contract": "src/contracts/GPv2AllowListAuthentication.sol:GPv2AllowListAuthentication",
        "label": "_initializing",
        "offset": 1,
        "slot": "0",
        "type": "t_bool"
      },
      {
        "astId": 2887,
        "contract": "src/contracts/GPv2AllowListAuthentication.sol:GPv2AllowListAuthentication",
        "label": "manager",
        "offset": 2,
        "slot": "0",
        "type": "t_address"
      },
      {
        "astId": 2889,
        "contract": "src/contracts/GPv2AllowListAuthentication.sol:GPv2AllowListAuthentication",
        "label": "solvers",
        "offset": 0,
        "slot": "1",
        "type": "t_struct(AddressSet)2520_storage"
      }
    ],
    "types": {
      "t_address": {
        "encoding": "inplace",
        "label": "address",
        "numberOfBytes": "20"
      },
      "t_array(t_bytes32)dyn_storage": {
        "base": "t_bytes32",
        "encoding": "dynamic_array",
        "label": "bytes32[]",
        "numberOfBytes": "32"
      },
      "t_bool": {
        "encoding": "inplace",
        "label": "bool",
        "numberOfBytes": "1"
      },
      "t_bytes32": {
        "encoding": "inplace",
        "label": "bytes32",
        "numberOfBytes": "32"
      },
      "t_mapping(t_bytes32,t_uint256)": {
        "encoding": "mapping",
        "key": "t_bytes32",
        "label": "mapping(bytes32 => uint256)",
        "numberOfBytes": "32",
        "value": "t_uint256"
      },
      "t_struct(AddressSet)2520_storage": {
        "encoding": "inplace",
        "label": "struct EnumerableSet.AddressSet",
        "members": [
          {
            "astId": 2519,
            "contract": "src/contracts/GPv2AllowListAuthentication.sol:GPv2AllowListAuthentication",
            "label": "_inner",
            "offset": 0,
            "slot": "0",
            "type": "t_struct(Set)2255_storage"
          }
        ],
        "numberOfBytes": "64"
      },
      "t_struct(Set)2255_storage": {
        "encoding": "inplace",
        "label": "struct EnumerableSet.Set",
        "members": [
          {
            "astId": 2250,
            "contract": "src/contracts/GPv2AllowListAuthentication.sol:GPv2AllowListAuthentication",
            "label": "_values",
            "offset": 0,
            "slot": "0",
            "type": "t_array(t_bytes32)dyn_storage"
          },
          {
            "astId": 2254,
            "contract": "src/contracts/GPv2AllowListAuthentication.sol:GPv2AllowListAuthentication",
            "label": "_indexes",
            "offset": 0,
            "slot": "1",
            "type": "t_mapping(t_bytes32,t_uint256)"
          }
        ],
        "numberOfBytes": "64"
      },
      "t_uint256": {
        "encoding": "inplace",
        "label": "uint256",
        "numberOfBytes": "32"
      }
    }
  }
}