{
  "contractName": "PreAMMBatcher",
  "abi": [
    {
      "inputs": [],
      "stateMutability": "nonpayable",
      "type": "constructor"
    },
    {
      "inputs": [],
      "name": "x_uniswap",
      "outputs": [
        {
          "internalType": "uint256",
          "name": "",
          "type": "uint256"
        }
      ],
      "stateMutability": "view",
      "type": "function"
    },
    {
      "inputs": [],
      "name": "y_uniswap",
      "outputs": [
        {
          "internalType": "uint256",
          "name": "",
          "type": "uint256"
        }
      ],
      "stateMutability": "view",
      "type": "function"
    },
    {
      "inputs": [
        {
          "components": [
            {
              "internalType": "uint256",
              "name": "buyAmount",
              "type": "uint256"
            },
            {
              "internalType": "uint256",
              "name": "sellAmount",
              "type": "uint256"
            },
            {
              "internalType": "address",
              "name": "owner",
              "type": "address"
            }
          ],
          "internalType": "struct PreAMMBatcher.Order",
          "name": "buyOrders",
          "type": "tuple"
        },
        {
          "components": [
            {
              "internalType": "uint256",
              "name": "buyAmount",
              "type": "uint256"
            },
            {
              "internalType": "uint256",
              "name": "sellAmount",
              "type": "uint256"
            },
            {
              "internalType": "address",
              "name": "owner",
              "type": "address"
            }
          ],
          "internalType": "struct PreAMMBatcher.Order",
          "name": "sellOrders",
          "type": "tuple"
        }
      ],
      "name": "calculatePrice",
      "outputs": [
        {
          "internalType": "uint256",
          "name": "priceNominator",
          "type": "uint256"
        },
        {
          "internalType": "uint256",
          "name": "priceDenomitor",
          "type": "uint256"
        }
      ],
      "stateMutability": "nonpayable",
      "type": "function"
    }
  ],
  "bytecode": "0x6080604052612710600055614e2060015534801561001c57600080fd5b50612710600260003273ffffffffffffffffffffffffffffffffffffffff1673ffffffffffffffffffffffffffffffffffffffff168152602001908152602001600020819055506102af806100726000396000f3fe608060405234801561001057600080fd5b50600436106100415760003560e01c806348ee67a114610046578063b14a30ed14610064578063c91cffe614610082575b600080fd5b61004e6100b3565b60405161005b919061019e565b60405180910390f35b61006c6100b9565b604051610079919061019e565b60405180910390f35b61009c60048036038101906100979190610153565b6100bf565b6040516100aa9291906101b9565b60405180910390f35b60005481565b60015481565b6000809250929050565b6000813590506100d88161024b565b92915050565b6000606082840312156100f057600080fd5b6100fa60606101e2565b9050600061010a8482850161013e565b600083015250602061011e8482850161013e565b6020830152506040610132848285016100c9565b60408301525092915050565b60008135905061014d81610262565b92915050565b60008060c0838503121561016657600080fd5b6000610174858286016100de565b9250506060610185858286016100de565b9150509250929050565b61019881610241565b82525050565b60006020820190506101b3600083018461018f565b92915050565b60006040820190506101ce600083018561018f565b6101db602083018461018f565b9392505050565b6000604051905081810181811067ffffffffffffffff8211171561020557600080fd5b8060405250919050565b600061021a82610221565b9050919050565b600073ffffffffffffffffffffffffffffffffffffffff82169050919050565b6000819050919050565b6102548161020f565b811461025f57600080fd5b50565b61026b81610241565b811461027657600080fd5b5056fea26469706673582212204729971e7c0998d6dcd7769219001f2cfae0b02b15e0963ac02702203cc58b7764736f6c63430007010033",
  "immutableReferences": {},
  "source": "pragma experimental ABIEncoderV2;\npragma solidity ^0.7.0;\n\ncontract PreAMMBatcher {\n    uint256 public x_uniswap = 10000;\n    uint256 public y_uniswap = 20000;\n\n    mapping(address => uint256) balances;\n\n    struct Order {\n        uint256 buyAmount;\n        uint256 sellAmount;\n        address owner;\n    }\n\n    constructor() {\n        balances[tx.origin] = 10000;\n    }\n\n    /*\n     * @buyOrders, orders that are willing to sell a good A for a good B sorted by their price\n     * @sellOrders, orders that are willing to sell a good B for a good A sorted by their price\n     */\n    function calculatePrice(Order memory buyOrders, Order memory sellOrders)\n        public\n        returns (uint256 priceNominator, uint256 priceDenomitor)\n    {}\n}\n",
  "sourcePath": "/Users/alexherrmann/gnosis/ammBatcher/contracts/PreAMMBatcher.sol",
  "compiler": {
    "name": "solc",
    "version": "0.7.1+commit.f4a555be.Emscripten.clang"
  },
  "schemaVersion": "3.2.4",
  "updatedAt": "2020-09-10T15:13:22.632Z",
  "devdoc": {
    "kind": "dev",
    "methods": {},
    "version": 1
  },
  "userdoc": {
    "kind": "user",
    "methods": {},
    "version": 1
  }
}